:020000040000fa
:10000000f00f002079570000b55a0000bd5a0000db
:1000100000000000000000000000000000000000e0
:100020000000000000000000000000004b4e000037
:1000300000000000000000004b4e00004b4e00008e
:100040004b4e00004b4e00004b4e00004b4e00004c
:100050004b4e00004b4e00004b4e00004b4e00003c
:10006000fd370000d93000004b4e00004b4e000021
:100070004b4e00004b4e00004b4e00004b4e00001c
:100080004b4e00004b4e00004b4e000000000000a5
:10009000000000004b4e00004b4e00004b4e000095
:0400a0004b4e0000c3
:020000040000fa
:1000a400f8b5c046f8bc08bc9e46704759570000d6
:1000b400f8b5c046f8bc08bc9e46704731570000ee
:020000040000fa
:0800c400744e00000100000071
:020000040000fa
:1000cc0080b584b000af78607b685b00fb60c04695
:1000dc00fb685a1efa60002bfad1c046c046bd46da
:1000ec0004b080bd80b584b000af78600023fb60a5
:1000fc0007e0fa239b001800fff7e2fffb680133cf
:10010c00fb60fa687b689a42f3d3c046c046bd4692
:10011c0004b080bd80b582b000af084b7b6002e0bc
:10012c007b68013b7b6002f05dff031e02d07b68a5
:10013c00002bf5d1c046bd4602b080bda0860100a3
:10014c0080b500afae2000f0fdfa202000f0fafae6
:10015c00102000f0f7fab02000f0f4fac82000f0fc
:10016c00f1fa002000f0eefa102000f0ebfa40203b
:10017c0000f0e8fa812000f0e5fa7f2000f0e2fac6
:10018c00a12000f0dffaa62000f0dcfaa82000f095
:10019c00d9fa3f2000f0d6faa42000f0d3fad320ed
:1001ac0000f0d0fa002000f0cdfad52000f0cafa09
:1001bc00f02000f0c7fad92000f0c4fa222000f099
:1001cc00c1fada2000f0befa122000f0bbfadb20f4
:1001dc0000f0b8fa202000f0b5fa8d2000f0b2fa49
:1001ec00142000f0affaaf2000f0acfac046bd46c8
:1001fc0080bd90b585b000af040008001100fb1d58
:10020c00221c1a70bb1d021c1a707b1d0a1c1a7052
:10021c000e23fb187a1d12781a70bb1d1a78fb1d61
:10022c001b781100180000f049f80f23fb1800226e
:10023c001a7011e00e23fb181a780f243b191b7847
:10024c001d4952018a18d35c180000f097fa3b192b
:10025c001a783b1901321a700f243b191b780f2b9b
:10026c00e8d9bb1d1b780133dab2fb1d1b781100da
:10027c00180000f023f83b1910221a7011e00e231d
:10028c00fb181a780f243b191b780b4952018a185a
:10029c00d35c180000f072fa3b191a783b19013242
:1002ac001a700f23fb181b781f2be8d9c046c046c9
:1002bc00bd4605b090bdc046a023000080b582b0fd
:1002cc0000af0200fb1d1a70bb1d0a1c1a70bb1d6f
:1002dc001b78503bdbb2180000f034fafb1d1b7886
:1002ec001b09dbb25bb2102213435bb2dbb218000a
:1002fc0000f028fafb1d1b785bb20e2213405bb298
:10030c00012213435bb2dbb2180000f01bfac046ab
:10031c00bd4602b080bd90b585b000af3a60fb1d04
:10032c00021c1a70bb1d0a1c1a700e23fb1800222b
:10033c001a7047e00e23fb181b783a68d3181a780a
:10034c000d23fb18203a1a70fb1d1b787e2b07d946
:10035c00fb1d00221a70bb1d1a78bb1d01321a70ce
:10036c00bb1d1a78fb1d1b7811001800fff7a6ffa8
:10037c000f23fb1800221a7014e00d23fb181a78b7
:10038c000f243b191978164813005b009b185b006f
:10039c00c3185b5c180000f0f1f93b191a783b1993
:1003ac0001321a700f23fb181b78052be5d9fb1da6
:1003bc00fa1d127806321a700e217b181a787b18e7
:1003cc0001321a700e23fb181b783a68d3181b786d
:1003dc00002bafd1c046c046bd4605b090bdc0464f
:1003ec00881b000090b585b000af3a60fb1d021c65
:1003fc001a70bb1d0a1c1a700e23fb1800221a70ef
:10040c0069e00e23fb181b783a68d3181a780d2371
:10041c00fb18203a1a70fb1d1b78782b07d9fb1d93
:10042c0000221a70bb1d1a78bb1d01321a70bb1d3d
:10043c001a78fb1d1b7811001800fff73fff0f23e4
:10044c00fb1800221a7011e00d23fb181a780f24e8
:10045c003b191b78264912018a18d35c180000f04e
:10046c008df93b191a783b1901321a700f243b197c
:10047c001b78072be8d9bb1d1b780133dab2fb1da7
:10048c001b7811001800fff719ff3b1908221a708e
:10049c0011e00d23fb181a780f243b191b78144913
:1004ac0012018a18d35c180000f068f93b191a780d
:1004bc003b1901321a700f23fb181b780f2be8d94c
:1004cc00fb1dfa1d127808321a700e217b181a784f
:1004dc007b1801321a700e23fb181b783a68d3185c
:1004ec001b78002b8dd1c046c046bd4605b090bdd3
:1004fc00b01d000090b585b000af040008001100dd
:10050c003b60fb1d221c1a70bb1d021c1a707b1d4c
:10051c000a1c1a700e23fb1800221a7069e00e23b5
:10052c00fb181b783a68d3181a780d23fb18203a5d
:10053c001a70fb1d1b78782b07d9fb1d00221a7033
:10054c00bb1d1a78bb1d01321a70bb1d1a78fb1d1e
:10055c001b7811001800fff7b1fe0f23fb180022c7
:10056c001a7011e00d23fb181a780f243b191b7815
:10057c00264912018a18d35c180000f0fff83b19c9
:10058c001a783b1901321a700f243b191b78072b70
:10059c00e8d9bb1d1b780133dab2fb1d1b781100a7
:1005ac001800fff78bfe3b1908221a7011e00d237f
:1005bc00fb181a780f243b191b78144912018a185e
:1005cc00d35c180000f0daf83b191a783b190132a9
:1005dc001a700f23fb181b780f2be8d9fb1dfa1d83
:1005ec00127808321a700e217b181a787b18013297
:1005fc001a700e23fa187b1d12781b789a428ed330
:10060c00c046c046bd4605b090bdc046b01d0000fa
:10061c0080b582b000afbb1d00221a7021e0bb1d5b
:10062c001b78503bdbb2180000f08cf8002000f077
:10063c0089f8102000f086f8fb1d00221a7007e0e4
:10064c00002000f09bf8fb1d1a78fb1d01321a707c
:10065c00fb1d1b78802bf3d9bb1d1a78bb1d0132f7
:10066c001a70bb1d1b78072bd9d9c046c046bd4696
:10067c0002b080bd80b500afaf2000f063f8c0467b
:10068c00bd4680bd80b500afae2000f05bf8c04623
:10069c00bd4680bdb0b584b000af05000c001000a5
:1006ac001900fb1d2a1c1a70bb1d221c1a707b1d05
:1006bc00021c1a703b1d0a1c1a700e23fb18002218
:1006cc001a800c23fb18ba1d12781a702ee00c231a
:1006dc00fb181a78fb1d1b7811001800fff7eefdb4
:1006ec000d23fb18fa1d12781a7012e00e22bb189b
:1006fc001b88ba18591c11801a003b6a9b181b786e
:10070c00180000f03bf80d217b181a787b18013289
:10071c001a700d23fa187b1d12781b789a42e5d3b8
:10072c000c217b181a787b1801321a700c23fa18da
:10073c003b1d12781b789a42c9d3c046c046bd46b1
:10074c0004b0b0bd80b582b000af0200fb1d1a70c2
:10075c00094b80221a70084bfa1d12785a70064bfe
:10076c00022219003c2002f065fbfff7d3fcc046c7
:10077c00bd4602b080bdc046b804002080b582b032
:10078c0000af0200fb1d1a70094b40221a70084b77
:10079c00fa1d12785a70064b022219003c2002f006
:1007ac0049fbfff7b7fcc046bd4602b080bdc04652
:1007bc00b804002080b58cb000aff860b9607a60e6
:1007cc000023fb620023bb62fb68002b04da0123cd
:1007dc00bb62fb685b42fb60fb68002b1dd1fb6ab4
:1007ec005a1cfa621422ba183021d15418e0fb6852
:1007fc000a21180004f0aefc0b00dab2fb6a591c9b
:10080c00f9623032d1b21422ba18d154fb680a21e1
:10081c00180004f055fc0300fb60fb68002be6dcc1
:10082c007a68fb6ad21abb6ad31a7b6200233b62da
:10083c0007e03b6a5a1c3a621a00bb689b182022dc
:10084c001a707b6a5a1e7a62002bf2dcbb6a002b90
:10085c0017d03b6a5a1c3a621a00bb689b182d22af
:10086c001a700ee0fb6a013bfb623b6a5a1c3a624f
:10087c001a00bb689b181422b918fa6a8a181278e5
:10088c001a70fb6a002beddc3b6aba68d3180022a5
:10089c001a70c046bd460cb080bd90b58bb000af91
:1008ac00b9607a600e23fb18021c1a801023fb1807
:1008bc00164a13ca13c31168196012791a717b682e
:1008cc00013b7b6216e00e23fb181a887b6a9b00a7
:1008dc001a4113000f221a407b68591e7b6acb1aef
:1008ec001900bb685b18102179188a5c1a707b6a36
:1008fc00013b7b627b6a002be5da7b68ba68d31814
:10090c0000221a70c046bd460bb090bda02400005a
:10091c00b0b584b000af05000c0010001900bb1d71
:10092c002a1c1a807b1d221c1a703b1d021c1a707b
:10093c00fb1c0a1c1a705f4b1a0000211020fff7d9
:10094c00eafc5d4b1a0001210020fff7e4fc5b4b35
:10095c001a0002210020fff7defcbb1d1b88584942
:10096c0005221800fff726ff554b1a0002211e2006
:10097c00fff738fd534b1a0004210020fff7cbfc86
:10098c007b1d1b784e4903221800fff713ff4c4bbd
:10099c00180005f01df803001a00494bd2184a4bf9
:1009ac001000190005231a0005f058f8444b1a00e2
:1009bc0004211e20fff7affc444b1a0004214e20eb
:1009cc00fff7a9fc3b1d1b783d4903221800fff7dc
:1009dc00f1fe3b4b180004f0fbff03001a00384bf0
:1009ec00d2183b4b1000190002231a0005f036f800
:1009fc00334b1a0004216620fff78dfcfb1c1b787f
:100a0c00002b06d0334b1a0005210020fff783fc86
:100a1c0005e0314b1a0005210020fff77cfc2f4b21
:100a2c001a0006210020fff776fc25492023fb182d
:100a3c001b8803221800fff730ff214b1a000621f8
:100a4c001e20fff768fc264b1a0006213620fff704
:100a5c0062fc0023fb601ae0fb68ba6ad3181b78af
:100a6c001800174b02221900fff717fffb68dbb2c7
:100a7c001a1cd200d318db18dbb24233dbb2104a9b
:100a8c0006211800fff747fcfb680133fb602423a9
:100a9c00fb181b78fa689a4202dafb68022bdbdd42
:100aac00054b1a0007210020fff735fcc046bd4658
:100abc0004b0b0bdb4240000c4240000dc24000049
:100acc00bc040020e4240000ec240000f42400000a
:100adc00fc2400000025000014250000282500003f
:100aec003025000080b500af1a4b180000f066f8f6
:100afc006420fff7f7fa184b180000f05ff8fff7c7
:100b0c001ffb164b180000f059f8fff781fd0a2067
:100b1c00fff7e8fa124b180000f050f8114b1a00ce
:100b2c0001210820fff75efc0f4b1a00032108205f
:100b3c00fff758fc0d4b1a0006211620fff7ebfbb4
:100b4c000b4b1800fff7cefafff762fdc046bd460f
:100b5c0080bdc046342500003c2500004c2500001b
:100b6c0054250000602500006c250000782500004d
:100b7c00dc05000080b584b000af0200fb1d1a70cc
:100b8c000c4bfb6005e0fb68013bfb60fb68002b3a
:100b9c000cd0094b9b7bdbb21a0001231340f2d023
:100bac00054afb1d1b789bb2138300e0c046bd4673
:100bbc0004b080bd50c300000008004280b582b074
:100bcc0000af78600de07b681b780a2b02d10d20fa
:100bdc00fff7d0ff7b685a1c7a601b781800fff770
:100bec00c9ff7b681b78002bedd1c046c046bd46c3
:100bfc0002b080bd80b582b000af78607b68180011
:100c0c00fff7dcff034b1800fff7d8ffc046bd46cb
:100c1c0002b080bd8825000080b586b000af78603a
:100c2c0000237b617b68002b05da2d20fff7a2ffe8
:100c3c007b685b427b607b68002b19d13020fff70f
:100c4c0099ff27e07b680a21180004f083fa0b0057
:100c5c00dab27b69591c79613032d1b20822ba18e8
:100c6c00d1547b680a21180004f02afa03007b6037
:100c7c007b68002be6dc0ae07b69013b7b61082387
:100c8c00fa187b69d3181b781800fff773ff7b6980
:100c9c00002bf1dcbd4606b080bd90b589b000af2d
:100cac0002003960bb1d1a800823fb18134a13cab3
:100cbc0013c31168196012791a71114b1800fff7e0
:100ccc007dff3b68013b9b00fb610fe0bb1d1a885d
:100cdc00fb691a4113000f2213400822ba18d35c87
:100cec001800fff747fffb69043bfb61fb69002b16
:100cfc00ecdac046c046bd4609b090bda024000049
:100d0c008c25000080b586b000af78603960002378
:100d1c007b617b683b613b69002b02d101237b61ca
:100d2c0016e03b69002b10da7b6901337b613b6970
:100d3c005b423b6109e07b6901337b613b690a21c2
:100d4c00180004f0bdf903003b613b69002bf2dc99
:100d5c007b681800fff760ff7b69fb6005e02020d3
:100d6c00fff708fffb680133fb60fa683b689a42a7
:100d7c00f5dbc046c046bd4606b080bd80b500afb1
:100d8c00034b1800fff71affc046bd4680bdc04696
:100d9c009025000080b500af0a49882280239b0073
:100dac008b50084b30229a600649942280239b007a
:100dbc008b50044b10225a61024b20225a61c046c0
:100dcc00bd4680bd0044004180b500af0649942269
:100ddc0080239b008b50044b10225a61024b202223
:100dec005a61c046bd4680bd0044004180b500af8d
:100dfc000649982280239b008b50044b10225a6189
:100e0c00024b20225a61c046bd4680bd00440041c1
:100e1c0080b500af0649942280239b008b50044b75
:100e2c0010229a61024b20225a61c046bd4680bdf9
:100e3c000044004180b500af0649942280239b00fa
:100e4c008b50044b10225a61024b20229a61c046ef
:100e5c00bd4680bd0044004180b500af06499822d4
:100e6c0080239b008b50044b10229a61024b202252
:100e7c005a61c046bd4680bd0044004180b500affc
:100e8c000649942280239b008b50044b10229a61bc
:100e9c00024b20229a61c046bd4680bd00440041f1
:100eac0080b500af0649982280239b008b50044be1
:100ebc0010229a61024b20229a61c046bd4680bd29
:100ecc000044004180b586b000af0200bb1d1a8003
:100edc003b1d0a1c1a80bb1d1b881900174804f007
:100eec00eff803003b61bb1d1b883a1d128853436e
:100efc00fa229100180004f0cdf90300fb600023e6
:100f0c007b6112e00e4b8022d2019a613b69180082
:100f1c00fff7d6f80a4b8022d2015a613b691800c0
:100f2c00fff7cef87b6901337b617a69fb689a42e3
:100f3c00e8d3c046c046bd4606b080bd20a1070020
:100f4c000044004180b500afc0235b0119000120b3
:100f5c0003f0c6fb03f0f0fbc04603f07dfc03007e
:100f6c001a0001235340dbb2002bf6d103f03afcfc
:100f7c0003001a00642353430449180004f08af94f
:100f8c000300dbb21800bd4680bdc046ff0f000059
:100f9c0080b500af0e4984228023db008b500c4ab5
:100fac00ca230621d1540a4998228023db008b5096
:100fbc00074b802212025a60054a4f230621d15456
:100fcc00034b802212029a61c046bd4680bdc046ca
:100fdc000044004180b500af054aa023d3589b0aba
:100fec00012213405a425341dbb21800bd4680bd6a
:100ffc000044004180b500af054b1b6adb0b01229e
:10100c0013405a425341dbb21800bd4680bdc04666
:10101c000044004190b589b000af3a60bb1d021c82
:10102c001a807b1d0a1c1a701e23fb1800221a80c2
:10103c000a23bb6128e0bb1d1a88bb691a41130047
:10104c005ab21e203b181b889b0b9bb25bb25340c1
:10105c005bb2dab209243b1901210a401a703b1821
:10106c001b88db189ab23b185204520c1a803b199d
:10107c001b78002b05d03b183a1812883d494a4082
:10108c001a80bb69013bbb61bb69002bd3da03231c
:10109c007b6128e07b1d1a787b691a4113005ab2d8
:1010ac001e203b181b889b0b9bb25bb253405bb260
:1010bc00dab20a243b1901210a401a703b181b882a
:1010cc00db189ab23b185204520c1a803b191b784d
:1010dc00002b05d03b183a18128826494a401a8032
:1010ec007b69013b7b617b69002bd3da00233b617d
:1010fc0034e00723fb602be03b693a68d3181b787c
:10110c001a00fb681a4113005ab21e203b181b88a8
:10111c009b0b9bb25bb253405bb2dab20b243b1914
:10112c0001210a401a703b181b88db189ab23b1835
:10113c005204520c1a803b191b78002b05d03b181b
:10114c003a1812880b494a401a80fb68013bfb6035
:10115c00fb68002bd0da3b6901333b617b1d1b78ac
:10116c003a699a42c5db1e23fb181b881800bd4642
:10117c0009b090bd9945000090b583b000affc1d3f
:10118c00fff728ff03002370bc1dfff733ff03009c
:10119c002370fff7d7fe03001a00b14b1a70fb1d2a
:1011ac001b78002b03d1bb1d1b78002b02d0ad4b41
:1011bc0001221a70fb1d1b78002b24d0bb1d1b7841
:1011cc0001225340dbb2002b1dd0a74b00221a701a
:1011dc00a64b802212019a61a54b1b88a54a93420b
:1011ec0005d8a34b1b8864339ab2a14b1a80a24b2f
:1011fc001b78b32b00d90ae19f4b1b780333dab26f
:10120c009d4b1a7003e1bb1d1b78002b28d0fb1dd6
:10121c001b7801225340dbb2002b21d0924b0122d0
:10122c001a70924b802212015a61914b1a88c82372
:10123c009b009a4205d98e4b1b88963b9ab28c4bdd
:10124c001a808d4b1b78002b06d08b4b1b78053be3
:10125c00dab2894b1a70dae0874b00221a70d6e0aa
:10126c00814b00221a70814b802212019a617d4bb6
:10127c001b78002b36d07a4b1b78142b1ad9784b51
:10128c001b781a00282353439bb2c8229200944621
:10129c0063449ab2764b1a80774b1a78704b1b7852
:1012ac009a4200d3b3e0744b1b780133dab2724b21
:1012bc001a70ace06e4b1a88c8239b009a4205d971
:1012cc006b4b1b881e3b9ab2694b1a806a4b1b787e
:1012dc00002b00d19be0684b1b78013bdab2664bcc
:1012ec001a7094e0654b1b8801339ab2634b1a80d9
:1012fc00634b1b78002b14d15d4b624a1a805e4bfa
:10130c0000221a70564b00221a705c4b1b88052b5e
:10131c0000d87ce05a4b01221a70584b00221a80dc
:10132c0075e0574b1b78012b2cd14d4b1b78452b63
:10133c0005d84b4b1b780a33dab2494b1a70484b21
:10134c001b781a1c1201d31adb189bb2fa229200da
:10135c00944663449ab2464b1a80474b1b784f2bea
:10136c0005d8454b1b780533dab2434b1a70424b08
:10137c001b784f2b4bd9424b02221a703f4b002249
:10138c001a8044e03e4b1b78022b13d1384b3e4a5b
:10139c001a80394b50221a70314b1e221a70374b5f
:1013ac001b88082b33d9364b03221a70334b00227f
:1013bc001a802ce02a4b00221a702b4b01221a7037
:1013cc002b4b1a88c8239b009a4205d9284b1b88a3
:1013dc00963b9ab2264b1a80274b1b78002b06d0d3
:1013ec00254b1b78083bdab2234b1a7005e0224bd5
:1013fc0000221a701c4b00221a701f4b1b78002bfa
:10140c0005d11f4b00221a701c4b00221a80164b60
:10141c001b78002b02d0fff7e9fc1de0164b1b7864
:10142c00642b02d9fff718fd16e0134b1b783c2bed
:10143c0002d9fff7edfc0fe00f4b1b78142b02d9f0
:10144c00fff71cfd08e00c4b1b78002b02d0fff7bc
:10145c00f1fc01e0fff724fdc046bd4603b090bd92
:10146c00d5040020d7040020d604002000440041fd
:10147c00860400206f170000d4040020d80400203c
:10148c00da040020520300009808000080b500af79
:10149c000b4b1800fff7aefb0a4b1800fff7aafb2b
:1014ac00094b1800fff7a6fb064b1800fff7a2fb31
:1014bc00034b1800fff79efbc046bd4680bdc046df
:1014cc00982500009c250000dc25000080b500afad
:1014dc00094b1800fff78efb084b1800fff78afb2f
:1014ec00074b1800fff786fb064b1800fff782fb33
:1014fc00c046bd4680bdc046142600002026000014
:10150c00502600009825000080b500af3c4b180019
:10151c00fff770fb3b4b1800fff76cfb3a4b1800c6
:10152c00fff768fb394b1800fff748fb384b1b885b
:10153c0006211800fff7e6fb334b1800fff75afba8
:10154c00344b1800fff73afb334b1b780321180080
:10155c00fff7d8fb314b1800fff74cfb304b180052
:10156c00fff72cfb2f4b1b7803211800fff7cafb4e
:10157c002d4b1800fff73efb2c4b1800fff71efb02
:10158c002b4b1b78002b01d02a4b00e02a4b180068
:10159c00fff730fb294b1800fff710fb284b1b788b
:1015ac00002b01d0274b00e0274b1800fff722fb44
:1015bc00154b1800fff71efb244b1800fff7fefa23
:1015cc00fff708fd031e01d0214b00e0214b180052
:1015dc00fff7f4fa204b1800fff7f0fafff70afdbb
:1015ec00031e01d01d4b00e01d4b1800fff702fb42
:1015fc00054b1800fff7fefac046bd4680bdc0463d
:10160c007c260000bc26000098250000cc2600009b
:10161c0086040020e0260000d4040020f4260000fc
:10162c00fc260000d5040020102700001427000021
:10163c00d604002028270000302700003c2700009b
:10164c00d7040020502700006827000078270000ee
:10165c00802700008c27000098270000a02700009e
:10166c00a8270000b0b586b000afb96011007b6050
:10167c000e243b19021c1a800d257b190a1c1a70aa
:10168c003d4b01225a613d4b05211800fff71afc16
:10169c003b4b1800fff7aefa3a4b1800fff7aafacb
:1016ac00394b1800fff7a6fa384b1800fff786faeb
:1016bc00bb681800fff79efa354b1800fff77efa4f
:1016cc003b191b8803211800fff7e7fa2e4b180073
:1016dc00fff790fa2f4b1800fff770fa7b191b7865
:1016ec001800fff799fa2c4b1800fff783fa2b4bd5
:1016fc001800fff763fa00237b610ee07b697a68c0
:10170c00d3181b7802211800fff7c7fa244b1800d6
:10171c00fff754fa7b6901337b610d243b191b786d
:10172c007a699a42eadb184b1800fff763fa1d4bf3
:10173c001800fff743fa7a683b1919780e23fb1847
:10174c001b881800fff766fc030004211800fff744
:10175c00a4fa0d4b1800fff74dfa0b4b1800fff7ce
:10176c0049fa3220fef7befc034b01229a61c046b7
:10177c00bd4606b0b0bdc04600440041b80b0000e9
:10178c007c260000ac27000098250000c427000030
:10179c00d8270000ec2700000028000008280000d3
:1017ac001c28000020280000b0b588b004af002031
:1017bc0003f08cfefff7ecfb02f062fffff7eafa96
:1017cc00fff7dcfaca4b1800fff714fac94b1800e4
:1017dc00fff710fac84b1800fff70cfac54b1800ae
:1017ec00fff708fac24b1800fff704fac34b1800b6
:1017fc00fff700fac24b1800fff7e0f9c14b0122ca
:10180c005a616420fef76efcbe4b01229a61bd4bff
:10181c0002225a616420fef765fcba4b02229a61df
:10182c00b84b8022d2005a616420fef75bfcb54baa
:10183c008022d2009a61b34b802212015a6164203b
:10184c00fef750fcaf4b802212019a61ae4b180090
:10185c00fff7d0f9ad4b1800fff7ccf9fff7c6fa3c
:10186c0096235b001800fef73dfcfff7d1fa962398
:10187c005b001800fef736fcfff7dcfa96235b00e2
:10188c001800fef72ffcfff79ffaa14b1800fff78b
:10189c00b1f9a04b1800fff791f9fa239b006421d2
:1018ac001800fff70ffb984b1800fff7a3f99a4ba2
:1018bc001800fff783f9fff745fb03001800fff74b
:1018cc00abf9964b1800fff795f9954b1800fff7fd
:1018dc0075f9fff707f98c4b1800fff78bf9844b60
:1018ec001800fff787f98f4b1800fff783f9fa23dd
:1018fc009b0064211800fff7e5fa3220fef7f2fb9b
:10190c00894b64211800fff7ddfa3220fef7eafb61
:10191c00fa23db0096211800fff7d4fafa239b0078
:10192c001800fef7dffb0f23fb1800221a700c23a4
:10193c00fb18c0221a80fff71ffcfff71ffafff7f6
:10194c00a5fdfff7c3fdfff7dffd0f23fb181b7889
:10195c00022b68d000dd99e0002b02d0012b3ed089
:10196c0094e0724b1b881b0a9bb2dab23b1d1a70b7
:10197c006e4b1b88dab23b1d5a700c23fb18c0222d
:10198c001a803b1d6a490222c020fff76bfe694b8f
:10199c001800fff713f9684b1800fff70ff93b1d00
:1019ac001b781800fff738f9644b1800fff706f99d
:1019bc003b1d5b781800fff72ff9614b1800fff700
:1019cc00fdf85a4b1b881800fff726f9484b1800f6
:1019dc00fff710f9464b1800fff70cf956e0594b7e
:1019ec001a783b1d1a700c23fb18d0221a803b1d51
:1019fc0055490122d020fff735fe544b1800fff754
:101a0c00ddf8534b1800fff7d9f84e4b1b78180034
:101a1c00fff702f94f4b1800fff7ecf8344b1800a6
:101a2c00fff7e8f832e04c4b1a783b1d1a704b4b21
:101a3c001b781a003b1d5a700c23fb18f0221a80dd
:101a4c003b1d47490222f020fff70cfe454b1800c6
:101a5c00fff7d0f8444b1800fff7b0f83e4b1b785b
:101a6c001800fff7d9f8414b1800fff7a7f83b4bcc
:101a7c001b78002b01d03e4b00e03e4b1800fff7cb
:101a8c00b9f81b4b1800fff7b5f8c0463a4b1800d5
:101a9c00fff7b0f8254b18882a4b19782e4b1c7879
:101aac002e4b1d780f23fb181b78012b01d1012322
:101abc0000e002233a1d029201930c23fb181b88b1
:101acc0000932b002200fef723ff0f217b181a78be
:101adc007b1801321a707b181b78022b02d97b18e9
:101aec0000221a70fa23db001800fef7fbfa22e73b
:101afc009825000034280000602800008028000091
:101b0c009428000000440041a0280000a4280000f4
:101b1c00b8280000c8280000d4280000e0280000e5
:101b2c00e8280000f4280000dc05000086040020f2
:101b3c00102900001c290000502900006c2900000d
:101b4c0078290000d40400207c2900008c29000096
:101b5c00b0290000f4260000d5040020d604002093
:101b6c00cc290000dc290000142a0000342a0000d3
:0c1b7c00402a0000482a00009c250000c0
:020000040000fa
:101b88000000000000000000002f00000000070017
:101b9800070000147f147f1400242a7f2a12006291
:101ba800640813230036495522500000050300003d
:101bb80000001c224100000041221c000014083ec5
:101bc80008140008083e0808000000a0600000088b
:101bd80008080808000060600000002010080402df
:101be800003e5149453e0000427f4000004261519d
:101bf8004946002141454b31001814127f10002737
:101c080045454539003c4a494930000171090503f9
:101c180000364949493600064949291e000036362a
:101c2800000000005636000000081422410000148d
:101c3800141414140000412214080002015109066a
:101c480000324959513e007c1211127c007f4949eb
:101c58004936003e41414122007f4141221c007f1c
:101c680049494941007f09090901003e4149497a2a
:101c7800007f0808087f0000417f410000204041a4
:101c88003f01007f08142241007f40404040007f10
:101c9800020c027f007f0408107f003e4141413e54
:101ca800007f09090906003e4151215e007f09199c
:101cb80029460046494949310001017f0101003f99
:101cc8004040403f001f2040201f003f4038403f19
:101cd800006314081463000708700807006151497d
:101ce800454300007f41410000552a552a55000010
:101cf80041417f000004020102040040404040408e
:101d0800000001020400002054545478007f484425
:101d1800443800384444442000384444487f00385c
:101d28005454541800087e0901020018a4a4a47c85
:101d3800007f080404780000447d4000004080844f
:101d48007d00007f102844000000417f4000007c97
:101d580004180478007c08040478003844444438a3
:101d680000fc242424180018242418fc007c0804ef
:101d7800040800485454542000043f444020003cc8
:101d88004040207c001c2040201c003c4030403c4f
:101d9800004428102844001ca0a0a07c00446454df
:101da8004c44141414141414000000000000000023
:101db8000000000000000000000000f80000000023
:101dc800000000333000000000100c06100c060064
:101dd800000000000000000040c07840c0784000cb
:101de800043f04043f040400007088fc083000002d
:101df800001820ff211e0000f008f000e018000085
:101e080000211c031e211e0000f00888700000003d
:101e18001e2123241927211010160e00000000008f
:101e28000000000000000000000000e018040200ac
:101e3800000000071820400000020418e00000001d
:101e48000040201807000000404080f0804040001b
:101e58000202010f01020200000000f00000000071
:101e68000101011f01010100000000000000000045
:101e780080b07000000000000000000000000000ba
:101e88000001010101010101000000000000000043
:101e980000303000000000000000000080601804de
:101ea800006018060100000000e010080810e000bb
:101eb800000f102020100f00001010f80000000084
:101ec8000020203f202000000070080808887000cb
:101ed800003028242221300000300888884830004b
:101ee8000018202020110e000000c02010f800006b
:101ef80000070424243f240000f808888808080004
:101f08000019212020110e0000e010888818000018
:101f1800000f112020110e0000380808c8380800ea
:101f28000000003f0000000000708808088870006a
:101f3800001c222121221c0000e010080810e000eb
:101f48000000312222110f00000000c0c000000074
:101f58000000003030000000000000800000000099
:101f68000000806000000000000080402010080091
:101f7800000102040810200040404040404040005a
:101f88000404040404040400000810204080000035
:101f98000020100804020100007048080808f0003a
:101fa8000000003036010000c030c828e810e0000a
:101fb8000718272423140b000000c038e000000095
:101fc800203c23020227382008f8888888700000ff
:101fd800203f202020110e00c030080808083800d3
:101fe800071820202010080008f808080810e0004a
:101ff800203f202020100f0008f88888e8081000eb
:10200800203f20202320180008f88888e8081000be
:10201800203f200003000000c030080808380000f6
:1020280007182020221e020008f808000008f808f7
:10203800203f210101213f20000808f8080800007e
:102048000020203f2020000000000808f8080800b1
:10205800c08080807f00000008f888c02818080029
:10206800203f20012638200008f808000000000062
:10207800203f20202020300008f8f800f8f8080059
:10208800203f003f003f200008f830c00008f80853
:10209800203f200007183f00e01008080810e00063
:1020a8000f10202020100f0008f808080808f0007a
:1020b800203f210101010000e01008080810e0009d
:1020c8000f18242438504f0008f888888888700032
:1020d800203f2000030c30200070880808083800d2
:1020e8000038202121221c00180808f808081800c8
:1020f8000000203f2000000008f808000008f80849
:10210800001f202020201f000878880000c83808f9
:10211800000007380e010000f80800f80008f80071
:10212800033c0700073c030008186880806818080b
:1021380020302c03032c30200838c800c838080089
:102148000000203f2000000010080808c8380800d8
:102158002038262120201800000000fe020202007c
:102168000000007f40404000000c30c0000000002c
:10217800000000010638c00000020202fe00000054
:10218800004040407f0000000000040202020400fa
:102198000000000000000000000000000000000037
:1021a800808080808080808000020204000000001f
:1021b8000000000000000000000080808080000017
:1021c8000019242222223f2008f800808000000005
:1021d800003f112020110e000000008080800000c8
:1021e800000e112020201100000000808088f800d7
:1021f800000e112020103f20000080808080000009
:10220800001f222222221300008080f0888888186c
:102218000020203f20200000000080808080800077
:10222800006b94949493600008f80080808000000c
:10223800203f210000203f200080989800000000e7
:102248000020203f20200000000000809898000017
:1022580000c08080807f000008f800008080800037
:10226800203f24022d302000000808f8000000005c
:102278000020203f20200000808080808080800017
:10228800203f20003f20003f8080008080800000a9
:10229800203f210000203f20000080808080000037
:1022a800001f202020201f00808000808000000068
:1022b80080ffa12020110e00000000808080800097
:1022c800000e112020a0ff80808080008080800088
:1022d80020203f21200001000000808080808000b5
:1022e8000033242424241900008080e0808000002a
:1022f8000000001f20200000808000000080800077
:10230800001f202020103f208080800000808080d7
:1023180000010e3008060100808000800080808067
:102328000f300c030c300f0000808000808080008c
:102338000020312e0e3120008080800000808080b7
:1023480080818e7018060100008080808080800067
:102358000021302c2221300000000000807c020285
:1023680000000000003f404000000000ff000000a7
:1023780000000000ff0000000002027c8000000056
:102388000040403f00000000000601010202040472
:1023980000000000000000002020fefe2020240491
:1023a80004fc04040404fc0000003f1f18884430a7
:1023b8001f414040407f1f00080808fefe0830f813
:1023c8002ca7e424f4bc24e00282ff7f01888b4a16
:1023d80029381e384b4a8b08109090909090909016
:1023e80010fe2020261c1010404020203f201010f6
:1023f80010031f70c080f020380a6a6a6a7e7e6afd
:102408006a6a6a0a380000003f151515153fe595f8
:102418009595956fe020000092c40800fc04e4a4a0
:10242800a4bca4a4e4e40400f01ec078bf40339a1e
:1024380082fe02021b630000fe2a2a2a2a3e0000ae
:102448003e2a2a2a2afe0000ff0044251f0505050a
:102458007f058584807f00008084547464d40c00d8
:10246800c24c5864e6508800008c8e8a8a7b80971c
:10247800556464745f8600001010f0fe9010fcfc38
:1024880044c444444444c600040701ff00613f8338
:1024980040432c303c4780003031323334353637b6
:1024a80038394142434445460000000043414e202c
:1024b800425553204d4f4e49544f52002d2d2d2d2e
:1024c8002d2d2d2d2d2d2d2d2d2d2d2d2d2d2d2d34
:1024d8000000000052504d3a000000005350443aaa
:1024e800000000006b6d2f68000000005448523a4d
:1024f80000000000250000004252414b45205b458a
:102508004e47414745445d20202000004252414b40
:1025180045205b52656c65617365645d2020000031
:1025280043414e3a00000000443a0000496e697485
:102538002e2e2e004f4c45445f496e69742e2e2e68
:1025480000000000434c532e2e2e000053706c6187
:1025580073682e2e2e0000004d4943524f434849c0
:102568005000000043414e2044454d4f00000000fc
:102578005049433332434d3332303447560000001c
:102588000a000000307800001b5b324a1b5b4800e1
:10259800000000003d3d3d3d3d3d3d3d3d3d3d3d57
:1025a8003d3d3d3d3d3d3d3d3d3d3d3d3d3d3d3d53
:1025b8003d3d3d3d3d3d3d3d3d3d3d3d3d3d3d3d43
:1025c8003d3d3d3d3d3d3d3d3d3d3d3d3d3d3d3d33
:1025d8000000000020202020202020202020204350
:1025e800414e204255532050524f544f434f4c2098
:1025f8002d20454455434154494f4e414c205349a1
:102608004d554c4154494f4e00000000434f4e5425
:10261800524f4c533a00000020205b5357315d2045
:10262800486f6c64203d20414343454c455241541a
:1026380045202020205b5357325d20486f6c642072
:102648003d204252414b450020205b504f545d20b5
:102658005475726e203d20536574207468726f74cf
:10266800746c65206c6576656c2028302d313030af
:10267800252900002d2d2d2d2d2d2d2d2d2d2d2de8
:102688002d2d2d2d2d2d2d2d2d2d2d2d2d2d2d2d72
:102698002d2d2d2d2d2d2d2d2d2d2d2d2d2d2d2d62
:1026a8002d2d2d2d2d2d2d2d2d2d2d2d2d2d2d2d52
:1026b8000000000056454849434c452053544154b6
:1026c80055533a002020456e67696e652052504d7b
:1026d8003a20202020200000202053706565643aad
:1026e800202020202020202020200000206b6d2f7b
:1026f8006800000020205468726f74746c653a207a
:1027080020202020202000002025000020204272c8
:10271800616b653a20202020202020202020000006
:10272800454e47414745440052656c656173656491
:102738000000000020204d6f64653a2020202020f2
:1027480020202020202000004d414e55414c2028bb
:102758007573657220636f6e74726f6c2900000068
:102768004155544f2053494d554c4154494f4e0003
:1027780020205357313a20005052455353454420a6
:10278800200000002d2d2d202020202020000000da
:1027980020205357323a20005052455353454400a5
:1027a8002d2d2d0043414e204652414d4520545277
:1027b800414e534d49545445443a000020204d653c
:1027c80073736167653a20202020202020200000b4
:1027d800202043414e2049443a2020202020202018
:1027e80020200000202044617461204c656e6774cd
:1027f800683a202020200000206279746573000068
:102808002020446174612042797465733a20202045
:10281800202000002000000020204352432d3135a5
:102828003a20202020202020202000003d3d3d3d52
:102838003d3d3d3d3d3d3d3d3d3d3d3d3d3d3d3dc0
:102848003d3d3d3d3d3d3d3d3d3d3d3d3d3d3d3db0
:102858003d3d3d3d0000000020202020202020207c
:1028680053595354454d20494e495449414c495aae
:102878004154494f4e00000054657374696e6720d7
:1028880068617264776172652e2e2e0020204c4597
:1028980044312d343a2020004f4b0000202052476d
:1028a8004231204c454420746573743a000000009e
:1028b80020202020522d3e472d3e42204f4b000025
:1028c800202042757a7a65723a20200020204144ff
:1028d800433a20202020200025204f4b00000000f4
:1028e80020204f4c45443a20202020005374617228
:1028f80074696e672043414e2073696d756c61740d
:10290800696f6e2e2e2e0000454e47494e455f5288
:10291800504d00002020466f726d756c613a202082
:1029280020202020202052504d203d202844617432
:10293800615b305d203c3c203829207c2044617458
:10294800615b315d0a000000202043616c63756c97
:102958006174696f6e3a2020202052504d203d202e
:102968002800000020782032353629202b2000004e
:10297800203d200056454849434c455f5350454546
:10298800440000002020466f726d756c613a20206b
:102998002020202020205370656564203d2044615c
:1029a80074615b305d0a0000202043616c63756cc4
:1029b8006174696f6e3a2020202053706565642029
:1029c8003d2000005448524f54544c455f425241f8
:1029d8004b4500002020466f726d756c613a2020cf
:1029e8002020202020205468726f74746c65203d6c
:1029f80020446174615b305d2c204272616b6520fc
:102a08003d20446174615b315d000000202043611a
:102a18006c63756c6174696f6e3a2020202054686d
:102a2800726f74746c65203d20000000252c2042d4
:102a380072616b65203d20004f4e2028312900002f
:082a48004f464620283029000a
:020000040000fa
:102a500080b500af264b01221a60c046244b1b8a6a
:102a60009bb21a0080231b021a4080231b029a4249
:102a7000f4d01f4b802252005a60c0461c4b1b8a68
:102a80009bb21a0080231b021a4080231b029a4229
:102a9000f4d0174b22225a81154b164a1a60c046b1
:102aa000134b1b8a9bb21a0080231b021a408023ff
:102ab0001b029a42f4d00e4b10221a82c0460c4bd5
:102ac0001b8a9bb21a0080231b021a4080231b0220
:102ad0009a42f4d0084b212200219954064b20221f
:102ae00000219954024b03225a73c046bd4680bd53
:102af00000100042160020008804002090b589b024
:102b000000aff860b9607a600023fb61f86802f0fa
:102b10002bff031cbb61b86802f026ff031c7b611e
:102b200000233b61bb685b00fa689a4201d2002334
:102b300036e0bb681c4a93422cd87969b86902f028
:102b400065fb031c1c1c1949b86902f064fa031cdc
:102b50001749181c02f0dcf8031c191c201c02f099
:102b6000b9ff031c3b61386902f0dbfe0300fb6127
:102b7000fa69ff235b009a4202d9ff23fb610be055
:102b8000fb69012b02d80123fb6105e0fb695b08af
:102b9000fb6101e0002303e07b68fa691a6001230e
:102ba0001800bd4609b090bd801a060095bfd63307
:102bb0000000204180b584b000af786039607b6848
:102bc000002b01d100234fe07b681b68fb603b6852
:102bd000002b01d1264b3b600823fa18f9683b68ab
:102be0001800fff78bff03001a0001235340dbb2ec
:102bf000002b01d0002337e01e4b1a681d4b022129
:102c00008a431a60c0461b4b1b8a9bb21a00802362
:102c10001b021a4080231b029a42f4d0ba68154b5b
:102c200092b25a81134b1a68124b02210a431a605e
:102c3000c046104b1b8a9bb21a0080231b021a400d
:102c400080231b029a42f4d00a4b10221a82c046fb
:102c5000084b1b8a9bb21a0080231b021a40802358
:102c60001b029a42f4d001231800bd4604b080bd77
:102c700000127a000010004280b582b000af786088
:102c80003960054b7a685a62034b3a689a62c046cb
:102c9000bd4602b080bdc0468804002080b582b029
:102ca00000af0200bb1d1a807b1d0a1c1a707b1d21
:102cb0001b78002b04d0154b20220321995403e0ec
:102cc000124b202204219954bb1d1b88dbb2db1858
:102cd000dab27b1d1b78002b01d0012300e000231a
:102ce0000b491343dbb20b75c046094b1b8a9bb2e1
:102cf0001a0080231b021a4080231b029a42f4d040
:102d0000c046c046bd4602b080bdc0468804002013
:102d10000010004280b582b000af0200bb1d1a80d7
:102d20007b1d0a1c1a70134b00229a61114b002262
:102d3000da61114b03229a730f4b5a680e4b0f49fd
:102d40000a405a60c0460c4b1b8a9bb21a00802373
:102d50001b021a4080231b029a42f4d07b1d1a7872
:102d6000bb1d1b8811001800fff798ffc046bd4629
:102d700002b080bd8804002000100042fffffbff6e
:102d8000b0b584b000afb9607a603b600e23fb1829
:102d9000021c1a801b4b20229b5c5bb2002b01d0d3
:102da00000232be0174b0e203a1812889a80154bff
:102db0003a68da60134b3a6a5a61124bba689a6001
:102dc000104b7a681a610f4b1c2408256219d2191e
:102dd00012789a700b4b20225219d21912781a705d
:102de000084b2122002199546319db191a783b18ea
:102df0001b8811001800fff78dff01231800bd4646
:102e000004b0b0bd8804002080b588b004afb960bc
:102e10007a600e217b18021c1a80ba687b18188809
:102e200000230293012301937b6800931300002287
:102e30000021fff7a5ff03001800bd4604b080bdc8
:102e400090b589b004afb9607a600e243b19021cba
:102e50001a807a68b9683b19188800230293002306
:102e60000193002300930023fff78aff030018005b
:102e7000bd4605b090bdb0b588b004afb9607a600a
:102e80003b600e257b19021c1a803c687a68b96881
:102e90007b19188800230293002301933b6a009357
:102ea0002300fff76dff03001800bd4604b0b0bd5e
:102eb00080b586b000afba607b600e23fb18021ca1
:102ec0001a800c23fb180a1c1a80bb683b6117236d
:102ed000fb1800221a70444b20229b5c5bb2002b33
:102ee00001d000237ce0bb68002b02d07b68002b64
:102ef00001d1002374e07b6800221a703b4b03224f
:102f00009a733a4b03221a731423fb180e22ba1831
:102f100012881a8053e0c046344b1b8a9bb21a00b9
:102f200030231340102bf7d11423fb181b88dbb27e
:102f30002e4adb18dbb21375c0462c4b1b8a9bb2a2
:102f40001a0080231b021a4080231b029a42f4d0ed
:102f5000c046264b9b7bdbb21a0001231340f8d0fe
:102f6000224b1b8a9bb21a00072313400ed1172154
:102f70007b181b783a69d3181422ba181288d2b277
:102f80001a707b187a18127801321a70174b5a6827
:102f9000164bc02189020a435a60c046134b1b8a54
:102fa0009bb21a0080231b021a4080231b029a4204
:102fb000f4d014217b181a887b1801321a8014234c
:102fc000fa180c23fb1812881b889a42a3d97b6835
:102fd0001722ba1812781a70044b03225a7301236d
:102fe0001800bd4606b080bd8804002000100042d5
:102ff00080b582b000affb1d01221a700b4b20225e
:103000009b5c5bb2002b0ad1094b1b8a9bb21a0056
:1030100030231340102b02d1fb1d00221a70fb1d20
:103020001b781800bd4602b080bdc0468804002051
:103030000010004280b500af034b21229b5cdbb245
:103040001800bd4680bdc0468804002080b500af92
:103050001f4b2122002199541d4b202200219954fd
:103060001c4b1a681b4b02218a431a60c046194b3d
:103070001b8a9bb21a0080231b021a4080231b026a
:103080009a42f4d0134b1a68124b02210a431a6079
:10309000c046104b1b8a9bb21a0080231b021a40a9
:1030a00080231b029a42f4d00a4b10221a82c04697
:1030b000084b1b8a9bb21a0080231b021a408023f4
:1030c0001b029a42f4d0c046c046bd4680bdc046f1
:1030d000880400200010004280b584b000afa74be8
:1030e0005b7bdbb2002b00d143e1a54b9b6afb600d
:1030f000a24b1b8a9bb21a0002231340022b08d159
:103100009f4b2022ff2199549d4b2122022199544b
:10311000e1e09a4b1b8a9bb21a0001231340012b5a
:1031200008d1974b2022ff219954954b212202214f
:103130009954d0e0914b1b8a9bb21a000423134090
:10314000042b08d18e4b2022ff2199548c4b212235
:1031500001219954bfe08a4b20229b5c5bb2042b77
:1031600020d000ddb4e0032b00d176e000ddafe03d
:10317000002b00d1aee0022b00d0a9e0804b1b69f0
:10318000002b07d07e4b9b889bb200211800fff7d5
:10319000c1fda0e07a4b9b889bb201211800fff78c
:1031a000b9fd98e0764b9b69bb60754b1b69ba68ab
:1031b0009a4238d1724b5b69002b1cd0704b9b88b4
:1031c0009bb25bb2db185bb2012213435ab26b4b6a
:1031d000d2b21a75c046694b1b8a9bb21a00802373
:1031e0001b021a4080231b029a42f4d0644b202217
:1031f000032199546fe0614b5a68604bc0218902ea
:103200000a435a60c0465d4b1b8a9bb21a0080235a
:103210001b021a4080231b029a42f4d0584b2022f2
:103220000621995457e0564b9a68bb68d318534a05
:103230001b781376bb680133bb60c0464f4b1b8abb
:103240009bb21a0080231b021a4080231b029a4261
:10325000f4d04b4bba689a613de0494bdb697b6027
:10326000474b5b69013b7a689a4216d1434b5a68d7
:10327000424be021c9020a435a60c0463f4b1b8ab9
:103280009bb21a0080231b021a4080231b029a4221
:10329000f4d03b4b202206219954c046374b1b8a61
:1032a0009bb21a0080231b021a4080231b029a4201
:1032b000f4d03249324bda687b68d3180a7ed2b236
:1032c0001a707b6801337b602d4b7a68da6102e00b
:1032d000c04600e0c0462a4b20229b5c5bb2013313
:1032e00023d1274b202200219954244b5a68234b89
:1032f000c02189020a435a60c046204b1b8a9bb2f8
:103300001a0080231b021a4080231b029a42f4d029
:103310001a4b03229a731a4b5b6a002b29d0184b65
:103320005b6afa681000984723e0154b20229b5ceb
:103330005bb2062b1dd1124b202200219954104b59
:103340002122002199540d4b03229a73c0460b4b46
:103350001b8a9bb21a0030231340102bf7d1084b65
:103360005b6a002b05d0064b5b6afa681000984731
:10337000c046c046bd4604b080bdc04600100042f5
:04338000880400209d
:020000040000fa
:1033840080b500af184b00221a62174b00221a773f
:10339400154b00229a60144b0022da60134b8022f2
:1033a40092025a60c046114b1b8a9bb21a008023ba
:1033b4001b021a4080231b029a42f4d00b4b0722b3
:1033c4009a720a4b0a4a1a60c046084b1b8a9bb27f
:1033d4001a0080231b021a4080231b029a42f4d055
:1033e400c046c046bd4680bd58040020000c0042c3
:1033f4000e00300080b584b000af786039600023df
:10340400fb600b23fb1800221a703b68002b01d1d0
:103414003d4b3b603d4b1a683c4b02218a431a608a
:103424003b4b0022da603a4b00229a60c046374b8d
:103434001b8a9bb21a0080231b021a4080231b02a2
:103444009a42f4d07b68002b45d07b681a683b68ad
:103454005b089a423fd87b681b685b001900386898
:1034640001f01cff0300013bfb60fb68fe2b01d94c
:10347400ff23fb60254b1a68244b26490a401a6037
:10348400224b19687b689a687b685b681a431f4bf8
:103494000a431a601d4bfa68d2b29a721b4b5a68df
:1034a4001a4b07218a435a60184b59687b68da68bb
:1034b400164b0a435a60c046144b1b8a9bb21a002f
:1034c40080231b021a4080231b029a42f4d00b2350
:1034d400fb1801221a700d4b1a680c4b02210a4387
:1034e4001a60c046094b1b8a9bb21a0080231b0238
:1034f4001a4080231b029a42f4d00b23fb181b783a
:103504001800bd4604b080bd00127a00000c0042d1
:1035140058040020ffffffcf80b582b000af786071
:103524003960054b7a681a62034b3a685a62c0469e
:10353400bd4602b080bdc0465804002080b584b0aa
:1035440000af0f217b1800221a70174b9b68bb60d9
:10355400fb1d154a127f1a70134bdb68002b06d132
:10356400bb68002b03d17b1800221a7014e00f4ba8
:103574009b7bdbb21a000223134003d0fb1d1b7894
:10358400002b01d0012200e000220f23fb181a7047
:103594001a7801210a401a700f23fb181b781800af
:1035a400bd4604b080bdc04658040020000c004253
:1035b40080b500af054b9b7bdbb21a00022313409e
:1035c4005a425341dbb21800bd4680bd000c004294
:1035d40080b588b000aff860b9607a603b601f23a3
:1035e400fb1800221a700023bb61704b1b7fdbb2f7
:1035f40001225340dbb2002b00d1cfe0bb68002b8b
:1036040002d0fb68002b07d13b68002b00d1c5e03a
:103614007b68002b00d1c1e0654b5b680722134037
:10362400012b11d1bb68002b03d0bb6801221340ce
:1036340006d13b68002b07d03b680122134003d01e
:103644001f23fb181b78ace01f23fb1801221a7000
:10365400564bfa681a60554b7a685a60534b0022ed
:103664005a61524b00229a61504b00221a61fb6846
:10367400002b03d04d4bba689a6002e04b4b0022fa
:103684009a607b68002b03d0484b3a68da6002e00a
:10369400464b0022da60454b01221a7703e0444b83
:1036a4001b8b9bb2bb61424b9b7bdbb21a00042396
:1036b4001340042bf3d03e4b1b8a9bb23c4a04219b
:1036c4000b439bb21382394b9b687b61374bdb689e
:1036d4007a699a4205d2354bda687b69d21a334b40
:1036e4001a61334b5b68072213401cd12f4b9b6933
:1036f4007a699a420ad92d4b1b681a782c4b1a8383
:103704002a4b9b695a1c294b9a613de0274b1b6944
:10371400002b39d0264bff221a83244b1b695a1ed7
:10372400224b1a6130e0214b9b685a081f4b9a6068
:103734001e4b1b695a081d4b1a611c4bdb685a0847
:103744001a4bda60194b9b687b61184b9b697a6949
:103754009a420dd9154b1b681b88154adb05db0df6
:103764009bb21383114b9b695a1c104b9a610be05b
:103774000e4b1b69002b07d00d4b0e4a1a830b4bc3
:103784001b695a1e094b1a613b68002b03d0084b76
:1037940004225a7302e0064b01225a731f23fb18ba
:1037a4001b781800bd4608b080bdc04658040020f0
:1037b400000c0042ff01000080b582b000af7860c9
:1037c40039603968786800230022fff701ff03009d
:1037d4001800bd4602b080bd80b582b000af7860ed
:1037e40039603b687a6800210020fff7f1fe03008e
:1037f4001800bd4602b080bd80b586b000af00237e
:10380400fb600023bb606a4b5b6a7b60694b5b7b3c
:10381400dbb2002b00d1c7e0664b5b680722134084
:10382400fb60634b5b697b61614b9b693b61604bf4
:103834009b683b605f4b9b7bdbb21a000423134005
:10384400042b21d15b4b1b8b9bb2bb60584bdb68b9
:103854007a699a4218d2fb68002b0ad1544b5a68f1
:103864007b69d318ba68d2b21a707b6901337b6161
:103874000ae04f4b5a687b695b00d318ba6892b26e
:103884001a807b6901337b614a4b9b7bdbb21a0054
:1038940001231340012b57d1464b01221a73fb68b5
:1038a400002b1cd1424b9b683a699a420ad2404b86
:1038b4001a683b69d3181a783e4b1a833b69013363
:1038c4003b612ae03a4b1b69002b26d0394bff227f
:1038d4001a83374b1b695a1e354b1a611de0344b52
:1038e4009b683a699a420bd2314b1a683b695b0078
:1038f400d318304a1b8813833b6901333b610ce0c6
:103904002b4b1b69002b08d02a4b012252421a83ed
:10391400274b1b695a1e264b1a61254b1b69002b2a
:1039240007d13a693b689a4203d1234b01221a70aa
:103934000ae01f4bdb687a699a4205d11d4b0122cc
:103944005a731c4b04221a73194b7a695a61184b27
:103954003a699a61174b9b7bdbb21a00022313402e
:10396400022b1ad1144b1b78002b16d0104bdb689a
:103974007a699a4211d10e4b00221a770d4b072215
:103984001a730d4b00221a70094b1b6a002b04d0ca
:10399400074b1b6a7a6810009847074b1b78002b6b
:1039a40002d0044b02225a73c046bd4606b080bd05
:0c39b40058040020000c00428404002095
:020000040000fa
:1039c00080b582b000affb1d00221a700f4b1b8a1e
:1039d0009ab23b1d07210a401a803b1d1b88002b11
:1039e00010d00a4b07221a8204e0084b1b8b9ab2b4
:1039f000fb1d1a70054b9b7bdbb21a00042313409e
:103a0000042bf2d0c046bd4602b080bd0008004283
:103a100080b500af154b164a1a60144b154a5a81ef
:103a2000124bc02292025a60c046104b1b8a9bb2b6
:103a30001a0080231b021a4080231b029a42f4d0f2
:103a40000a4b1a68094b02210a431a60c046074b09
:103a50001b8a9bb21a0080231b021a4080231b0280
:103a60009a42f4d0c046c046bd4680bd0008004220
:103a70000401104004c5ffff80b500af014b1800e2
:103a8000bd4680bd00127a00b0b588b000af786145
:103a900039610f2310229b18db1900221a700023b2
:103aa000bb617b69002b00d19ae07b691b68002b0e
:103ab00000d195e03b69002b03d1fff7ddff030048
:103ac0003b617b691b681b013a699a421dd37b6984
:103ad0001b68bb600023fb60b968fa680b001b0b16
:103ae000100005051d430b001c053b693b600023ce
:103af0007b603a687b682000290001f061fe0200cb
:103b00000b0080235b029b1abb613a4b1a68394b4e
:103b100002218a431a60c046364b1b8a9bb21a00a8
:103b200080231b021a4080231b029a42f4d0314b9f
:103b3000ba6992b25a817b695b68022b13d12d4b13
:103b40001a682c4b2c490a401a602a4b5b684722a2
:103b5000934319007b699a687b69db681a43254b9c
:103b60000a435a6018e0234b1b68234a1a40214b32
:103b7000802149040a431a601e4b5b681f4a1a40a1
:103b80007b699b681a437b69db681a4311007b6978
:103b90005a68184b0a435a60c046164b1b8a9bb2a0
:103ba0001a0080231b021a4080231b029a42f4d081
:103bb000104b1a680f4b02210a431a60c0460d4b86
:103bc0001b8a9bb21a0080231b021a4080231b020f
:103bd0009a42f4d00f2310229b18db1901221a708d
:103be0000f2310229b18db191b781800bd4608b064
:103bf000b0bdc04600080042fffffff0b8dfffff86
:103c000080b582b000af094b1b8a9ab2bb1d072159
:103c10000a401a80bb1d1b88002b01d0fff7d0fe85
:103c2000bb1d1b881800bd4602b080bd00080042c5
:103c300080b500af0c4b1b680222134011d10a4b18
:103c40001a68094b02210a431a60c046064b1b8ab8
:103c50009bb21a0080231b021a4080231b029a4247
:103c6000f4d0c046bd4680bd0008004280b500af1c
:103c70000c4b1b680222134011d00a4b1a68094be7
:103c800002218a431a60c046064b1b8a9bb21a0067
:103c900080231b021a4080231b029a42f4d0c046a4
:103ca000bd4680bd0008004280b500af0b4b5a688e
:103cb0000a4b802149020a435a60c046074b1b8abf
:103cc0009bb21a0080231b021a4080231b029a42d7
:103cd000f4d0c046c046bd4680bdc0460008004284
:103ce00080b500af0a4b5a68094b0a490a405a602e
:103cf000c046074b1b8a9bb21a0080231b021a4046
:103d000080231b029a42f4d0c046c046bd4680bd07
:103d100000080042fffffeff80b586b000af78606c
:103d200039601723fb1800221a707b68fb607b68e0
:103d3000bb6000233b617b68002b27d01ee0c046a0
:103d4000164b9b7bdbb21a0001231340f8d0134bb8
:103d50005b6807221340012b06d0fa683b69d31831
:103d60001a780e4b1a8306e03b695b00ba68d318d9
:103d70000a4a1b8813833b6901333b613a693b68fc
:103d80009a42dcd31723fb1801221a701723fb1861
:103d90001b781800bd4606b080bdc0460008004232
:103da00080b582b000affb1d00221a70084b9b7bd0
:103db000dbb21a0001231340012b02d1fb1d0122ab
:103dc0001a70fb1d1b781800bd4602b080bdc046ae
:103dd0000008004280b582b000af7860c046074b53
:103de0009b7bdbb21a0001231340f8d0034b7a68a7
:103df00092b21a83c046bd4602b080bd00080042a0
:103e000080b582b000affb1d00221a70084b9b7b6f
:103e1000dbb21a0002231340022b02d1fb1d012248
:103e20001a70fb1d1b781800bd4602b080bdc0464d
:103e30000008004280b500af0b4b5a680a4b802146
:103e400089020a435a60c046074b1b8a9bb21a007c
:103e500080231b021a4080231b029a42f4d0c046e2
:103e6000c046bd4680bdc0460008004280b500afd8
:103e70000a4b5a68094b0a490a405a60c046074b28
:103e80001b8a9bb21a0080231b021a4080231b024c
:103e90009a42f4d0c046c046bd4680bd00080042ec
:103ea000fffffdff80b588b000af786039601f2349
:103eb000fb1800221a707b687b617b683b610023e2
:103ec000bb610e23fb1800221a807b68002b3ed0ba
:103ed000fff776fd2de0c046204b9b7bdbb21a003e
:103ee00004231340f8d01d4b1b8a9ab20e203b18b6
:103ef00007210a401a803b181b88002b1ed1174b44
:103f00005b6807221340012b08d0144b1b8b99b21e
:103f10007a69bb69d318cab21a7007e00f49bb6946
:103f20005b003a69d3180a8b92b21a80bb690133dd
:103f3000bb61ba693b689a42cdd300e0c0463a689b
:103f4000bb699a4203d11f23fb1801221a701f2359
:103f5000fb181b781800bd4608b080bd0008004261
:103f600080b582b000affb1d00221a70084b9b7b0e
:103f7000dbb21a0004231340042b02d1fb1d0122e3
:103f80001a70fb1d1b781800bd4602b080bdc046ec
:103f90000008004280b500af024b1b8b9bb218009b
:083fa000bd4680bd000800428f
:020000040000fa
:103fa80080b500af454b464a1a60444b9622d20270
:103fb8001a61424a40230021d154404a412300213a
:103fc800d1543e4a43230121d1543c4a4423002181
:103fd800d1543a4a45230021d154384a4823012173
:103fe800d154364a49230121d154344a4a23002165
:103ff800d154324a4b230021d154304a4c23072153
:10400800d1542e4a4d230721d1542c4a4e23002146
:10401800d1542a4a4f230621d154284a502301213a
:10402800d154264a51230121d154244a5223002134
:10403800d154224a53230121d154204a302300214c
:10404800d1541e4a31231021d1541c4a3223002155
:10405800d1541a4a34232221d154184a3523002135
:10406800d154164a36232221d154144a3723002129
:10407800d154124a38232221d154104a39232021fd
:10408800d1540e49802280239b008b500b499022eb
:104098008023db008b50094ac9230021d154074ae9
:1040a800ca230621d154054ab4230021d154034a16
:1040b800b5230021d154c046bd4680bd004400410f
:1040c800334c040080b582b000af78607b681b6a0f
:1040d8001800bd4602b080bd80b584b000aff8605e
:1040e800b9607a60fb681b69ba68d2431a4011004c
:1040f800bb687a681a40fb680a431a61c046bd4625
:1041080004b080bd80b582b000af78607b681b6961
:104118001800bd4602b080bd80b582b000af78609f
:1041280039607b683a689a61c046bd4602b080bd76
:1041380080b582b000af786039607b683a685a61b0
:10414800c046bd4602b080bd80b582b000af786081
:1041580039607b683a68da61c046bd4602b080bd06
:1041680080b584b000af786039607b683a685a607f
:104178000023fb601ae03a68fb68da40130001226a
:10418800134010d07a684021fb68d3185b181b785d
:10419800dbb27a6802210b43d8b24021fb68d318fe
:1041a8005b18021c1a70fb680133fb60fb681f2b4d
:1041b800e1d9c046c046bd4604b080bd80b582b0d6
:1041c80000af786039607b683a689a60c046bd463f
:1041d80002b080bd80b586b000af0200bb1d1a805a
:1041e8007b1d0a1c1a707b1d1b783b61bb1d1b883d
:1041f8005b099bb2224a94466344db01fb60bb1d0a
:104208001b881f221340bb60fa68bb685b0830211b
:10421800d3185b181b78dbb27b61bb6801221340a3
:1042280008d07b69f02293431a003b691b011343b2
:104238007b6105e07b690f2293433a6913437b61f5
:10424800fa68bb685b087969c8b23021d3185b1873
:10425800021c1a70fa684021bb68d3185b181b78d7
:10426800dbb2fa6801210b43d8b24021bb68d318ee
:104278005b18021c1a70c046bd4606b080bdc04619
:104288008800820080b584b000af0200bb1d1a8090
:10429800bb1d1b885b099bb20f4a94466344db0134
:1042a800fb60bb1d1b881f221340bb60fa684021be
:1042b800bb68d3185b181b78dbb2fa6801218b4303
:1042c800d8b24021bb68d3185b18021c1a70c046cc
:0c42d800bd4604b080bdc04688008200d6
:020000040000fa
:1042e40080b500af024b80225a60c046bd4680bdf7
:1042f4000040004180b500af024b034a1a80c0461b
:10430400bd4680bd0040004146a5ffff80b586b094
:1043140000aff860b9607a607b687b61ba687969dc
:10432400fb68180001f09efb01231800bd4606b08f
:1043340080bd80b584b000af786039603b68bb60f5
:104344000023fb600ce0fb689b007a68d3181a68b2
:10435400bb681a60bb680433bb60fb680133fb6055
:10436400fb680f2befd901231800bd4604b080bdb4
:1043740080b584b000af78600e217b1804221a80c7
:10438400074b7a685208da61054a7b181b8805498d
:104394000b439bb2138001231800bd4604b080bdbb
:1043a4000040004100a5ffff80b584b000af7860f5
:1043b40039603b68bb600023fb600ce0fb689b003a
:1043c4007a68d3181a68bb681a60bb680433bb6088
:1043d400fb680133fb60fb680f2befd9054b3a6890
:1043e4005208da61034b044a1a8001231800bd46bf
:1043f40004b080bd0040004104a5ffff80b582b039
:1044040000af7860054b7a685208da61034b044abe
:104414001a8001231800bd4602b080bd004000414f
:1044240002a5ffff80b586b000af786039603b68b5
:104434003b610f23fb1800221a703b68154a934214
:1044440021d93b68144a93421dd800237b610ce0b8
:104454007b699b007a68d3181a683b691a603b69c8
:1044640004333b617b6901337b617b690f2befd99b
:104474000a4b3a685208da61084b094a1a800f233a
:10448400fb1801221a700f23fb181b781800bd4675
:1044940006b080bdff3f8000c04080000040004166
:1044a40006a5ffff80b584b000af78600f217b18ac
:1044b40000221a707b680c4a93420dd97b680b4a20
:1044c400934209d80a4b7a685208da61084b094ac0
:1044d4001a807b1801221a700f23fb181b7818000e
:1044e400bd4604b080bdc046ff3f8000004180004f
:1044f4000040004105a5ffff80b582b000af0c4b22
:104504001b8b9ab2bb1d1c210a401a80084b1b8bc3
:104514009ab20749bb1d1b8813439bb20b83044b00
:1045240002221a75bb1d1b881800bd4602b080bd4f
:104534000040004180b500af064b1b7ddbb21a0082
:1045440001231340013b5a1e9341dbb21800bd46c0
:1045540080bdc0460040004180b582b000af7860a5
:10456400054b7a685208da61034b044a1a80c04644
:10457400bd4602b080bdc0460040004140a5ffffdb
:1045840080b582b000af7860054b7a685208da6172
:10459400034b044a1a80c046bd4602b080bdc046e3
:1045a4000040004141a5ffff80b500af024b034a24
:1045b4001a80c046bd4680bd0040004145a5ffffae
:020000040000fa
:1045c40080b582b000af2c4b01221a70c0462a4b32
:1045d4005b7edbb25bb2002bf9db284b1b68db0e86
:1045e4007b60274b1b68072213403b607b689ab2b1
:1045f4003b689bb25b019bb213439bb21bb2ff228d
:1046040013401ab21e4b1b68db081bb21b0219b203
:10461400e023db000b401bb213431ab2164b92b2d9
:104624001a85154b0322da70134b02225a70124b6f
:10463400c02252011a61c0460f4b5b7edbb25bb2f3
:10464400002bf9db0c4b0f4a9a80c0460a4b5b7e69
:10465400dbb25bb2002bf9db074b0f221a76c046a4
:10466400054b5b7edbb25bb2002bf9dbc046c04678
:10467400bd4602b080bdc0460040004220608000bc
:10468400246080000404000080b500af094b1b784f
:10469400dbb2084a02210b43dbb21370c046054b60
:1046a4005b7edbb25bb2002bf9dbc046c046bd4685
:1046b40080bdc0460040004280b500af094b1b7866
:1046c400dbb2084a02218b43dbb21370c046054bb0
:1046d4005b7edbb25bb2002bf9dbc046c046bd4655
:1046e40080bdc0460040004280b584b000af0200e7
:1046f400fb1d1a703b1d0a1c1a800f4b1b69fb60c3
:10470400fb680e4a1340fb60fb1d1a783b1d1b8897
:104714001343fa681343fb60074bfa681a61c046f7
:10472400054b5b7edbb25bb2002bf9dbc046c046b7
:10473400bd4604b080bdc04600400042e0e0ffff3b
:1047440080b500af094b1b7bdbb2084a02210b4347
:10475400dbb21373c046054b5b7edbb25bb2002b4e
:10476400f9dbc046c046bd4680bdc046004000429d
:1047740080b582b000af0200bb1d1a803b1d0a1c2d
:104784001a800d4abb1d1b889383c0460a4b5b7e6f
:10479400dbb25bb2002bf9db074a3b1d1b88138499
:1047a400c046054b5b7edbb25bb2002bf9dbc04637
:1047b400c046bd4602b080bd0040004280b582b014
:1047c40000af0200fb1d1a70074afb1d1b78137211
:1047d400c046054b5b7edbb25bb2002bf9dbc04607
:1047e400c046bd4602b080bd0040004280b500af67
:1047f400024b5b8b9bb21800bd4680bd004000425b
:1048040080b582b000af0200fb1d1a70034afb1d85
:104814001b781376c046bd4602b080bd00400042fe
:1048240080b582b000af0200fb1d1a70034afb1d65
:104834001b78d375c046bd4602b080bd004000421f
:1048440080b582b000af0200fb1d1a70034afb1d45
:104854001b789375c046bd4602b080bd004000423f
:1048640080b582b000af0b4b1b7edbb21a00012374
:104874001a40fb1d511e8a411a70fb1d1b78002b28
:1048840002d0044b01221a76fb1d1b781800bd468a
:0848940002b080bd00400042ab
:020000040000fa
:10489c0080b582b000af0200fb1d1a70fb1d1b78a7
:1048ac007f2b09d8fb1d1b781a001f231a40044bc1
:1048bc00012191400a001a60c046bd4602b080bd7d
:1048cc0000e100e080b582b000af0200fb1d1a7061
:1048dc00fb1d1b787f2b0bd8084b1a68fb1d1b7814
:1048ec0019001f230b40da4013000122134000e093
:1048fc0000231800bd4602b080bdc04600e100e0b8
:10490c0080b582b000af0200fb1d1a70fb1d1b7836
:10491c007f2b10d8fb1d1b781a001f23134008494e
:10492c0001229a40130080228b50bff34f8fc04658
:10493c00bff36f8fc046c046bd4602b080bdc046b7
:10494c0000e100e090b583b000af02003960fb1dc0
:10495c001a70fb1d1b787f2b28d82f4afb1d1b7848
:10496c005bb29b08c0339b009b58fa1d1278110058
:10497c0003220a40d200ff2191400a00d2431a4080
:10498c0011003b689b01ff221a40fb1d1b7818008d
:10499c0003230340db009a401f48fb1d1b785bb2ce
:1049ac009b080a43c0339b001a5031e01b4afb1d85
:1049bc001b7819000f230b40083b9b0806339b0008
:1049cc00d31804331b68fa1d1278110003220a4015
:1049dc00d200ff2191400a00d2431a4011003b68db
:1049ec009b01ff221a40fb1d1b7818000323034078
:1049fc00db009a400948fb1d1b781c000f23234049
:104a0c00083b9b080a4306339b00c31804331a6007
:104a1c00c046bd4603b090bd00e100e000ed00e0f3
:104a2c0080b500afbff35f8fc04662b6c0460321ae
:104a3c000820fff787ff0820fff72aff0321092032
:104a4c00fff780ff0920fff723ffc046bd4680bd5e
:104a5c0080b500afbff35f8fc04662b6c046c0469c
:104a6c00bd4680bd80b582b000afeff310833b60d4
:104a7c003a68fb1d51424a411a7072b6c046bff3e8
:104a8c005f8fc046fb1d1b781800bd4602b080bd71
:104a9c0080b582b000af0200fb1d1a70fb1d1b78a5
:104aac00002b04d0bff35f8fc04662b604e072b631
:104abc00c046bff35f8fc046c046bd4602b080bd46
:104acc00b0b584b000af0200fb1d1a700f257c1925
:104adc00fff7c8ff03002370fb1d1b785bb21800a7
:104aec00fff7f0fe02000e243b19511e8a411a708a
:104afc00fb1d1b785bb21800fff702ff7b191b78bc
:104b0c001800fff7c5ff3b191b781800bd4604b011
:104b1c00b0bd80b582b000af0200fb1d1a70bb1d8a
:104b2c000a1c1a70bb1d1b78002b06d0fb1d1b78b2
:104b3c005bb21800fff7acfec046c046bd4602b0e3
:044b4c0080bdc04622
:020000040000fa
:104b5000dc0400201c0000000000000058040020bd
:104b60002d0000000000000086040020020000006c
:104b70000100000052030000b404002027000000e0
:104b800000000000880400202c000000000000004d
:104b90000c050020040000000000000008040020b4
:104ba00050000000000000001c0500206c00000008
:104bb0000100000028050020240500202805002011
:104bc0000000000025000000080000200004000094
:104bd00000000000000000000000000000000000d5
:104be00000000000000000000000000000000000c5
:104bf000035b000000000000000000000000000057
:104c00000000000019550000000000000000000036
:104c10000000000000000000000000000000000094
:104c2000000000200804000000000000e80500204b
:104c3000200000000100000001000000030000004f
:104c40000000000000000000000000000000000064
:104c500000000000040500200405002008000000fa
:104c6000000000001005002004000000000000000b
:104c70008805002060000000010000000100000025
:104c80000300000000000000000000000000000021
:104c90000000000000000000d955000000000000e6
:104ca0000000000000000000e55a0000535a000018
:104cb00000000000000000000000000000000000f4
:104cc00000000000000000000000000000000000e4
:104cd00000000000000000000000000008060020a6
:104ce0000400000001000000010000001405002085
:104cf0000800000000000000f80400200c00000084
:104d0000000000000000000000000000666666660b
:020000040000fa
:104d10000122d20703004b403dd430b4431a01d2e4
:104d2000c01ac9184b004400240eff2c29d0002cb7
:104d300024d01b0e20d0e31a182b1ddc09021143ce
:104d4000c40d000210435d4219350a00aa40d20981
:104d5000d940451801d36d080234013ce405280a06
:104d60000121c9072d062a438a4160414100090eed
:104d7000ff2901d3c00dc00530bc7047c00fc0076c
:104d8000fae742001823da41ff2af5d07f2000011c
:104d90000c300005f0e7a4465140431a02d25340bc
:104da000c01ac9184b00090211431b0e4400240eff
:104db000ff2c41d0002b10d05b421b19012b10d3cc
:104dc00022d1c30d4002401a10d3db050100400a76
:104dd000c90591415841644670472442fbd10020e7
:104de000f9e7c30d40024900401af4d00021013117
:104df0004000fcd38c4204d95b1adb05400ac01882
:104e0000e9e7180ac007e6e7192be4d801330c00dc
:104e1000d940dc414c40012c4941c30d00021043f4
:104e2000441a01d4a4006408013bdb05200a2406cf
:104e30009441584164467047ff2b01d04102cad0cb
:0a4e40007f2000010c300005c5e7db
:020000040000fa
:024e4a00fee781
:020000040000fa
:104e4c0080b500af0a4b1b6a0a4a1a40084b022174
:104e5c000a431a62c046064bdb6808221340082b33
:104e6c00f9d1034b00229a61c046bd4680bdc046b5
:104e7c00000800400000ffcf80b500af084b832234
:104e8c0052025a60c046064b5b78dbb21a00802394
:104e9c001340802bf7d0c046c046bd4680bdc046ef
:104eac00000c004080b500af074b084a5a60c04662
:104ebc00054b5b78dbb21a0080231340802bf7d0b4
:104ecc00c046c046bd4680bd000c00400106010036
:104edc0080b500affff7b4fffff7cefffff7e2ff9f
:104eec000b4b0c4a5a800a4b0b4a5a80084b0b4a04
:104efc005a80074b0a4a5a800a4b1f225a61094ba7
:104f0c001f22da61074b084a1a62c046bd4680bdb3
:104f1c00000c00400d4000000e4000000f4000004f
:0c4f2c0017400000000400401c000100c1
:020000040000fa
:104f3800f0b506000f0015001c0085b08b4263d841
:104f480001d1824260d82100280000f067fd3900b5
:104f58000090300000f062fd009b21001b1a1a002f
:104f68002800039300f04efd00900191b94245d806
:104f780001d1b04242d8009b019c01200021039a34
:104f8800f61aa74100f03efd04000d00039b002b1c
:104f98002bd0019b009adb0750081843019b590846
:104fa800039b9c46b9422cd801d1b04229d8320083
:104fb8003b00121a8b41012692185b410027b61854
:104fc8005f4101235b429c446346002bead13000d9
:104fd8003900039a00f00afd039aa4197d410600de
:104fe8000f0000f00ffd241a8d410a9b002b01d001
:104ff8001e605f602000290005b0f0bd0024002578
:0e500800c4e7b6197f41dce700240025ede780
:020000040000fa
:1050160030b405004d400124e407254042004b0012
:10502600120e32d01b0e3cd0ff2a33d0ff2b3fd0be
:10503600d21800022043000a09022143090ac4b219
:105046004c43000ac3b24b43000a4843210a5b188b
:10505600190a091801d44900013a080a7f3a2adbdd
:10506600fe2a0fd2d2051c43240601d00124214377
:10507600c9b280295041802901d140084000284307
:1050860030bc7047ff20c005f9e71b0eff2b0ad086
:105096002800f5e7400206d1ff2bf3d1490202d1e1
:1050a600f0e7ff2af4d17f2000010c300005e7e786
:1050b6004902f8d1e6e743020132e9d15b12023335
:0650c600e6d9d805e4e77d
:020000040000fa
:1050cc00002941d010b404004c40a4460123002216
:1050dc00002900d54942002800d5404288422cd3f3
:1050ec0001242407a14204d2814202d209011b01ee
:1050fc00f8e7e400a14204d2814202d249005b00ed
:10510c00f8e7884201d3401a1a434c08a04202d354
:10511c00001b5c0822438c08a04202d3001b9c0895
:10512c002243cc08a04202d3001bdc0822430028f7
:10513c0003d01b0901d00909e3e710006446002cd9
:10514c0000d5404210bc704701b5002000f0d8fcdf
:10515c0002bdc0460029f7d003b5fff7b3ff0ebc64
:08516c004243891a1847c046ae
:020000040000fa
:10517400b0b586b000aff860b9607a6000237b6197
:105184001323fb1800221a70fb68002b14d17b68d0
:10519400002b11d013257c19bb6801211800fef7e0
:1051a4007ffe030023707b191b7801225340dbb27e
:1051b400002befd101237b617b691800bd4606b04b
:1051c400b0bdb0b586b000aff860b9607a6017239f
:1051d400fb1800221a70fb68012b10d117257c19cb
:1051e4007a68bb6811001800fef794fd0300237071
:1051f4007b191b7801225340dbb2002beed17b6874
:085204001800bd4606b0b0bd64
:020000040000fa
:10520c0030b405004d400124e407254042004b001a
:10521c00120e26d01b0e34d0ff2a2dd0ff2b35d0ea
:10522c00d21a000220430902214343084908a00d69
:10523c005b1a02d2013a5b005b185b008b4200d315
:10524c005b1a4041f9d37f3222ddff2a06d2d20508
:10525c00c91a8b425041284330bc7047ff20c0050f
:10526c00f9e71b0e03d0ff2b12d1490210d07f207f
:10527c0000010c300005efe74002f8d1ff2bedd117
:10528c00f5e7ff2aead14002f1d1e7e74902eed176
:04529c002800e1e71e
:020000040000fa
:1052a000002934d00123002210b488422cd30124d9
:1052b0002407a14204d2814202d209011b01f8e76e
:1052c000e400a14204d2814202d249005b00f8e727
:1052d000884201d3401a1a434c08a04202d3001b53
:1052e0005c0822438c08a04202d3001b9c08224386
:1052f000cc08a04202d3001bdc082243002803d0c4
:105300001b0901d00909e3e7100010bc704701b583
:10531000002000f0fbfb02bd0029f8d003b5fff729
:0c532000c1ff0ebc4243891a1847c0466a
:020000040000fa
:10532c00f0b51600040002278269436987b09b1a06
:10533c0003939b19029204910596019302ad3a00d6
:10534c002900206800f0d4fa019b984208d1a36888
:10535c00e268a3619a18a2626361300007b0f0bde5
:10536c0000280cda102200236168a3620a43a361af
:10537c0063616260022f12d06b68f61aede7019b35
:10538c001b1a01936b68984202d9c01a0835013f69
:10539c002b681b182b606b681b1a6b60cfe71e0009
:0253ac00dbe73d
:020000040000fa
:0253ae00704746
:020000040000fa
:1053b000f7b51d4f03003c68201e0dd000222100d0
:1053c000100001920d68ac460d699c4509d1002a78
:1053d00005d0156110310800febd2900f2e73d60df
:1053e000f8e79c4506d9002802d00668b44501d2ea
:1053f000080001920a00002defd10028ecd0050032
:1054000002680169d21a1035102a05d90360eb1819
:1054100019611900103a1a60844202d139602800db
:0c542000dae7019b1961fae7140500208f
:020000040000fa
:10542c00f8b5866a04000f001500002e0ad0a36a96
:10543c0062699b1aab420cd22a0039002000fff79c
:10544c006fff05e000f0b6fa03003000002beed041
:10545c00f8bd002df0d03422a256002a1bdb2b0005
:10546c00d2b21e00013bf95c914212d132003900dc
:10547c002000fff755ff8642ead8bf19ae1b320059
:10548c003900606900f0eafa636928009b196361ce
:0a549c00dee7002be5d12e00f1e75a
:020000040000fa
:0254a60070474d
:020000040000fa
:1054a80080b500af084b1b681b680021180000f08e
:1054b800ebfa064b1b681b680021180000f0e4faa1
:1054c800c046bd4680bdc046200500200406002019
:1054d80080b582b000af78600c4b06225a60fff7a7
:1054e800dffffef75dfdfff7f5fcfef7f7fefdf7c2
:1054f800abfafdf743fffef787fafff75ff8fff710
:1055080091fac046bd4602b080bdc0460040004189
:020000040000fa
:105518007fb51600c2680d0013000091591e8b411b
:10552800f31a019383680400039269460222006813
:10553800029300f0ccf9002808dc18220821024068
:10554800514062680a43626004b070bd01998142ab
:10555800fad2a268431ad3182364e368e263002be3
:1055680001d13000f0e7531ce3631378ad19013d16
:045578002b70f6e7b7
:020000040000fa
:10557c0000230e4a10b513600d4a13600d4a1360d8
:10558c000d4a13600d4a13600d4a536213610133c7
:10559c00936000f091fa00f0d0f90a4c0a4b9c424f
:1055ac0000d310bd08cc9847f8e7c0461005002082
:1055bc001404002010040020080400200c04002017
:0c55cc0018040020b0000000b400000033
:020000040000fa
:1055d80070b504000d00002801d1002070bd43689b
:1055e8009b0607d5426983699a4215d80023a362ae
:1055f800a3616361e36b216c8b4204d201222068b2
:10560800591a00f07cfa00232364e3639d42e4d036
:10561800206800f06dfae1e70022c36a110098479c
:0c5628006369002be2d101204042d7e76b
:020000040000fa
:1056340037b5144d04002b68002b0fd000f082f90d
:10564400019001a800f0f8f90f230f300199984355
:1056540000f0a6f900280bd000232b60002c00d109
:1056640001340f230f349c4304d10c22064b1a60df
:1056740000203ebd2000fff799fe0028f9d0031f4b
:0c5684001c60f6e7080600201805002056
:020000040000fa
:1056900070b5040016001d00022a1dd043689b0649
:1056a0001ad4002908d1002d01d18025ed00280051
:1056b0000830fff7bfff010020236268a160134399
:1056c0006360e5600a23012e01d001235b422200c2
:1056d00034321370014be362002070bd2d54000082
:020000040000fa
:1056e00070b5104d04002b68002b0cd0002c12da82
:1056f0000d4a2b6812689b1a6242934208db2868a5
:1057000004192c6006e000f0b5f82b68002bedd1f1
:105710000120404270bd054b2a681b689b1aa342ba
:10572000eddaf5e7f804002000050020fc04002075
:020000040000fa
:1057300010b5064c2378002b07d1054b002b02d067
:10574000044800e000bf0123237010bddc040020ea
:105750000000000000000000044b10b5002b03d037
:105760000349044800e000bf10bdc046000000002f
:08577000e0040020000000002d
:020000040000fa
:1057780010b50a4b98470a4b984700f05bf8094b5d
:10578800ff229343084a9360084b9847084b984771
:10579800084b9847fcf70af8fee7c046af530000ed
:1057a800af5300000000000000ed00e07d55000050
:0857b800af530000af530000e5
:020000040000fa
:1057c000002b11d1002a0fd1002900d1002802d0ce
:1057d0000021c943080007b4024802a14018029002
:1057e00003bdc0462903000003b4684601b5029812
:1057f000fff7a2fb019b9e4602b00cbc7047c0465f
:020000040000fa
:105800001c2101231b04984201d3000c10391b0af0
:10581000984201d3000a08391b09984201d30009b4
:10582000043902a2105c40187047c046040302020b
:0c58300001010101000000000000000068
:020000040000fa
:10583c0010b50b480168002905d14368002b02d133
:10584c00fff72bfe10bd04008368064a9bb20c3494
:10585c009b009b5842682000984780002018e9e77d
:08586c00504b0000545a0000eb
:020000040000fa
:10587400074a1368002b01d1064b1360064b1968c5
:10588400002901d105491960054b12681a60704757
:105894000005002010060020fc0400201008002051
:0458a400f8040020e4
:020000040000fa
:1058a80001000022030048318a56501e02430a7044
:1058b8005968042208001040114205d001200c321a
:0e58c8000a435a60404270471864d863fbe7f9
:020000040000fa
:1058d600f7b5002516000c002f000190b74201db3a
:1058e6002800febd626821680198fff740fc013779
:0658f6002d180834f2e752
:020000040000fa
:1058fc00f7b5002516000c002f000190b74201db14
:10590c002800febd626821680198fff756fc01373c
:06591c002d180834f2e72b
:020000040000fa
:1059220041000dd2090e7f390ad449421f3105d4f4
:1059320000020122d2071043c8407047c8177047bf
:04594200002070478a
:020000040000fa
:025946007047a8
:020000040000fa
:1059480010b5054c2368002b01d1fff78fff034bdf
:1059580018682368c01a10bdf8040020fc04002051
:020000040000fa
:105968009d2201000ad002d4013a4900fcd5d20593
