:020000040000fa
:10000000f80f0020ed3d0000d1400000d940000075
:1000100000000000000000000000000000000000e0
:10002000000000000000000000000000ab370000ee
:100030000000000000000000ab370000ab370000fc
:10004000ab370000ab370000ab370000ab37000028
:10005000ab370000ab370000ab370000ab37000018
:1000600045250000ab370000ab370000ab37000080
:10007000ab370000ab370000ab370000ab370000f8
:10008000ab370000ab370000ab37000000000000ca
:1000900000000000ab370000ab370000ab370000ba
:0400a000ab3700007a
:020000040000fa
:1000a400f8b5c046f8bc08bc9e467047cd3d00007c
:1000b400f8b5c046f8bc08bc9e467047a53d000094
:020000040000fa
:0800c4000836000001000000f5
:020000040000fa
:1000cc003031323334353637383941424344454682
:1000dc00000000000a0a00002323232323232323e8
:1000ec0023232323232323232323232323232323d4
:1000fc0023232323232323232323232323232323c4
:10010c0023232323232323232323232323232323b3
:10011c0023232323232323230a000000232020202e
:10012c0020202020202020202020202020202020c3
:10013c0020202020202020202020202020202020b3
:10014c0020202020202020202020202020202020a3
:10015c002020202020202020202020230a00000006
:10016c00232020202020202043414e204275732044
:10017c0050726f746f636f6c202d204564756361d2
:10018c0074696f6e616c2044656d6f6e737472610f
:10019c0074696f6e20202020202020202020202316
:1001ac000a00000023202020202020205049433327
:1001bc0032434d3332303447563030303438202bc4
:1001cc002041544136353631205472616e7363656b
:1001dc0069766572202020202020202020202020dd
:1001ec00202020230a00000023232323232323235e
:1001fc0023232323232323232323232323232323c3
:10020c0023232323232323232323232323232323b2
:10021c0023232323232323232323232323232323a2
:10022c0023232323232323230a0a00004e4f544560
:10023c003a2054686973204d435520686173204ef1
:10024c004f206275696c742d696e2043414e20639a
:10025c006f6e74726f6c6c65722e0a0020202020f9
:10026c0020205468697320697320612053494d55cf
:10027c004c4154494f4e20666f7220656475636122
:10028c0074696f6e616c20707572706f7365732e0c
:10029c000a000000202020202020466f722072656a
:1002ac00616c2043414e2c20616464204d435032dc
:1002bc003531352065787465726e616c20636f6eb4
:1002cc0074726f6c6c65722e0a0a00003d3d3d3de8
:1002dc003d3d3d3d3d3d3d3d3d3d3d3d3d3d3d3d42
:1002ec003d3d3d3d3d3d3d3d3d3d3d3d3d3d3d3d32
:1002fc003d3d3d3d3d3d3d3d3d3d3d3d3d3d3d3d22
:10030c003d3d3d3d3d3d3d3d3d3d3d3d0a000000fb
:10031c0020204c4553534f4e20313a2043414e2020
:10032c004672616d65205374727563747572650adb
:10033c00000000003d3d3d3d3d3d3d3d3d3d3d3dd5
:10034c003d3d3d3d3d3d3d3d3d3d3d3d3d3d3d3dd1
:10035c003d3d3d3d3d3d3d3d3d3d3d3d3d3d3d3dc1
:10036c003d3d3d3d3d3d3d3d3d3d3d3d3d3d3d3db1
:10037c003d3d3d3d0a0a000041205374616e6461ad
:10038c0072642043414e20322e3041206672616de2
:10039c006520636f6e7369737473206f663a0a0a13
:1003ac00000000002b2d2d2d2d2d2b2d2d2d2d2d29
:1003bc002d2d2d2d2d2d2d2b2d2d2d2b2d2d2d2b67
:1003cc002d2d2d2b2d2d2d2d2d2b2d2d2d2d2d2d55
:1003dc002d2d2b2d2d2d2d2d2b2d2d2d2b2d2d2d47
:1003ec002d2d2b0a000000007c20534f46207c2032
:1003fc0020494420283131622920207c5254527cdf
:10040c004944457c7230207c20444c43207c202085
:10041c004441544120207c20435243207c41434b97
:10042c007c20454f46207c0a000000007c202031b7
:10043c0020207c2020202020313120202020207cd6
:10044c002031207c2031207c2031207c2020342045
:10045c00207c2020302d363420207c20313520206b
:10046c007c2032207c20203720207c0a00000000d9
:10047c002b2d2d2d2d2d2b2d2d2d2d2d2d2d2d2da4
:10048c002d2d2d2b2d2d2d2b2d2d2d2b2d2d2d2b98
:10049c002d2d2d2d2d2b2d2d2d2d2d2d2d2d2b2d84
:1004ac002d2d2d2d2b2d2d2d2b2d2d2d2d2d2b0a99
:1004bc000a0000004669656c6420446573637269c8
:1004cc007074696f6e733a0a000000002020534f5d
:1004dc004620202d205374617274206f6620467262
:1004ec00616d6520283120646f6d696e616e7420ba
:1004fc00626974290a000000202049442020202d24
:10050c00204d657373616765204964656e74696617
:10051c006965722028313120626974732c206c6fec
:10052c00776572203d206869676865722070726912
:10053c006f72697479290a00202052545220202da0
:10054c002052656d6f7465205472616e736d6973a2
:10055c0073696f6e20526571756573742028303d18
:10056c00646174612c20313d72656d6f7465290a6c
:10057c0000000000202049444520202d20496465be
:10058c006e74696669657220457874656e73696fff
:10059c006e2028303d7374616e646172642c20315e
:1005ac003d657874656e646564290a00202072309c
:1005bc002020202d20526573657276656420626957
:1005cc007420286d75737420626520646f6d696e7c
:1005dc00616e742f30290a002020444c4320202dba
:1005ec002044617461204c656e67746820436f64ad
:1005fc00652028302d38206279746573290a000033
:10060c00202044415441202d205061796c6f61644d
:10061c0020283020746f2038206279746573290a81
:10062c0000000000202043524320202d20437963fa
:10063c006c696320526564756e64616e63792043e6
:10064c006865636b202831352062697473202b2018
:10065c0064656c696d69746572290a0020204143d8
:10066c004b20202d2041636b6e6f776c6564676542
:10067c0020736c6f742028322062697473290a000d
:10068c002020454f4620202d20456e64206f66208b
:10069c004672616d652028372072656365737369d6
:1006ac0076652062697473290a0a000020204c4583
:1006bc0053534f4e20323a2043414e20426974200e
:1006cc0054696d696e670a00456163682043414e49
:1006dc00206269742069732064697669646564209a
:1006ec00696e746f2074696d65207365676d656ed6
:1006fc0074733a0a0a00000020207c3c2d2d2d2d0d
:10070c002d2d2d2d2d2d2d2d2d2d2031204269748b
:10071c002054696d6520287471202a2028312b50b3
:10072c0053312b5053322929202d2d2d2d2d2d2d8c
:10073c002d2d2d2d2d2d3e7c0a00000020202b2d43
:10074c002d2d2d2d2d2b2d2d2d2d2d2d2d2d2d2dcf
:10075c002d2d2d2d2d2d2d2d2b2d2d2d2d2d2d2dbf
:10076c002d2d2b2d2d2d2d2d2d2d2d2d2d2d2d2daf
:10077c002d2d2d2d2d2d2d2d2d2d2d2b0a00000049
:10078c0020207c2053594e43207c20202050524f57
:10079c0050202b2050484153453120207c20534180
:1007ac004d504c4520207c20202020202020205003
:1007bc004841534532202020202020202020207c1e
:1007cc000a000000202020202031747120202020dd
:1007dc0020202020312d3820747120202020202032
:1007ec00202020506f696e74202020202020202093
:1007fc0020312d382074710a0a000000436f6d6d92
:10080c006f6e20426175642052617465733a0a0000
:10081c0020202d20313235206b62707320203a203d
:10082c004c6f772d73706565642043414e202862b0
:10083c006f647920656c656374726f6e696373297c
:10084c000a00000020202d20323530206b6270739e
:10085c0020203a204a3139333920747275636b7316
:10086c002c206167726963756c747572616c20659c
:10087c00717569706d656e740a00000020202d2062
:10088c00353030206b62707320203a2048696768dd
:10089c002d73706565642043414e2028706f776519
:1008ac0072747261696e2c20636861737369732949
:1008bc000a00000020202d2031204d627073202072
:1008cc0020203a204d6178696d756d207374616ece
:1008dc00646172642043414e2073706565640a0a3a
:1008ec00000000004578616d706c653a2035303041
:1008fc006b627073207769746820384d487a206f6a
:10090c007363696c6c61746f720a00002020426919
:10091c00742054696d65203d20312f3530303030d6
:10092c0030203d203275730a0000000020205769ea
:10093c0074682031362074696d65207175616e7430
:10094c00613a207471203d203132356e730a0000fb
:10095c002020425250203d20384d487a202f20280c
:10096c003136202a203530306b487a29202d203121
:10097c00203d20300a0a000020204c4553534f4e96
:10098c0020333a2043414e204275732041726269f4
:10099c0074726174696f6e202843534d412f434428
:1009ac00290a000043414e2075736573206e6f6eeb
:1009bc002d646573747275637469766520626974ed
:1009cc0077697365206172626974726174696f6ea4
:1009dc003a0a0a00202052756c653a20444f4d4962
:1009ec004e414e54202830292077696e73206f7643
:1009fc0065722052454345535349564520283129a9
:100a0c000a0a00004578616d706c653a204e6f647f
:100a1c00652041202849443d3078313030292076fa
:100a2c0073204e6f64652042202849443d30783253
:100a3c003030290a0a000000202042697420506fcf
:100a4c00736974696f6e3a20203130202020392070
:100a5c002020382020203720202036202020352030
:100a6c002020342020203320202032202020312030
:100a7c002020300a000000002020202020202020f0
:100a8c0020202020202020202b2d2d2d2b2d2d2df6
:100a9c002b2d2d2d2b2d2d2d2b2d2d2d2b2d2d2d82
:100aac002b2d2d2d2b2d2d2d2b2d2d2d2b2d2d2d72
:100abc002b2d2d2d2b0a000020204944203d2030c9
:100acc00783130303a2020207c2030207c2030209f
:100adc007c2031207c2030207c2030207c20302059
:100aec007c2030207c2030207c2030207c2030204a
:100afc007c2030207c203c2d2057494e53210a006d
:100b0c0020204944203d2030783230303a202020bb
:100b1c007c2030207c2031207c2030207c20302018
:100b2c007c2030207c2030207c2030207c20302009
:100b3c007c2030207c2030207c2030207c203c2de0
:100b4c00206c6f7365730a00202020202020202049
:100b5c0020202020202020202020202020205e204b
:100b6c004e6f64652042207365657320646f6d69f8
:100b7c006e616e742c206261636b73206f66660a03
:100b8c000a00000020204c4f574552204944203d7c
:100b9c0020484947484552205052494f52495459d0
:100bac000a0a000020205468697320697320776852
:100bbc007920637269746963616c206d657373610c
:100bcc006765732028616972626167732c20627299
:100bdc00616b6573290a0000202068617665204ce2
:100bec004f572049447320666f722067756172619c
:100bfc006e746565642062757320616363657373dd
:100c0c00210a0a0020204c4553534f4e20343a20e1
:100c1c00436f6d6d6f6e204175746f6d6f74697677
:100c2c00652043414e204d657373616765204944cf
:100c3c00730a00002b2d2d2d2d2d2d2d2d2b2d2d13
:100c4c002d2d2d2d2d2d2d2d2d2d2d2d2d2d2d2dc8
:100c5c002d2d2d2d2d2d2d2b2d2d2d2d2d2d2d2dba
:100c6c002d2d2d2d2b2d2d2d2d2d2d2d2d2d2d2daa
:100c7c002d2d2b0a000000007c2020204944202030
:100c8c00207c2020202020204465736372697074be
:100c9c00696f6e20202020202020207c2020202006
:100cac0052617465202020207c20205072696f7264
:100cbc006974792020207c0a000000007c203078a8
:100ccc0030433020207c20456e67696e6520525081
:100cdc004d20202020202020202020202020207c7f
:100cec002020203130206d73202020207c202020db
:100cfc00204869676820202020207c0a0000000022
:100d0c007c20307830443020207c20566568696324
:100d1c006c652053706565642020202020202020e5
:100d2c002020207c2020203230206d732020202099
:100d3c007c202020204869676820202020207c0a05
:100d4c00000000007c20307830453020207c20438f
:100d5c006f6f6c616e742054656d70657261747523
:100d6c00726520202020207c2020313030206d73b3
:100d7c00202020207c2020204d656469756d20206a
:100d8c0020207c0a000000007c2030783046302087
:100d9c00207c205468726f74746c6520506f73697a
:100dac0074696f6e202020202020207c2020203190
:100dbc0030206d73202020207c2020202048696763
:100dcc006820202020207c0a000000007c20307845
:100ddc0031303020207c204272616b65205374616d
:100dec007475732020202020202020202020207c9f
:100dfc002020203130206d73202020207c202020ca
:100e0c00204869676820202020207c0a0000000010
:100e1c007c20307831313020207c20537465657211
:100e2c00696e6720416e676c652020202020202091
:100e3c002020207c2020203130206d732020202089
:100e4c007c202020204869676820202020207c0af4
:100e5c00000000007c20307836323020207c20418d
:100e6c00697262616720537461747573202020204d
:100e7c00202020202020207c2020313030206d7339
:100e8c00202020207c2020204d656469756d202059
:100e9c0020207c0a000000007c203078374446205b
:100eac00207c204f42442d49492052657175657351
:100ebc00742028616c6c29202020207c204f6e2d02
:100ecc0064656d616e6420207c202020204c6f773f
:100edc002020202020207c0a000000007c2030787c
:100eec0037453820207c204f42442d4949205265fb
:100efc0073706f6e7365202845434d292020207c2c
:100f0c00204f6e2d64656d616e6420207c20202046
:100f1c00204c6f772020202020207c0a000000002d
:100f2c002b2d2d2d2d2d2d2d2d2b2d2d2d2d2d2de9
:100f3c002d2d2d2d2d2d2d2d2d2d2d2d2d2d2d2dd5
:100f4c002d2d2d2b2d2d2d2d2d2d2d2d2d2d2d2dc7
:100f5c002b2d2d2d2d2d2d2d2d2d2d2d2d2d2b0adc
:100f6c000a0000004e6f74653a204c6f7765722052
:100f7c004944203d20486967686572207072696f2a
:100f8c0072697479206f6e207468652062757321a4
:100f9c000a0a00000a2b2d2d2d2d2d2d2043414efc
:100fac00204672616d653a2000000000202d2d2d29
:100fbc002d2d2d2b0a0000007c2049443a202020a6
:100fcc0030780000202042696e6172793a2000006e
:100fdc000a0000007c20444c433a20200000000012
:100fec002062797465730a007c20446174613a2034
:100ffc00000000007c204352433a2020307800004f
:10100c002b2d2d2d2d2d2d2d2d2d2d2d2d2d2d2d06
:10101c002d2d2d2d2d2d2d2d2d2d2d2d2d2d2d2df4
:10102c002d2d2d2d2d2d2d2d2d2b0a000a3d3d3d29
:10103c003d3d3d3d3d3d3d3d3d3d205645484943b3
:10104c004c452044415348424f415244203d3d3d84
:10105c003d3d3d3d3d3d3d3d3d3d0a002020525036
:10106c004d3a2020202020200000000020205b0092
:10107c005d0a0000202053706565643a2020202012
:10108c0000000000206b6d2f680a00002020436fc9
:10109c006f6c616e743a2020000000002043200029
:1010ac005b434f4c445d00005b484f54215d000096
:1010bc005b4f4b5d0000000020205468726f74740d
:1010cc006c653a200000000020250a0020204765ae
:1010dc0061723a2000000000202020204272616bd7
:1010ec00653a20004f4e00004f4646003d3d3d3dc9
:1010fc003d3d3d3d3d3d3d3d3d3d3d3d3d3d3d3d14
:10110c003d3d3d3d3d3d3d3d3d3d3d3d3d3d3d3d03
:10111c003d3d3d3d3d3d3d3d3d3d0a005000000007
:10112c00520000004e000000440000002811000096
:10113c002c11000030110000341100000a2323236d
:10114c002323232323232323232323232323232363
:10115c002323232323232323232323232323232353
:10116c002323232323232323232323232323232343
:10117c00232323232323232323232323230a000092
:10118c0023202020202020202020204c49564520a0
:10119c0056454849434c452043414e204255532027
:1011ac0053494d554c4154494f4e2020202020206e
:1011bc002020202020202020202020202020202320
:1011cc000a000000456e67696e652052504d0000a4
:1011dc0056656869636c6520537065656400000032
:1011ec00436f6f6c616e742054656d70000000006d
:1011fc005468726f74746c652026204272616b6542
:10120c00000000005374656572696e6720416e675b
:10121c006c650000f21e0000461f00008a1f0000d3
:0c122c00d61f0000222000007c200000e3
:020000040000fa
:1012380080b584b000af78607a6813009b009b1873
:101248009a009b185b01fb60c046fb685a1efa6057
:10125800002bfad1c046c046bd4604b080bd80b55b
:1012680084b000af0200fb1d1a700d4bfb6005e057
:10127800fb68013bfb60fb68002b0cd0094b9b7b98
:10128800dbb21a0001231340f2d0064afb1d1b787b
:101298009bb2138300e0c046bd4604b080bdc04683
:1012a80050c300000008004280b582b000af7860eb
:1012b8000de07b681b780a2b02d10d20fff7cfffca
:1012c8007b685a1c7a601b781800fff7c8ff7b6898
:1012d8001b78002bedd1c046c046bd4602b080bd8c
:1012e80080b586b000af786000237b617b68002bf7
:1012f80019d13020fff7b3ff27e07b680a211800d7
:1013080002f044fb0b00dab27b69591c7961303278
:10131800d1b20822ba18d1547b680a21180002f009
:10132800f9fa03007b607b68002be6d10ae07b6951
:10133800013b7b610823fa187b69d3181b781800d6
:10134800fff78dff7b69002bf1dcbd4606b080bd41
:10135800b0b588b000af0200fb1d1a700c257b19d0
:101368000f4a13ca13c31168196012791a71fb1d49
:101378001b781b09dbb21a000f2313407a19d35cc0
:101388001800fff76cfffb1d1b780f2213407a191a
:10139800d35c1800fff763ffc046bd4608b0b0bd78
:1013a800cc00000080b582b000af0200bb1d1a80df
:1013b800bb1d1b881b0a9bb2dbb21800fff7c8ffd6
:1013c800bb1d1b88dbb21800fff7c2ffc046bd4635
:1013d80002b080bd80b584b000af0200bb1d1a808a
:1013e8000a23fb6019e0bb1d1a88fb681a41130029
:1013f8000122134001d0312300e030231800fff709
:101408002efffb68082b02d0fb68042b02d120209a
:10141800fff725fffb68013bfb60fb68002be2da66
:10142800c046c046bd4604b080bd80b58ab000af96
:1014380078602623fb1800221a801223fb18644abe
:101448001a800a233b6233e07b681b881a003b6ad8
:101458001a411300dab20d203b1801210a401a7014
:1014680026217b181b889b0b9bb25bb20122134081
:101478005ab23b181b785bb253405ab20c203b1847
:101488001a707b181b88db189ab27b185204520c0e
:101498001a803b181b78002b07d07b18791812226a
:1014a800ba18098812884a401a803b6a013b3b6295
:1014b8003b6a002bc8da0323fb6133e07b68db78e7
:1014c8001a00fb691a411300dab20f203b180121f8
:1014d8000a401a7026217b181b889b0b9bb25bb2b3
:1014e800012213405ab23b181b785bb253405ab2e0
:1014f8000e203b181a707b181b88db189ab27b18d1
:101508005204520c1a803b181b78002b07d07b180a
:1015180079181222ba18098812884a401a80fb6979
:10152800013bfb61fb69002bc8da0023bb613fe08c
:1015380007237b6136e07a68bb69d31804331b78cc
:101548001a007b691a411300dab211203b180121f5
:101558000a401a7026217b181b889b0b9bb25bb232
:10156800012213405ab23b181b785bb253405ab25f
:1015780010203b181a707b181b88db189ab27b184e
:101588005204520c1a803b181b78002b07d07b188a
:1015980079181222ba18098812884a401a807b6979
:1015a800013b7b617b69002bc5dabb690133bb61f9
:1015b8007b68db781a00bb699342b9db2623fb18ea
:1015c8001b885b045b0c9bb21800bd460ab080bd4b
:1015d8009945000080b500af624b1b8801339ab271
:1015e800604b1a80604b1b78032b00d185e000dd2f
:1015f800b4e0022b63d000ddb0e0002b02d0012b59
:101608001ed0abe0594bdb785bb2592b08dc574b4b
:10161800db785bb2dbb20133dbb25ab2534bda7020
:10162800524be12292001a804e4b1b881e2b00d889
:101638008de04d4b01221a704a4b00221a8086e039
:101648004a4b00225a71494b03221a72474b1b79a5
:10165800312b05d8454b1b790533dab2434b1a7148
:10166800424b1b791a00282353439bb2fa2292005b
:10167800944663449ab23d4b1a803c4b9b783b2b73
:1016880005d83a4b9b780333dab2384b9a70354b0e
:101698001b881421180002f079f90b009bb20a3b51
:1016a8009bb21ab2314bda80304b9b783b2b50d926
:1016b8002d4b02221a702b4b00221a8049e02b4b2b
:1016c8001e221a71294b2a4a1a80264b1b880a2186
:1016d800180002f05bf90b009bb2053b9bb21ab2f3
:1016e800224bda801f4b1b88282b34d91e4b032230
:1016f8001a701c4b00221a802de01c4b00221a7114
:101708001a4b01225a71194b1a88c8239b009a4216
:1017180005d9164b1b88963b9ab2144b1a80134b6b
:101728009b78002b05d0114b9b78043bdab20f4b0a
:101738009a700e4b9b78002b0fd10b4b00221a701e
:10174800084b00221a80094b00221a7205e0c04695
:1017580004e0c04602e0c04600e0c046c046bd46c0
:1017680080bdc046c8040020ca040020b805002077
:10177800c409000080b500af154b1800fff794fdb1
:10178800144b1800fff790fd134b1800fff78cfd62
:10179800124b1800fff788fd114b1800fff784fd66
:1017a8000d4b1800fff780fd0e4b1800fff77cfd6e
:1017b8000d4b1800fff778fd0c4b1800fff774fd70
:1017c8000b4b1800fff770fdc046bd4680bdc046f4
:1017d800e0000000e4000000280100006c010000a7
:1017e800b0010000f40100003802000068020000a7
:1017f800a002000080b500af2b4b1800fff754fd86
:101808002a4b1800fff750fd294b1800fff74cfd35
:10181800284b1800fff748fd274b1800fff744fd39
:10182800264b1800fff740fd234b1800fff73cfd3f
:10183800234b1800fff738fd224b1800fff734fd43
:10184800214b1800fff730fd204b1800fff72cfd47
:101858001f4b1800fff728fd1e4b1800fff724fd4b
:101868001d4b1800fff720fd1c4b1800fff71cfd4f
:101878001b4b1800fff718fd1a4b1800fff714fd53
:10188800194b1800fff710fd184b1800fff70cfd57
:10189800174b1800fff708fd164b1800fff7c8fc98
:1018a800c046bd4680bdc046d80200001c030000eb
:1018b8004003000084030000b0030000f4030000ac
:1018c800380400007c040000c0040000d8040000b4
:1018d800040500004405000080050000b80500006c
:1018e800e40500000c060000300600006806000051
:1018f8008c060000b80b000080b500af274b18001d
:10190800fff7d2fc264b1800fff7cefc254b18003a
:10191800fff7cafc244b1800fff7c6fc234b18003e
:10192800fff7c2fc224b1800fff7befc214b180042
:10193800fff7bafc1e4b1800fff7b6fc1e4b180049
:10194800fff7b2fc1d4b1800fff7aefc1c4b18004c
:10195800fff7aafc1b4b1800fff7a6fc1a4b180050
:10196800fff7a2fc194b1800fff79efc184b180054
:10197800fff79afc174b1800fff796fc164b180058
:10198800fff792fc154b1800fff78efc144b18005c
:10199800fff74efcc046bd4680bdc046d8020000d9
:1019a800b806000040030000d40600000407000049
:1019b800480700008c070000d00700000808000056
:1019c8001c0800005008000088080000c00800003b
:1019d800f008000018090000380900005c09000040
:1019e800b80b000080b500af234b1800fff75cfc74
:1019f800224b1800fff758fc214b1800fff754fc46
:101a0800204b1800fff750fc1f4b1800fff74cfc49
:101a18001e4b1800fff748fc1d4b1800fff744fc4d
:101a28001c4b1800fff740fc1b4b1800fff73cfc51
:101a3800184b1800fff738fc184b1800fff734fc58
:101a4800144b1800fff730fc154b1800fff72cfc5f
:101a5800144b1800fff728fc134b1800fff724fc61
:101a6800124b1800fff720fc114b1800fff7e0fba2
:101a7800c046bd4680bdc046d802000084090000ab
:101a880040030000b0090000e0090000100a00004f
:101a9800440a0000840a0000c40a00000c0b00007d
:101aa800540b0000900b0000b00b0000e40b00008a
:101ab800b80b000080b500af254b1800fff7f4fb0a
:101ac800244b1800fff7f0fb234b1800fff7ecfb43
:101ad800224b1800fff7e8fb214b1800fff7e4fb47
:101ae8001e4b1800fff7e0fb1e4b1800fff7dcfb4e
:101af8001d4b1800fff7d8fb1c4b1800fff7d4fb51
:101b08001b4b1800fff7d0fb1a4b1800fff7ccfb54
:101b1800194b1800fff7c8fb184b1800fff7c4fb58
:101b2800174b1800fff7c0fb164b1800fff7bcfb5c
:101b3800154b1800fff7b8fb144b1800fff7b4fb60
:101b4800134b1800fff774fbc046bd4680bdc04666
:101b5800d8020000100c000040030000400c0000f8
:101b6800840c0000c80c00000c0d0000500d000093
:101b7800940d0000d80d00001c0e0000600e00003f
:101b8800a40e0000e80e00002c0f0000700f0000eb
:101b9800b80b000080b584b000af78603960314b75
:101ba8001800fff781fb3b681800fff77dfb2e4b01
:101bb8001800fff779fb2d4b1800fff775fb7b68c2
:101bc8001b881800fff7eefb294b1800fff76cfb8a
:101bd8007b681b881800fff7fdfb264b1800fff7f2
:101be80063fb254b1800fff75ffb7b68db78180069
:101bf800fff776fb214b1800fff756fb204b180028
:101c0800fff752fb0023fb600de07a68fb68d318ee
:101c180004331b781800fff79bfb2020fff71ffbfe
:101c2800fb680133fb607b68db781a00fb68934232
:101c3800ebdb104b1800fff737fb124b1800fff7d0
:101c480033fb7b689b891800fff7acfb094b180036
:101c5800fff72afb0c4b1800fff726fbc046bd46d2
:101c680004b080bda00f0000b80f0000c40f000032
:101c7800d00f0000dc0f0000e00f0000ec0f0000a8
:101c8800f40f0000001000000c10000090b587b0a1
:101c980000af554b1800fff707fb544b1800fff730
:101ca80003fb534b1b881800fff71afb514b180016
:101cb800fff7fafa4e4b1b88fa225100180001f080
:101cc80029fe03009bb23b6100237b6113e07a6924
:101cd8003b699a4209da7b690b2b01dc3d2300e062
:101ce80021231800fff7bbfa02e02d20fff7b7fa0f
:101cf8007b6901337b617b690f2be8dd3e4b180064
:101d0800fff7d2fa3d4b1800fff7cefa384b9b7815
:101d18001800fff7e5fa3a4b1800fff7c5fa394bf8
:101d28001800fff7c1fa324bdb785bb21800fff7f7
:101d3800d7fa354b1800fff7b7fa2d4bdb785bb2b3
:101d48003b2b04dc314b1800fff7aefa0de0284bb3
:101d5800db785bb2642b04dd2d4b1800fff7a4fa87
:101d680003e02c4b1800fff79ffa2b4b1800fff7e6
:101d78009bfa2a4b1800fff797fa1d4b1b7918009e
:101d8800fff7aefa264b1800fff78efa3b00254afc
:101d980013ca13c312681a60234b1800fff784fa9a
:101da800134b1b7a1a003b009200d3581800fff718
:101db8007bfa1e4b1800fff777fa0d4b5b79002b67
:101dc80001d01b4b00e01b4b1800fff76dfa124bbc
:101dd8001800fff769fa184b1800fff765fac046b4
:101de800bd4607b090bdc04638100000681000001e
:101df800b8050020781000007c100000801000005a
:101e08009010000098100000a8100000ac1000000e
:101e1800b4100000bc100000dc0f0000c41000006b
:101e2800d410000038110000d8100000e4100000a1
:101e3800f0100000f4100000f810000080b586b023
:101e480000af002001f082fe00237b6114e0924b7a
:101e580001225a61904b02229a616420fff7e8f947
:101e68008d4b01229a618c4b02225a616420fff744
:101e7800dff97b6901337b617b69042be7dd864be6
:101e880001229a61844b02229a61fff773fcfa23bc
:101e9800db001800fff7ccf9fff7acfcfff72cfdcf
:101ea800fff7a0fdfff706fe7c4b1800fff7fcf9d3
:101eb8007b4b1800fff7f8f97a4b1800fff7f4f995
:101ec80000233b613b6901333b61fff783fb3b69bf
:101ed8000621180001f05afd0b00052b00d9d5e0aa
:101ee8009a00714bd3181b689f463b00c0221a808a
:101ef8003b000222da706d4b1b881b0a9bb2dab2d8
:101f08003b001a71694b1b88dab23b005a713b00df
:101f18001800fff78afa03001a003b009a815e4b0b
:101f280001225a61624a3b0011001800fff732fe95
:101f38003220fff77df9584b01229a61a6e03b0059
:101f4800d0221a803b000122da70584b9a783b0065
:101f58001a713b001800fff768fa03001a003b00eb
:101f68009a814d4b01225a61524a3b0011001800d8
:101f7800fff710fe3220fff75bf9474b01229a6109
:101f880084e03b00e0221a803b000122da70474bd4
:101f9800db785bb2dbb22833dab23b001a713b0064
:101fa8001800fff742fa03001a003b009a813a4be7
:101fb80001225a61404a3b0011001800fff7eafd70
:101fc8003220fff735f9344b01229a615ee03b007d
:101fd800f0221a803b000222da70344b1a793b0057
:101fe8001a71324b5a793b005a713b001800fff7bf
:101ff8001cfa03001a003b009a81274b01225a6100
:102008002e4a3b0011001800fff7c4fd3220fff7ed
:102018000ff9214b01229a6138e03b0088225200d7
:102028001a803b000222da70204b06229b5e1b12ac
:102038001bb2dab23b001a711c4b06229b5edab265
:102048003b005a713b001800fff7eff903001a0034
:102058003b009a81104b01225a61194a3b0011003a
:102068001800fff797fd3220fff7e2f80a4b01222c
:102078009a610be0084b02225a61fff707fe3220f3
:10208800fff7d6f8044b02229a61c046fa235b0098
:102098001800fff7cdf815e700440041481100008b
:1020a8008c110000f401000020120000b805002087
:1020b800d0110000dc110000ec110000fc11000040
:0420c80010120000f2
:020000040000fa
:1020cc0080b500af184b00221a62174b00221a770a
:1020dc00154b00229a60144b0022da60134b8022bd
:1020ec0092025a60c046114b1b8a9bb21a00802385
:1020fc001b021a4080231b029a42f4d00b4b07227e
:10210c009a720a4b0a4a1a60c046084b1b8a9bb249
:10211c001a0080231b021a4080231b029a42f4d01f
:10212c00c046c046bd4680bd58040020000c00428d
:10213c000e00300080b584b000af786039600023a9
:10214c00fb600b23fb1800221a703b68002b01d19b
:10215c003d4b3b603d4b1a683c4b02218a431a6055
:10216c003b4b0022da603a4b00229a60c046374b58
:10217c001b8a9bb21a0080231b021a4080231b026d
:10218c009a42f4d07b68002b45d07b681a683b6878
:10219c005b089a423fd87b681b685b001900386863
:1021ac0001f0b6fb0300013bfb60fb68fe2b01d981
:1021bc00ff23fb60254b1a68244b26490a401a6002
:1021cc00224b19687b689a687b685b681a431f4bc3
:1021dc000a431a601d4bfa68d2b29a721b4b5a68aa
:1021ec001a4b07218a435a60184b59687b68da6886
:1021fc00164b0a435a60c046144b1b8a9bb21a00fa
:10220c0080231b021a4080231b029a42f4d00b231a
:10221c00fb1801221a700d4b1a680c4b02210a4351
:10222c001a60c046094b1b8a9bb21a0080231b0202
:10223c001a4080231b029a42f4d00b23fb181b7804
:10224c001800bd4604b080bd00127a00000c00429c
:10225c0058040020ffffffcf80b582b000af78603c
:10226c003960054b7a681a62034b3a685a62c04669
:10227c00bd4602b080bdc0465804002080b584b075
:10228c0000af0f217b1800221a70174b9b68bb60a4
:10229c00fb1d154a127f1a70134bdb68002b06d1fd
:1022ac00bb68002b03d17b1800221a7014e00f4b73
:1022bc009b7bdbb21a000223134003d0fb1d1b785f
:1022cc00002b01d0012200e000220f23fb181a7012
:1022dc001a7801210a401a700f23fb181b7818007a
:1022ec00bd4604b080bdc04658040020000c00421e
:1022fc0080b500af054b9b7bdbb21a000223134069
:10230c005a425341dbb21800bd4680bd000c00425e
:10231c0080b588b000aff860b9607a603b601f236d
:10232c00fb1800221a700023bb61704b1b7fdbb2c1
:10233c0001225340dbb2002b00d1cfe0bb68002b55
:10234c0002d0fb68002b07d13b68002b00d1c5e005
:10235c007b68002b00d1c1e0654b5b680722134002
:10236c00012b11d1bb68002b03d0bb680122134099
:10237c0006d13b68002b07d03b680122134003d0e9
:10238c001f23fb181b78ace01f23fb1801221a70cb
:10239c00564bfa681a60554b7a685a60534b0022b8
:1023ac005a61524b00229a61504b00221a61fb6811
:1023bc00002b03d04d4bba689a6002e04b4b0022c5
:1023cc009a607b68002b03d0484b3a68da6002e0d5
:1023dc00464b0022da60454b01221a7703e0444b4e
:1023ec001b8b9bb2bb61424b9b7bdbb21a00042361
:1023fc001340042bf3d03e4b1b8a9bb23c4a042166
:10240c000b439bb21382394b9b687b61374bdb6868
:10241c007a699a4205d2354bda687b69d21a334b0a
:10242c001a61334b5b68072213401cd12f4b9b69fd
:10243c007a699a420ad92d4b1b681a782c4b1a834d
:10244c002a4b9b695a1c294b9a613de0274b1b690f
:10245c00002b39d0264bff221a83244b1b695a1ea2
:10246c00224b1a6130e0214b9b685a081f4b9a6033
:10247c001e4b1b695a081d4b1a611c4bdb685a0812
:10248c001a4bda60194b9b687b61184b9b697a6914
:10249c009a420dd9154b1b681b88154adb05db0dc1
:1024ac009bb21383114b9b695a1c104b9a610be026
:1024bc000e4b1b69002b07d00d4b0e4a1a830b4b8e
:1024cc001b695a1e094b1a613b68002b03d0084b41
:1024dc0004225a7302e0064b01225a731f23fb1885
:1024ec001b781800bd4608b080bdc04658040020bb
:1024fc00000c0042ff01000080b582b000af786094
:10250c0039603968786800230022fff701ff030067
:10251c001800bd4602b080bd80b582b000af7860b7
:10252c0039603b687a6800210020fff7f1fe030058
:10253c001800bd4602b080bd80b586b000af002348
:10254c00fb600023bb606a4b5b6a7b60694b5b7b07
:10255c00dbb2002b00d1c7e0664b5b68072213404f
:10256c00fb60634b5b697b61614b9b693b61604bbf
:10257c009b683b605f4b9b7bdbb21a0004231340d0
:10258c00042b21d15b4b1b8b9bb2bb60584bdb6884
:10259c007a699a4218d2fb68002b0ad1544b5a68bc
:1025ac007b69d318ba68d2b21a707b6901337b612c
:1025bc000ae04f4b5a687b695b00d318ba6892b239
:1025cc001a807b6901337b614a4b9b7bdbb21a001f
:1025dc0001231340012b57d1464b01221a73fb6880
:1025ec00002b1cd1424b9b683a699a420ad2404b51
:1025fc001a683b69d3181a783e4b1a833b6901332e
:10260c003b612ae03a4b1b69002b26d0394bff2249
:10261c001a83374b1b695a1e354b1a611de0344b1c
:10262c009b683a699a420bd2314b1a683b695b0042
:10263c00d318304a1b8813833b6901333b610ce090
:10264c002b4b1b69002b08d02a4b012252421a83b8
:10265c00274b1b695a1e264b1a61254b1b69002bf5
:10266c0007d13a693b689a4203d1234b01221a7075
:10267c000ae01f4bdb687a699a4205d11d4b012297
:10268c005a731c4b04221a73194b7a695a61184bf2
:10269c003a699a61174b9b7bdbb21a0002231340f9
:1026ac00022b1ad1144b1b78002b16d0104bdb6865
:1026bc007a699a4211d10e4b00221a770d4b0722e0
:1026cc001a730d4b00221a70094b1b6a002b04d095
:1026dc00074b1b6a7a6810009847074b1b78002b36
:1026ec0002d0044b02225a73c046bd4606b080bdd0
:0c26fc0058040020000c00428404002060
:020000040000fa
:1027080080b582b000affb1d00221a700f4b1b8ae8
:102718009ab23b1d07210a401a803b1d1b88002bdb
:1027280010d00a4b07221a8204e0084b1b8b9ab27e
:10273800fb1d1a70054b9b7bdbb21a000423134068
:10274800042bf2d0c046bd4602b080bd000800424e
:1027580080b500af154b164a1a60144b154a5a81ba
:10276800124bc02292025a60c046104b1b8a9bb281
:102778001a0080231b021a4080231b029a42f4d0bd
:102788000a4b1a68094b02210a431a60c046074bd4
:102798001b8a9bb21a0080231b021a4080231b024b
:1027a8009a42f4d0c046c046bd4680bd00080042eb
:1027b8000401104004c5ffff80b500af014b1800ad
:1027c800bd4680bd00127a00b0b588b000af786110
:1027d80039610f2310229b18db1900221a7000237d
:1027e800bb617b69002b00d19ae07b691b68002bd9
:1027f80000d195e03b69002b03d1fff7ddff030013
:102808003b617b691b681b013a699a421dd37b694e
:102818001b68bb600023fb60b968fa680b001b0be0
:10282800100005051d430b001c053b693b60002398
:102838007b603a687b682000290001f0f7fa020003
:102848000b0080235b029b1abb613a4b1a68394b19
:1028580002218a431a60c046364b1b8a9bb21a0073
:1028680080231b021a4080231b029a42f4d0314b6a
:10287800ba6992b25a817b695b68022b13d12d4bde
:102888001a682c4b2c490a401a602a4b5b6847226d
:10289800934319007b699a687b69db681a43254b67
:1028a8000a435a6018e0234b1b68234a1a40214bfd
:1028b800802149040a431a601e4b5b681f4a1a406c
:1028c8007b699b681a437b69db681a4311007b6943
:1028d8005a68184b0a435a60c046164b1b8a9bb26b
:1028e8001a0080231b021a4080231b029a42f4d04c
:1028f800104b1a680f4b02210a431a60c0460d4b51
:102908001b8a9bb21a0080231b021a4080231b02d9
:102918009a42f4d00f2310229b18db1901221a7057
:102928000f2310229b18db191b781800bd4608b02e
:10293800b0bdc04600080042fffffff0b8dfffff50
:1029480080b582b000af094b1b8a9ab2bb1d072124
:102958000a401a80bb1d1b88002b01d0fff7d0fe50
:10296800bb1d1b881800bd4602b080bd0008004290
:1029780080b500af0c4b1b680222134011d10a4be3
:102988001a68094b02210a431a60c046064b1b8a83
:102998009bb21a0080231b021a4080231b029a4212
:1029a800f4d0c046bd4680bd0008004280b500afe7
:1029b8000c4b1b680222134011d00a4b1a68094bb2
:1029c80002218a431a60c046064b1b8a9bb21a0032
:1029d80080231b021a4080231b029a42f4d0c0466f
:1029e800bd4680bd0008004280b500af0b4b5a6859
:1029f8000a4b802149020a435a60c046074b1b8a8a
:102a08009bb21a0080231b021a4080231b029a42a1
:102a1800f4d0c046c046bd4680bdc046000800424e
:102a280080b500af0a4b5a68094b0a490a405a60f8
:102a3800c046074b1b8a9bb21a0080231b021a4010
:102a480080231b029a42f4d0c046c046bd4680bdd2
:102a580000080042fffffeff80b586b000af786037
:102a680039601723fb1800221a707b68fb607b68ab
:102a7800bb6000233b617b68002b27d01ee0c0466b
:102a8800164b9b7bdbb21a0001231340f8d0134b83
:102a98005b6807221340012b06d0fa683b69d318fc
:102aa8001a780e4b1a8306e03b695b00ba68d318a4
:102ab8000a4a1b8813833b6901333b613a693b68c7
:102ac8009a42dcd31723fb1801221a701723fb182c
:102ad8001b781800bd4606b080bdc04600080042fd
:102ae80080b582b000affb1d00221a70084b9b7b9b
:102af800dbb21a0001231340012b02d1fb1d012276
:102b08001a70fb1d1b781800bd4602b080bdc04678
:102b18000008004280b582b000af7860c046074b1d
:102b28009b7bdbb21a0001231340f8d0034b7a6871
:102b380092b21a83c046bd4602b080bd000800426a
:102b480080b582b000affb1d00221a70084b9b7b3a
:102b5800dbb21a0002231340022b02d1fb1d012213
:102b68001a70fb1d1b781800bd4602b080bdc04618
:102b78000008004280b500af0b4b5a680a4b802111
:102b880089020a435a60c046074b1b8a9bb21a0047
:102b980080231b021a4080231b029a42f4d0c046ad
:102ba800c046bd4680bdc0460008004280b500afa3
:102bb8000a4b5a68094b0a490a405a60c046074bf3
:102bc8001b8a9bb21a0080231b021a4080231b0217
:102bd8009a42f4d0c046c046bd4680bd00080042b7
:102be800fffffdff80b588b000af786039601f2314
:102bf800fb1800221a707b687b617b683b610023ad
:102c0800bb610e23fb1800221a807b68002b3ed084
:102c1800fff776fd2de0c046204b9b7bdbb21a0008
:102c280004231340f8d01d4b1b8a9ab20e203b1880
:102c380007210a401a803b181b88002b1ed1174b0e
:102c48005b6807221340012b08d0144b1b8b99b2e9
:102c58007a69bb69d318cab21a7007e00f49bb6911
:102c68005b003a69d3180a8b92b21a80bb690133a8
:102c7800bb61ba693b689a42cdd300e0c0463a6866
:102c8800bb699a4203d11f23fb1801221a701f2324
:102c9800fb181b781800bd4608b080bd000800422c
:102ca80080b582b000affb1d00221a70084b9b7bd9
:102cb800dbb21a0004231340042b02d1fb1d0122ae
:102cc8001a70fb1d1b781800bd4602b080bdc046b7
:102cd8000008004280b500af024b1b8b9bb2180066
:082ce800bd4680bd000800425a
:020000040000fa
:102cf00080b500af024b80225a60c046bd4680bd01
:102d00000040004180b500af024b034a1a80c04624
:102d1000bd4680bd0040004146a5ffff80b586b09e
:102d200000aff860b9607a607b687b61ba687969e6
:102d3000fb68180001f0a6f901231800bd4606b093
:102d400080bd80b584b000af786039603b68bb60ff
:102d50000023fb600ce0fb689b007a68d3181a68bc
:102d6000bb681a60bb680433bb60fb680133fb605f
:102d7000fb680f2befd901231800bd4604b080bdbe
:102d800080b584b000af78600e217b1804221a80d1
:102d9000074b7a685208da61054a7b181b88054997
:102da0000b439bb2138001231800bd4604b080bdc5
:102db0000040004100a5ffff80b584b000af7860ff
:102dc00039603b68bb600023fb600ce0fb689b0044
:102dd0007a68d3181a68bb681a60bb680433bb6092
:102de000fb680133fb60fb680f2befd9054b3a689a
:102df0005208da61034b044a1a8001231800bd46c9
:102e000004b080bd0040004104a5ffff80b582b042
:102e100000af7860054b7a685208da61034b044ac8
:102e20001a8001231800bd4602b080bd0040004159
:102e300002a5ffff80b586b000af786039603b68bf
:102e40003b610f23fb1800221a703b68154a93421e
:102e500021d93b68144a93421dd800237b610ce0c2
:102e60007b699b007a68d3181a683b691a603b69d2
:102e700004333b617b6901337b617b690f2befd9a5
:102e80000a4b3a685208da61084b094a1a800f2344
:102e9000fb1801221a700f23fb181b781800bd467f
:102ea00006b080bdff3f8000c04080000040004170
:102eb00006a5ffff80b584b000af78600f217b18b6
:102ec00000221a707b680c4a93420dd97b680b4a2a
:102ed000934209d80a4b7a685208da61084b094aca
:102ee0001a807b1801221a700f23fb181b78180018
:102ef000bd4604b080bdc046ff3f80000041800059
:102f00000040004105a5ffff80b582b000af0c4b2b
:102f10001b8b9ab2bb1d1c210a401a80084b1b8bcd
:102f20009ab20749bb1d1b8813439bb20b83044b0a
:102f300002221a75bb1d1b881800bd4602b080bd59
:102f40000040004180b500af064b1b7ddbb21a008c
:102f500001231340013b5a1e9341dbb21800bd46ca
:102f600080bdc0460040004180b582b000af7860af
:102f7000054b7a685208da61034b044a1a80c0464e
:102f8000bd4602b080bdc0460040004140a5ffffe5
:102f900080b582b000af7860054b7a685208da617c
:102fa000034b044a1a80c046bd4602b080bdc046ed
:102fb0000040004141a5ffff80b500af024b034a2e
:102fc0001a80c046bd4680bd0040004145a5ffffb8
:020000040000fa
:102fd00080b582b000af0200fb1d1a70fb1d1b788c
:102fe0007f2b09d8fb1d1b781a001f231a40044ba6
:102ff000012191400a001a60c046bd4602b080bd62
:1030000000e100e080b582b000af0200fb1d1a7045
:10301000fb1d1b787f2b0bd8084b1a68fb1d1b78f8
:1030200019001f230b40da4013000122134000e077
:1030300000231800bd4602b080bdc04600e100e09c
:1030400080b582b000af0200fb1d1a70fb1d1b781b
:103050007f2b10d8fb1d1b781a001f231340084933
:1030600001229a40130080228b50bff34f8fc0463d
:10307000bff36f8fc046c046bd4602b080bdc0469c
:1030800000e100e090b583b000af02003960fb1da5
:103090001a70fb1d1b787f2b28d82f4afb1d1b782d
:1030a0005bb29b08c0339b009b58fa1d127811003d
:1030b00003220a40d200ff2191400a00d2431a4065
:1030c00011003b689b01ff221a40fb1d1b78180072
:1030d00003230340db009a401f48fb1d1b785bb2b3
:1030e0009b080a43c0339b001a5031e01b4afb1d6a
:1030f0001b7819000f230b40083b9b0806339b00ed
:10310000d31804331b68fa1d1278110003220a40f9
:10311000d200ff2191400a00d2431a4011003b68bf
:103120009b01ff221a40fb1d1b781800032303405c
:10313000db009a400948fb1d1b781c000f2323402d
:10314000083b9b080a4306339b00c31804331a60ec
:10315000c046bd4603b090bd00e100e000ed00e0d8
:1031600080b500afbff35f8fc04662b6c046032193
:103170000820fff787ff0820fff72affc046bd465b
:1031800080bd80b500afbff35f8fc04662b6c0465a
:10319000c046bd4680bd80b582b000afeff310835e
:1031a0003b603a68fb1d51424a411a7072b6c046f4
:1031b000bff35f8fc046fb1d1b781800bd4602b0f1
:1031c00080bd80b582b000af0200fb1d1a70fb1df0
:1031d0001b78002b04d0bff35f8fc04662b604e0bb
:1031e00072b6c046bff35f8fc046c046bd4602b050
:1031f00080bdb0b584b000af0200fb1d1a700f2572
:103200007c19fff7c8ff03002370fb1d1b785bb21e
:103210001800fff7f7fe02000e243b19511e8a41e9
:103220001a70fb1d1b785bb21800fff709ff7b19b2
:103230001b781800fff7c5ff3b191b781800bd4627
:1032400004b0b0bd80b582b000af0200fb1d1a70a3
:10325000bb1d0a1c1a70bb1d1b78002b06d0fb1d62
:103260001b785bb21800fff7b3fec046c046bd46f0
:0432700002b080bd6b
:020000040000fa
:1032740080b500af1c4b1d4a1a601b4b8022d20242
:103284001a61194a40230021d154174a41230021cd
:10329400d154154a48230121d154134a4923012109
:1032a400d154114a50230121d1540f4a51230121f1
:1032b400d1540d4a52230021d1540b4a53230121e6
:1032c400d154094a30230021d154074a34232221fe
:1032d400d154054a38232221d154034a39232021c9
:1032e400d154c046bd4680bd0044004103000400e3
:1032f40080b582b000af78607b681b6a1800bd4659
:1033040002b080bd80b584b000aff860b9607a6067
:10331400fb681b69ba68d2431a401100bb687a681b
:103324001a40fb680a431a61c046bd4604b080bd1a
:1033340080b582b000af78607b681b691800bd4619
:1033440002b080bd80b582b000af786039607b6820
:103354003a689a61c046bd4602b080bd80b582b06d
:1033640000af786039607b683a685a61c046bd46f0
:1033740002b080bd80b582b000af786039607b68f0
:103384003a68da61c046bd4602b080bd80b584b0fb
:1033940000af786039607b683a685a600023fb604c
:1033a4001ae03a68fb68da4013000122134010d097
:1033b4007a684021fb68d3185b181b78dbb27a6803
:1033c40002210b43d8b24021fb68d3185b18021cbe
:1033d4001a70fb680133fb60fb681f2be1d9c04600
:1033e400c046bd4604b080bd80b582b000af7860f1
:1033f40039607b683a689a60c046bd4602b080bdb9
:1034040080b586b000af0200bb1d1a807b1d0a1c6c
:103414001a707b1d1b783b61bb1d1b885b099bb22b
:10342400224a94466344db01fb60bb1d1b881f22b8
:103434001340bb60fa68bb685b083021d3185b1883
:103444001b78dbb27b61bb680122134008d07b6927
:10345400f02293431a003b691b0113437b6105e08f
:103464007b690f2293433a6913437b61fa68bb6813
:103474005b087969c8b23021d3185b18021c1a7032
:10348400fa684021bb68d3185b181b78dbb2fa6872
:1034940001210b43d8b24021bb68d3185b18021c2e
:1034a4001a70c046bd4606b080bdc0468800820082
:1034b40080b584b000af0200bb1d1a80bb1d1b8801
:1034c4005b099bb20f4a94466344db01fb60bb1d5e
:1034d4001b881f221340bb60fa684021bb68d318c5
:1034e4005b181b78dbb2fa6801218b43d8b2402108
:1034f400bb68d3185b18021c1a70c046bd4604b0e2
:0835040080bdc0468800820072
:020000040000fa
:10350c00880400201c00000000000000580400206b
:10351c002d00000000000000b80500200a0000008b
:10352c00010000005203001900010000000000001f
:10353c00c80400200300000000000000b8040020b4
:10354c0004000000000000000804002050000000ef
:10355c0000000000cc0400206c0000000100000002
:10356c00d8040020d4040020d8040020000000005f
:10357c0025000000080000200004000000000000ee
:10358c00000000000000000000000000000000002f
:10359c000000000000000000000000000f410000cf
:1035ac00000000000000000000000000000000000f
:1035bc008d3b000000000000000000000000000037
:1035cc0000000000000000000000000000000020cf
:1035dc0008040000000000009805002020000000f6
:1035ec0001000000010000000300000000000000ca
:1035fc0000000000000000000000000000000000bf
:10360c00b0040020b00400200800000000000000fe
:10361c00bc0400200400000000000000380500205d
:10362c006000000001000000010000000300000029
:10363c00000000000000000000000000000000007e
:10364c00000000004d3c00000000000000000000e5
:10365c0000000000f14000000f40000000000000de
:10366c00000000000000000000000000000000004e
:10367c00000000000000000000000000000000003e
:10368c000000000000000000c40500200400000041
:10369c000100000001000000c00400200800000030
:1036ac0000000000a40400200c000000000000003a
:1036bc0000000000000000006666666666666666ce
:020000040000fa
:1036cc00f0b506000f0015001c0085b08b4263d8c6
:1036dc0001d1824260d82100280000f0abfc3900f7
:1036ec000090300000f0a6fc009b21001b1a1a0071
:1036fc002800039300f092fc00900191b94245d848
:10370c0001d1b04242d8009b019c01200021039ab8
:10371c00f61aa74100f082fc04000d00039b002b5d
:10372c002bd0019b009adb0750081843019b5908ca
:10373c00039b9c46b9422cd801d1b04229d8320007
:10374c003b00121a8b41012692185b410027b618d8
:10375c005f4101235b429c446346002bead130005d
:10376c003900039a00f04efc039aa4197d4106001f
:10377c000f0000f053fc241a8d410a9b002b01d042
:10378c001e605f602000290005b0f0bd00240025fc
:0e379c00c4e7b6197f41dce700240025ede705
:020000040000fa
:0237aa00fee738
:020000040000fa
:1037ac0080b500af0a4b1b6a0a4a1a40084b02212b
:1037bc000a431a62c046064bdb6808221340082bea
:1037cc00f9d1034b00229a61c046bd4680bdc0466c
:1037dc00000800400000ffcf80b500af084b8322eb
:1037ec0052025a60c046064b5b78dbb21a0080234b
:1037fc001340802bf7d0c046c046bd4680bdc046a6
:10380c00000c004080b500af074b084a5a60c04618
:10381c00054b5b78dbb21a0080231340802bf7d06a
:10382c00c046c046bd4680bd000c004001060100ec
:10383c0080b500affff7b4fffff7cefffff7e2ff55
:10384c00084b094a5a80074b084a5a80084b1f22da
:10385c005a61074b1f22da61054b064a1a62c046b1
:10386c00bd4680bd000c00400d4000000e40000025
:08387c00000400400c000100f3
:020000040000fa
:10388400b0b586b000aff860b9607a6000237b61a0
:103894001323fb1800221a70fb68002b14d17b68d9
:1038a400002b11d013257c19bb6801211800fff7e8
:1038b4009bf9030023707b191b7801225340dbb270
:1038c400002befd101237b617b691800bd4606b054
:1038d400b0bdb0b586b000aff860b9607a601723a8
:1038e400fb1800221a70fb68012b10d117257c19d4
:1038f4007a68bb6811001800fff7b0f80300237062
:103904007b191b7801225340dbb2002beed17b687c
:083914001800bd4606b0b0bd6d
:020000040000fa
:10391c00002934d00123002210b488422cd3012476
:10392c002407a14204d2814202d209011b01f8e70b
:10393c00e400a14204d2814202d249005b00f8e7c4
:10394c00884201d3401a1a434c08a04202d3001bf0
:10395c005c0822438c08a04202d3001b9c08224323
:10396c00cc08a04202d3001bdc082243002803d061
:10397c001b0901d00909e3e7100010bc704701b521
:10398c00002000f0c3fb02bd0029f8d003b5fff7ff
:0c399c00c1ff0ebc4243891a1847c04608
:020000040000fa
:1039a800f0b51600040002278269436987b09b1aa4
:1039b80003939b19029204910596019302ad3a0074
:1039c8002900206800f0d0fa019b984208d1a3682a
:1039d800e268a3619a18a2626361300007b0f0bd83
:1039e80000280cda102200236168a3620a43a3614d
:1039f80063616260022f12d06b68f61aede7019bd3
:103a08001b1a01936b68984202d9c01a0835013f06
:103a18002b681b182b606b681b1a6b60cfe71e00a6
:023a2800dbe7da
:020000040000fa
:023a2a007047e3
:020000040000fa
:103a2c00f7b51d4f03003c68201e0dd0002221006d
:103a3c00100001920d68ac460d699c4509d1002a15
:103a4c0005d0156110310800febd2900f2e73d607c
:103a5c00f8e79c4506d9002802d00668b44501d287
:103a6c00080001920a00002defd10028ecd00500cf
:103a7c0002680169d21a1035102a05d90360eb18b7
:103a8c0019611900103a1a60844202d13960280079
:0c3a9c00dae7019b1961fae7c004002082
:020000040000fa
:103aa800f8b5866a04000f001500002e0ad0a36a34
:103ab80062699b1aab420cd22a0039002000fff73a
:103ac8006fff05e000f092fa03003000002beed003
:103ad800f8bd002df0d03422a256002a1bdb2b00a3
:103ae800d2b21e00013bf95c914212d1320039007a
:103af8002000fff755ff8642ead8bf19ae1b3200f7
:103b08003900606900f0bafa636928009b1963619b
:0a3b1800dee7002be5d12e00f1e7f7
:020000040000fa
:023b22007047ea
:020000040000fa
:103b240080b500af084b1b681b680021180000f02b
:103b3400bbfa064b1b681b680021180000f0b4fa9e
:103b4400c046bd4680bdc046d0040020b405002058
:103b540080b582b000af78600a4b06225a60fff746
:103b6400dffffff785fbfff767fefff7bff8fef700
:103b7400abfafef7effdfff7f1fac046bd4602b01f
:083b840080bdc0460040004175
:020000040000fa
:103b8c007fb51600c2680d0013000091591e8b41c1
:103b9c00f31a0193836804000392694602220068b9
:103bac00029300f0ccf9002808dc1822082102400e
:103bbc00514062680a43626004b070bd0199814251
:103bcc00fad2a268431ad3182364e368e263002b89
:103bdc0001d13000f0e7531ce3631378ad19013dbc
:043bec002b70f6e75d
:020000040000fa
:103bf00000230e4a10b513600d4a13600d4a13607e
:103c00000d4a13600d4a13600d4a5362136101336c
:103c1000936000f065fa00f0bef90a4c0a4b9c4232
:103c200000d310bd08cc9847f8e7c046bc0400207c
:103c30001404002010040020080400200c040020bc
:0c3c400018040020b0000000b4000000d8
:020000040000fa
:103c4c0070b504000d00002801d1002070bd436840
:103c5c009b0607d5426983699a4215d80023a36253
:103c6c00a3616361e36b216c8b4204d20122206857
:103c7c00591a00f048fa00232364e3639d42e4d010
:103c8c00206800f039fae1e70022c36a1100984776
:0c3c9c006369002be2d101204042d7e711
:020000040000fa
:103ca80037b5144d04002b68002b0fd000f070f9c5
:103cb800019001a800f0ccf90f230f300199984327
:103cc80000f086f900280bd000232b60002c00d1cf
:103cd80001340f230f349c4304d10c22064b1a6085
:103ce80000203ebd2000fff79dfe0028f9d0031fed
:0c3cf8001c60f6e7c4050020c404002096
:020000040000fa
:103d040070b5040016001d00022a1dd043689b06ee
:103d14001ad4002908d1002d01d18025ed002800f6
:103d24000830fff7bfff010020236268a16013433e
:103d34006360e5600a23012e01d001235b42220067
:103d440034321370014be362002070bda93a0000c5
:020000040000fa
:103d540070b5104d04002b68002b0cd0002c12da27
:103d64000d4a2b6812689b1a6242934208db28684a
:103d740004192c6006e000f0b5f82b68002bedd197
:103d84000120404270bd054b2a681b689b1aa34260
:103d9400eddaf5e7a4040020ac040020a804002018
:020000040000fa
:103da40010b5064c2378002b07d1054b002b02d00d
:103db400044800e000bf0123237010bd88040020e4
:103dc4000000000000000000044b10b5002b03d0dd
:103dd4000349044800e000bf10bdc04600000000d5
:083de4008c0400200000000027
:020000040000fa
:103dec0010b50a4b98470a4b984700f05bf8094b03
:103dfc00ff229343084a9360084b9847084b984717
:103e0c00084b9847fef718f8fee7c0462b3a00001f
:103e1c002b3a00000000000000ed00e0f13b000038
:083e2c002b3a00002b3a0000c4
:020000040000fa
:103e3400002b11d1002a0fd1002900d1002802d073
:103e44000021c943080007b4024802a140180290a7
:103e540003bdc046c102000003b4684601b5029820
:103e6400fff732fc019b9e4602b00cbc7047c04673
:020000040000fa
:103e74001c2101231b04984201d3000c10391b0a96
:103e8400984201d3000a08391b09984201d300095a
:103e9400043902a2105c40187047c04604030202b1
:0c3ea4000101010100000000000000000e
:020000040000fa
:103eb00010b50b480168002905d14368002b02d1d9
:103ec000fff72ffe10bd04008368064a9bb20c3436
:103ed0009b009b5842682000984780002018e9e723
:083ee0000c35000070400000e9
:020000040000fa
:103ee800074a1368002b01d1064b1360064b19686b
:103ef800002901d105491960054b12681a607047fd
:103f0800ac040020d0050020a8040020d007002021
:043f1800a4040020dd
:020000040000fa
:103f1c0001000022030048318a56501e02430a70e9
:103f2c005968042208001040114205d001200c32bf
:0e3f3c000a435a60404270471864d863fbe79e
:020000040000fa
:103f4a00f7b5002516000c002f000190b74201dbdf
:103f5a002800febd626821680198fff78efc0137d0
:063f6a002d180834f2e7f7
:020000040000fa
:103f7000f7b5002516000c002f000190b74201dbb9
:103f80002800febd626821680198fff7a4fc013794
:063f90002d180834f2e7d1
:020000040000fa
:023f9600704772
:020000040000fa
:103f980010b5054c2368002b01d1fff7a1ff034b97
:103fa80018682368c01a10bda4040020a8040020c3
:020000040000fa
:103fb800002310b5934206d103201840421e9041b9
:0e3fc8009b08c01810bdc45ccc540133f2e756
:020000040000fa
:023fd600704732
:020000040000fa
:103fd80003000020044a10b51468844203d113601a
:0c3fe80018611960013010bdc0040020f9
:020000040000fa
:103ff40010b50400fff790ff002805d1a368e2681c
:0a400400a36163619b18a36210bd65
:020000040000fa
:02400e007047f9
:020000040000fa
:10401000d0400b00d1409c46203ad3401843524236
:0840200063469340184370470a
:020000040000fa
:104028009140030090409c46203a934019435242e5
:084038006346d34019437047b1
:020000040000fa
:1040400010b5002903d1fff715ff203002e008006a
:08405000fff710ff10bdc04690
:020000040000fa
:10405800006810b5002801da002010bdfff776fed1
:06406800431cfad1f8e749
:020000040000fa
:10407000bf400000b93f00000b4100000b410000b1
:044080000b410000f0
:020000040000fa
:1040840010b5002a05d00023cc5cc45401339342fc
:04409400fad110bd90
:020000040000fa
:1040980010b500f02ff8024b1860586010bdc046ec
:0440a800b004002040
:020000040000fa
:1040ac0010b580234a424a41db005200fff724fe40
:0240bc0010bd35
:020000040000fa
:1040be008a18914201d10020704700230b70013104
:0240ce00f7e712
:020000040000fa
:1040d00080b500afc046fde780b500afc046fde744
:020000040000fa
:1040e00010b5fff7d9fffff776fffff774ff10bd9c
:020000040000fa
:0a40f00010b50068fff7effb10bdec
:020000040000fa
:0840fc00004870473805002060
:020000040000fa
:064104000120404270475b
:020000040000fa
:04410a0000207047da
:020000040000fa
:04410e0000207047d6
:020000040000fa
:0441120000207047d2
:020000040000fa
:044118007047c046e6
:020000040000fa
:0200000400807a
:0440000077c700d8a6
:020000040000fa
:0200000400807a
:044004005c01ffff5d
:00000001FF
