:020000040000fa
:10000000f00f002015330000f93500000136000024
:1000100000000000000000000000000000000000e0
:1000200000000000000000000000000003160000b7
:10003000000000000000000003160000031600008e
:10004000031600000316000003160000031600004c
:10005000031600000316000003160000031600003c
:100060007d1a0000031600000316000003160000ae
:10007000031600000316000003160000031600001c
:100080000316000003160000031600000000000025
:100090000000000003160000031600000316000015
:0400a0000316000043
:020000040000fa
:1000a400f8b5c046f8bc08bc9e467047f53200005f
:1000b400f8b5c046f8bc08bc9e467047cd32000077
:020000040000fa
:0800c400302b000001000000d8
:020000040000fa
:1000cc0080b584b000af78607a6813009b009b18f1
:1000dc009a009b185b01fb60c046fb685a1efa60d5
:1000ec00002bfad1c046c046bd4604b080bd80b5d9
:1000fc0084b000af0200fb1d1a700d4bfb6005e0d5
:10010c00fb68013bfb60fb68002b0cd0094b9b7b15
:10011c00dbb21a0001231340f2d0064afb1d1b78f8
:10012c009bb2138300e0c046bd4604b080bdc04600
:10013c0050c300000008004280b582b000af786068
:10014c000de07b681b780a2b02d10d20fff7cfff47
:10015c007b685a1c7a601b781800fff7c8ff7b6815
:10016c001b78002bedd1c046c046bd4602b080bd09
:10017c0080b586b000af786000237b617b68002b74
:10018c0019d13020fff7b3ff27e07b680a21180054
:10019c0002f08efe0b00dab27b69591c79613032a9
:1001ac00d1b20822ba18d1547b680a21180002f087
:1001bc0043fe03007b607b68002be6d10ae07b6981
:1001cc00013b7b610823fa187b69d3181b78180054
:1001dc00fff78dff7b69002bf1dcbd4606b080bdbf
:1001ec00b0b588b000af0200fb1d1a700c257b194e
:1001fc00124a13ca13c31168196012791a7130208c
:10020c00fff775ff7820fff772fffb1d1b781b09aa
:10021c00dbb21a000f2313407a19d35c1800fff7d6
:10022c0066fffb1d1b780f2213407a19d35c180054
:10023c00fff75dffc046bd4608b0b0bd2c0e0000f8
:10024c00b0b588b000af0200bb1d1a800c257b191d
:10025c001e4a13ca13c31168196012791a7130201f
:10026c00fff745ff7820fff742ffbb1d1b881b0bd8
:10027c009bb21a000f2313407a19d35c1800fff7b6
:10028c0036ffbb1d1b881b0a9bb21a000f231340a1
:10029c007a19d35c1800fff72affbb1d1b881b09ba
:1002ac009bb21a000f2313407a19d35c1800fff786
:1002bc001effbb1d1b880f2213407a19d35c18003c
:1002cc00fff715ffc046bd4608b0b0bd2c0e0000b0
:1002dc0080b584b000af0200bb1d1a800a23fb60fe
:1002ec0010e0bb1d1a88fb681a4113000122134051
:1002fc0001d0312300e030231800fff7f8fefb6833
:10030c00013bfb60fb68002bebdac046c046bd46e8
:10031c0004b080bd80b500af034b1800fff70cff95
:10032c00c046bd4680bdc046400e000080b500af43
:10033c00034b1800fff700ffc046bd4680bdc0460a
:10034c00800e000080b58ab000af78602623fb18c1
:10035c0000221a801223fb18624a1a800a233b627d
:10036c0033e07b681b881a003b6a1a411300dab22f
:10037c000d203b1801210a401a7026217b181b887e
:10038c009b0b9bb25bb2012213405ab23b181b78f9
:10039c005bb253405ab20c203b181a707b181b8866
:1003ac00db189ab27b185204520c1a803b181b783b
:1003bc00002b07d07b1879181222ba1809881288da
:1003cc004a401a803b6a013b3b623b6a002bc8da0d
:1003dc000323fb6133e07b689b781a00fb691a41ad
:1003ec001300dab20f203b1801210a401a702621a3
:1003fc007b181b889b0b9bb25bb2012213405ab239
:10040c003b181b785bb253405ab20e203b181a7043
:10041c007b181b88db189ab27b185204520c1a807a
:10042c003b181b78002b07d07b1879181222ba18ae
:10043c00098812884a401a80fb69013bfb61fb6901
:10044c00002bc8da0023bb613fe007237b6136e059
:10045c007a68bb69d31803331b781a007b691a417d
:10046c001300dab211203b1801210a401a70262120
:10047c007b181b889b0b9bb25bb2012213405ab2b8
:10048c003b181b785bb253405ab210203b181a70c1
:10049c007b181b88db189ab27b185204520c1a80fa
:1004ac003b181b78002b07d07b1879181222ba182e
:1004bc00098812884a401a807b69013b7b617b6901
:1004cc00002bc5dabb690133bb617b689b781a00d2
:1004dc00bb699342b9db2623fb181b881800bd4669
:1004ec000ab080bd9945000080b500af524b1b8807
:1004fc0001339ab2504b1a80504b1b78032b60d0af
:10050c0000dd8ce0022b4bd000dd88e0002b02d00c
:10051c00012b15d083e04a4b4a4a1a804a4b0022e1
:10052c001a704a4b01221a70434b1b880a2b00d8b5
:10053c006ee0424b01221a703f4b00221a8067e09a
:10054c00424b00221a70404b1b78452b05d83e4b72
:10055c001b780a33dab23c4b1a703b4b1b781a1cd3
:10056c001201d31adb189bb2fa2292009446634410
:10057c009ab2334b1a80364b1b784f2b05d8344b21
:10058c001b780533dab2324b1a70314b1b784f2b78
:10059c0040d92a4b02221a70274b00221a8039e0cc
:1005ac00294b1e221a70264b2a4a1a80224b1b8872
:1005bc000f2b31d9214b03221a701f4b00221a80aa
:1005cc002ae0214b00221a70204b01221a701c4b7e
:1005dc001a88c8239b009a4205d9194b1b88c83b23
:1005ec009ab2174b1a801a4b1b78002b05d0184b5c
:1005fc001b780a3bdab2164b1a70154b1b78002b82
:10060c000cd10e4b00221a700b4b00221a8005e005
:10061c00c04604e0c04602e0c04600e0c0460e4bb7
:10062c001b78592b05d80c4b1b780133dab20a4bcb
:10063c001a70c046bd4680bdba040020bc04002020
:10064c00bc05002052030000b9040020bf050020a7
:10065c00b804002098080000be05002080b586b0c4
:10066c0000aff860b9607a604a4b01225a614a4b7c
:10067c001800fff761fdfff759fe484b1800fff714
:10068c005bfdbb681800fff757fd434b1800fff7e5
:10069c0053fdfff74bfe404b1800fff74dfd404b51
:1006ac001800fff749fdfb681b881800fff7c8fd11
:1006bc003c4b1800fff740fdfb681b881800fff748
:1006cc0057fd394b1800fff737fd384b1800fff773
:1006dc0033fdfb681b881800fff7fafd344b18003c
:1006ec00fff72afd334b1800fff726fdfb689b78bc
:1006fc001800fff73dfd304b1800fff71dfd2f4b89
:10070c001800fff719fd00237b6114e0fa687b6980
:10071c00d31803331b781800fff762fdfb689b7836
:10072c00013b7a699a4203da254b1800fff704fd66
:10073c007b6901337b61fb689b781a007b69934270
:10074c00e4db154b1800fff7f7fc1e4b1800fff706
:10075c00f3fcfb689b891800fff772fd1a4b18001d
:10076c00fff7eafc194b1800fff7e6fc7b68180052
:10077c00fff7e2fc084b1800fff7defcfff7cafda1
:10078c006420fff79dfc034b01229a61c046bd46d5
:10079c0006b080bd00440041c00e0000c40e000035
:1007ac00d80e0000e80e0000f80e0000fc0e000051
:1007bc000c0f0000240f0000340f0000400f00004d
:1007cc00500f0000540f0000640f0000680f000071
:1007dc0080b588b000af8b4b02225a618a4b18004f
:1007ec00fff7aafc894b1800fff7a6fc884b1800f2
:1007fc00fff7a2fc874b1800fff79efc864b1b886b
:10080c001800fff7b5fc844b1a88fa239b009a4218
:10081c000dd2814b1b88632b07d87f4b1b88092b70
:10082c0001d9032304e0042302e0022300e00123a6
:10083c00bb600023fb6105e02020fff758fcfb693f
:10084c000133fb61fa69bb689a42f5db734b180004
:10085c00fff772fc704b1b88c8225100180002f085
:10086c00ebfa03009bb27b600023bb6111e0ba6919
:10087c007b689a4206dabb690e2b01dc232302e06b
:10088c00212300e02d231800fff731fcbb69013355
:10089c00bb61bb69132beadd614b1800fff74cfc05
:1008ac00604b1800fff748fc5f4b1b781800fff7f4
:1008bc005ffc5d4b1b78632b07d85b4b1b78092bbc
:1008cc0001d9032302e0042300e00223bb600023d0
:1008dc007b6105e02020fff70afc7b6901337b611b
:1008ec007a69bb689a42f5db504b1800fff724fc81
:1008fc004f4b1800fff720fc4e4b1b781800fff7ee
:10090c0037fc4c4b1b78632b07d84a4b1b78092bb5
:10091c0001d9032302e0042300e00223bb6000237f
:10092c003b6105e02020fff7e2fb3b6901333b61b3
:10093c003a69bb689a42f5db3f4b1800fff7fcfbaa
:10094c003c4b1b783b2b04d83c4b1800fff7f4fbbb
:10095c000ce0384b1b78642b04d9394b1800fff78b
:10096c00ebfb03e0374b1800fff7e6fb364b1800a8
:10097c00fff7e2fb354b1800fff7defb344b1b781f
:10098c001800fff7f5fb324b1b78632b07d8304b65
:10099c001b78092b01d9032302e0042300e0022376
:1009ac00bb600023fb6005e02020fff7a0fbfb6889
:1009bc000133fb60fa68bb689a42f5db254b1800e3
:1009cc00fff7bafb244b1b78002b01d0234b00e024
:1009dc00234b1800fff7b0fb224b1800fff7acfbc2
:1009ec000b4b1800fff7a8fb1f4b1800fff7a4fbdd
:1009fc006420fff765fb034b02229a61c046bd469b
:100a0c0008b080bd00440041c00e0000780f00000b
:100a1c00b00f0000e80f0000bc050020f80f00002c
:100a2c00fc0f000004100000b8040020141000009b
:100a3c0034100000be050020441000004c100000d3
:100a4c00641000007c10000094100000981000004e
:100a5c00b9040020a8100000bf050020b810000049
:100a6c00bc100000c0100000d410000090b59bb06a
:100a7c0000af002002f0fcfa00237b6614e0b94bb7
:100a8c0001225a61b74b02229a619620fff718fb9c
:100a9c00b44b01229a61b34b02225a619620fff7a4
:100aac000ffb7b6e01337b667b6e022be7ddad4b60
:100abc0001229a61ab4b02229a61ab4b1800fff7f3
:100acc003bfbfff733fca94b1800fff735fbfff797
:100adc002dfca74b1800fff72ffba64b1800fff7b8
:100aec002bfba54b1800fff727fba14b1800fff7ba
:100afc0023fba24b1800fff71ffba14b1800fff7bd
:100b0c001bfba04b1800fff717fb9f4b1800fff7c0
:100b1c0013fb974b1800fff70ffb9c4b1800fff7cc
:100b2c000bfb9b4b1800fff707fb9a4b1800fff7ca
:100b3c0003fb994b1800fff7fffa984b1800fff7cf
:100b4c00fbfa974b1800fff7f7fa894b1800fff7e1
:100b5c00f3fa944b1800fff7effa934b1800fff7da
:100b6c00ebfa924b1800fff7e7fa814b1800fff7ee
:100b7c00e3fafff7dbfb8e4b1800fff7ddfafff70c
:100b8c00d5fb8c4b1800fff79bfa00233b66fff755
:100b9c00abfc3b6e03221340032b00d1b6e000d913
:100bac00d7e0022b71d000d9d3e0002b02d0012b5f
:100bbc003cd0cee050217b18c0221a807b18022238
:100bcc009a707d4b1b881b0a9bb2dab27b18da70c9
:100bdc00794b1b88dab27b181a710c007b18180041
:100bec00fff7b0fb03001a003b199a81734b1800f6
:100bfc00fff7a2fa724b1800fff79efa5c4b180035
:100c0c00fff79afa6f4a70493b191800fff726fd57
:100c1c006e4b1800fff790fa674b1b881800fff714
:100c2c00a7fa534b1800fff787fa92e050243b19b0
:100c3c00d0221a803b1901229a70654b1a783b1905
:100c4c00da703b191800fff77dfb03001a003b1903
:100c5c009a815a4b1800fff76ffa5e4b1800fff79a
:100c6c006bfa5d4a5d493b191800fff7f7fc5c4bca
:100c7c001800fff761fa564b1b781800fff778fa4b
:100c8c00584b1800fff758fa63e050243b19f02238
:100c9c001a803b1902229a70534b1a783b19da705e
:100cac00524b1a783b191a713b191800fff74afb83
:100cbc0003001a003b199a81404b1800fff73cfacd
:100ccc004b4b1800fff738fa4a4a4b493b191800ae
:100cdc00fff7c4fc494b1800fff72efa424b1b7868
:100cec001800fff745fa464b1800fff725fa3f4b63
:100cfc001b78002b01d0434b00e0434b1800fff74f
:100d0c001bfa1b4b1800fff717fa22e02b4b1800ad
:100d1c00fff712fa3d4b1800fff70efafff758fddc
:100d2c00134b1800fff708fa394b1800fff704fab9
:100d3c00384b1800fff700fa0d4b1800fff7fcf9c1
:100d4c00354b1800fff7f8f9344b1800fff7f4f99e
:100d5c00c0463b6e01333b66fa23db001800fff7fd
:100d6c00aff914e7004400410c1100001011000011
:100d7c00c00e00003c110000701100009c1100001e
:100d8c00b4110000e0110000081200003012000045
:100d9c005012000080120000b0120000e01200009f
:100dac00081300001c130000301300005c1300003b
:100dbc0084130000b80b0000bc050020640f000079
:100dcc00a0130000c0130000e0130000f813000093
:100ddc00b804002010140000341400004c1400005f
:100dec006814000080140000b9040020bf05002026
:100dfc0088140000b0140000d8140000f81400008f
:100e0c001415000020150000bc1000002415000073
:100e1c005415000084150000b0150000dc1500000e
:020000040000fa
:100e2c003031323334353637383941424344454614
:100e3c00000000002d2d2d2d2d2d2d2d2d2d2d2d8a
:100e4c002d2d2d2d2d2d2d2d2d2d2d2d2d2d2d2dc6
:100e5c002d2d2d2d2d2d2d2d2d2d2d2d2d2d2d2db6
:100e6c002d2d2d2d2d2d2d2d2d2d2d2d2d2d2d2da6
:100e7c000a0000003d3d3d3d3d3d3d3d3d3d3d3d80
:100e8c003d3d3d3d3d3d3d3d3d3d3d3d3d3d3d3d86
:100e9c003d3d3d3d3d3d3d3d3d3d3d3d3d3d3d3d76
:100eac003d3d3d3d3d3d3d3d3d3d3d3d3d3d3d3d66
:100ebc000a0000000a00000020205452414e534dfd
:100ecc00495454494e473a20000000002020434129
:100edc004e2049443a202020202000002020286465
:100eec006563696d616c3a2000000000290a0000fe
:100efc00202042696e6172793a2020202020000067
:100f0c0020202831312d626974207374616e646104
:100f1c007264204944290a002020444c433a202082
:100f2c00202020202020000020627974652873295d
:100f3c000a0000002020446174613a202020202007
:100f4c00202000002000000020204352432d31358a
:100f5c003a202020202000000a0a000020204d45c5
:100f6c00414e494e473a2020202000002b2d2d2d9c
:100f7c002d2d2d2d2d2d2d2d2d2d2d2d2d2d2d5b67
:100f8c002044415348424f415244205d2d2d2d2d7c
:100f9c002d2d2d2d2d2d2d2d2d2d2d2d2d2d2b0a9a
:100fac00000000007c202020202020202020202059
:100fbc002020202020202020202020202020202025
:100fcc002020202020202020202020202020202015
:100fdc002020202020207c0a000000007c202052b1
:100fec00504d3a20202020202000000020205b00c3
:100ffc005d20207c0a0000007c2020535045454495
:10100c003a20202020000000206b6d2f682020202b
:10101c0020202020202020202020202020202020c4
:10102c00202020207c0a00007c2020434f4f4c4184
:10103c004e543a20200000002043202020000000c5
:10104c005b5741524d494e472055505d2020202082
:10105c0020202020202000005b4f5645524845415f
:10106c0054215d2020202020202020202020000042
:10107c005b4e4f524d414c5d2020202020202020e3
:10108c0020202020202000007c0a00007c202054fe
:10109c0048524f54544c453a200000002025202043
:1010ac0020204252414b453a200000004f4e200078
:1010bc004f464600202020202020202020202020c9
:1010cc00202020207c0a00002b2d2d2d2d2d2d2da8
:1010dc002d2d2d2d2d2d2d2d2d2d2d2d2d2d2d2d34
:1010ec002d2d2d2d2d2d2d2d2d2d2d2d2d2d2d2d24
:1010fc002d2d2d2d2d2d2d2d2d2d2b0a00000000ed
:10110c000a0a0a002020202020202043414e2042a1
:10111c0055532050524f544f434f4c202d20454493
:10112c0055434154494f4e414c2044454d4f0a00c4
:10113c002020546869732064656d6f2073696d7528
:10114c006c6174657320612056656869636c6520f9
:10115c00454355207472616e736d697474696e6762
:10116c000a000000202043414e206d6573736167b7
:10117c006573206f6e20616e206175746f6d6f7476
:10118c00697665206e6574776f726b2e0a000000ad
:10119c0020205748415420594f552057494c4c203a
:1011ac005345453a0a00000020202d204561636814
:1011bc002043414e206672616d652077697468200a
:1011cc0049442c20446174612c20616e642043528c
:1011dc00430a000020202d20546865206d65616e47
:1011ec00696e67206f662074686520646174612085
:1011fc006265696e672073656e740a0020202d206d
:10120c00412064617368626f6172642073686f77e8
:10121c00696e67206465636f6465642076616c75c4
:10122c0065730a00202056454849434c45205349d4
:10123c004d554c4154494f4e204359434c453a0a65
:10124c00000000002020312e2049646c65202020f5
:10125c002020202d3e20456e67696e65206174202c
:10126c003835302052504d2c2073746f707065647b
:10127c000a0000002020322e20416363656c6572e9
:10128c006174652d3e205468726f74746c652075a2
:10129c00702c20737065656420696e637265617370
:1012ac0065730a002020332e204372756973652004
:1012bc002020202d3e205374656164792038302025
:1012cc006b6d2f6820617420323230302052504dbb
:1012dc000a0000002020342e204272616b65202011
:1012ec002020202d3e20536c6f77696e6720646f31
:1012fc00776e20746f2073746f700a00202028435f
:10130c0079636c652072657065617473290a0000dd
:10131c0020204c454420494e44494341544f52539c
:10132c003a0a000020202d204c45443120626c6983
:10133c006e6b73203d2043414e206672616d6520bb
:10134c007472616e736d69747465640a00000000d8
:10135c0020202d204c45443220626c696e6b73202a
:10136c003d2044617368626f6172642075706461c2
:10137c007465640a00000000202053746172746963
:10138c006e6720696e2033207365636f6e64732ef5
:10139c002e2e0a003e3e3e2053656e64696e672019
:1013ac00454e47494e452052504d20646174612e84
:1013bc002e2e0a0052504d203d2028446174615b52
:1013cc00305d203c3c203829207c20446174615bda
:1013dc00315d0000454e47494e452052504d202866
:1013ec0049443a20307830433029000020204445cd
:1013fc00434f4445443a2020202052504d203d205c
:10140c00000000003e3e3e2053656e64696e67200e
:10141c0056454849434c452053504545442064614a
:10142c0074612e2e2e0a0000537065656420696e5f
:10143c00206b6d2f68203d20446174615b305d0032
:10144c0056454849434c452053504545442028496e
:10145c00443a2030783044302900000020204445a4
:10146c00434f4445443a2020202053706565642046
:10147c003d200000206b6d2f680a00003e3e3e2090
:10148c0053656e64696e67205448524f54544c45f2
:10149c002026204252414b4520646174612e2e2e31
:1014ac000a0000005468726f74746c6525203d202e
:1014bc00446174615b305d2c204272616b65203d30
:1014cc0020446174615b315d000000005448524f50
:1014dc0054544c452026204252414b452028494427
:1014ec003a20307830463029000000002020444556
:1014fc00434f4445443a202020205468726f747442
:10150c006c65203d20000000252c204272616b652b
:10151c00203d20004f4e00003e3e3e205570646141
:10152c0074696e672044415348424f4152442077be
:10153c00697468207265636569766564206461749a
:10154c00612e2e2e0a000000202054686520646154
:10155c007368626f6172642061626f766520736874
:10156c006f77732064617461204445434f44454454
:10157c002066726f6d0a000020207468652043415c
:10158c004e206d657373616765732073656e74208f
:10159c0062792074686520456e67696e65204543e5
:1015ac00552e0a002020496e2061207265616c2046
:1015bc006361722c206d756c7469706c6520454389
:1015cc00557320636f6d6d756e69636174650a0088
:1015dc0020207468697320776179206f766572209a
:1015ec007468652043414e20627573206e65747774
:0615fc006f726b2e0a0065
:020000040000fa
:02160200fee701
:020000040000fa
:1016040080b500af184b00221a62174b00221a77dc
:10161400154b00229a60144b0022da60134b80228f
:1016240092025a60c046114b1b8a9bb21a00802357
:101634001b021a4080231b029a42f4d00b4b072250
:101644009a720a4b0a4a1a60c046084b1b8a9bb21c
:101654001a0080231b021a4080231b029a42f4d0f2
:10166400c046c046bd4680bd58040020000c004260
:101674000e00300080b584b000af7860396000237c
:10168400fb600b23fb1800221a703b68002b01d16e
:101694003d4b3b603d4b1a683c4b02218a431a6028
:1016a4003b4b0022da603a4b00229a60c046374b2b
:1016b4001b8a9bb21a0080231b021a4080231b0240
:1016c4009a42f4d07b68002b45d07b681a683b684b
:1016d4005b089a423fd87b681b685b001900386836
:1016e40001f0aefb0300013bfb60fb68fe2b01d95c
:1016f400ff23fb60254b1a68244b26490a401a60d5
:10170400224b19687b689a687b685b681a431f4b95
:101714000a431a601d4bfa68d2b29a721b4b5a687c
:101724001a4b07218a435a60184b59687b68da6858
:10173400164b0a435a60c046144b1b8a9bb21a00cc
:1017440080231b021a4080231b029a42f4d00b23ed
:10175400fb1801221a700d4b1a680c4b02210a4324
:101764001a60c046094b1b8a9bb21a0080231b02d5
:101774001a4080231b029a42f4d00b23fb181b78d7
:101784001800bd4604b080bd00127a00000c00426f
:1017940058040020ffffffcf80b582b000af78600f
:1017a4003960054b7a681a62034b3a685a62c0463c
:1017b400bd4602b080bdc0465804002080b584b048
:1017c40000af0f217b1800221a70174b9b68bb6077
:1017d400fb1d154a127f1a70134bdb68002b06d1d0
:1017e400bb68002b03d17b1800221a7014e00f4b46
:1017f4009b7bdbb21a000223134003d0fb1d1b7832
:10180400002b01d0012200e000220f23fb181a70e4
:101814001a7801210a401a700f23fb181b7818004c
:10182400bd4604b080bdc04658040020000c0042f0
:1018340080b500af054b9b7bdbb21a00022313403b
:101844005a425341dbb21800bd4680bd000c004231
:1018540080b588b000aff860b9607a603b601f2340
:10186400fb1800221a700023bb61704b1b7fdbb294
:1018740001225340dbb2002b00d1cfe0bb68002b28
:1018840002d0fb68002b07d13b68002b00d1c5e0d8
:101894007b68002b00d1c1e0654b5b6807221340d5
:1018a400012b11d1bb68002b03d0bb68012213406c
:1018b40006d13b68002b07d03b680122134003d0bc
:1018c4001f23fb181b78ace01f23fb1801221a709e
:1018d400564bfa681a60554b7a685a60534b00228b
:1018e4005a61524b00229a61504b00221a61fb68e4
:1018f400002b03d04d4bba689a6002e04b4b002298
:101904009a607b68002b03d0484b3a68da6002e0a7
:10191400464b0022da60454b01221a7703e0444b20
:101924001b8b9bb2bb61424b9b7bdbb21a00042333
:101934001340042bf3d03e4b1b8a9bb23c4a042138
:101944000b439bb21382394b9b687b61374bdb683b
:101954007a699a4205d2354bda687b69d21a334bdd
:101964001a61334b5b68072213401cd12f4b9b69d0
:101974007a699a420ad92d4b1b681a782c4b1a8320
:101984002a4b9b695a1c294b9a613de0274b1b69e2
:10199400002b39d0264bff221a83244b1b695a1e75
:1019a400224b1a6130e0214b9b685a081f4b9a6006
:1019b4001e4b1b695a081d4b1a611c4bdb685a08e5
:1019c4001a4bda60194b9b687b61184b9b697a69e7
:1019d4009a420dd9154b1b681b88154adb05db0d94
:1019e4009bb21383114b9b695a1c104b9a610be0f9
:1019f4000e4b1b69002b07d00d4b0e4a1a830b4b61
:101a04001b695a1e094b1a613b68002b03d0084b13
:101a140004225a7302e0064b01225a731f23fb1857
:101a24001b781800bd4608b080bdc046580400208d
:101a3400000c0042ff01000080b582b000af786066
:101a440039603968786800230022fff701ff03003a
:101a54001800bd4602b080bd80b582b000af78608a
:101a640039603b687a6800210020fff7f1fe03002b
:101a74001800bd4602b080bd80b586b000af00231b
:101a8400fb600023bb606a4b5b6a7b60694b5b7bda
:101a9400dbb2002b00d1c7e0664b5b680722134022
:101aa400fb60634b5b697b61614b9b693b61604b92
:101ab4009b683b605f4b9b7bdbb21a0004231340a3
:101ac400042b21d15b4b1b8b9bb2bb60584bdb6857
:101ad4007a699a4218d2fb68002b0ad1544b5a688f
:101ae4007b69d318ba68d2b21a707b6901337b61ff
:101af4000ae04f4b5a687b695b00d318ba6892b20c
:101b04001a807b6901337b614a4b9b7bdbb21a00f1
:101b140001231340012b57d1464b01221a73fb6852
:101b2400002b1cd1424b9b683a699a420ad2404b23
:101b34001a683b69d3181a783e4b1a833b69013300
:101b44003b612ae03a4b1b69002b26d0394bff221c
:101b54001a83374b1b695a1e354b1a611de0344bef
:101b64009b683a699a420bd2314b1a683b695b0015
:101b7400d318304a1b8813833b6901333b610ce063
:101b84002b4b1b69002b08d02a4b012252421a838b
:101b9400274b1b695a1e264b1a61254b1b69002bc8
:101ba40007d13a693b689a4203d1234b01221a7048
:101bb4000ae01f4bdb687a699a4205d11d4b01226a
:101bc4005a731c4b04221a73194b7a695a61184bc5
:101bd4003a699a61174b9b7bdbb21a0002231340cc
:101be400022b1ad1144b1b78002b16d0104bdb6838
:101bf4007a699a4211d10e4b00221a770d4b0722b3
:101c04001a730d4b00221a70094b1b6a002b04d067
:101c1400074b1b6a7a6810009847074b1b78002b08
:101c240002d0044b02225a73c046bd4606b080bda2
:0c1c340058040020000c00428404002032
:020000040000fa
:101c400080b582b000affb1d00221a700f4b1b8abb
:101c50009ab23b1d07210a401a803b1d1b88002bae
:101c600010d00a4b07221a8204e0084b1b8b9ab251
:101c7000fb1d1a70054b9b7bdbb21a00042313403b
:101c8000042bf2d0c046bd4602b080bd0008004221
:101c900080b500af154b164a1a60144b154a5a818d
:101ca000124bc02292025a60c046104b1b8a9bb254
:101cb0001a0080231b021a4080231b029a42f4d090
:101cc0000a4b1a68094b02210a431a60c046074ba7
:101cd0001b8a9bb21a0080231b021a4080231b021e
:101ce0009a42f4d0c046c046bd4680bd00080042be
:101cf0000401104004c5ffff80b500af014b180080
:101d0000bd4680bd00127a00b0b588b000af7861e2
:101d100039610f2310229b18db1900221a7000234f
:101d2000bb617b69002b00d19ae07b691b68002bab
:101d300000d195e03b69002b03d1fff7ddff0300e5
:101d40003b617b691b681b013a699a421dd37b6921
:101d50001b68bb600023fb60b968fa680b001b0bb3
:101d6000100005051d430b001c053b693b6000236b
:101d70007b603a687b682000290001f0effa0200de
:101d80000b0080235b029b1abb613a4b1a68394bec
:101d900002218a431a60c046364b1b8a9bb21a0046
:101da00080231b021a4080231b029a42f4d0314b3d
:101db000ba6992b25a817b695b68022b13d12d4bb1
:101dc0001a682c4b2c490a401a602a4b5b68472240
:101dd000934319007b699a687b69db681a43254b3a
:101de0000a435a6018e0234b1b68234a1a40214bd0
:101df000802149040a431a601e4b5b681f4a1a403f
:101e00007b699b681a437b69db681a4311007b6915
:101e10005a68184b0a435a60c046164b1b8a9bb23d
:101e20001a0080231b021a4080231b029a42f4d01e
:101e3000104b1a680f4b02210a431a60c0460d4b23
:101e40001b8a9bb21a0080231b021a4080231b02ac
:101e50009a42f4d00f2310229b18db1901221a702a
:101e60000f2310229b18db191b781800bd4608b001
:101e7000b0bdc04600080042fffffff0b8dfffff23
:101e800080b582b000af094b1b8a9ab2bb1d0721f7
:101e90000a401a80bb1d1b88002b01d0fff7d0fe23
:101ea000bb1d1b881800bd4602b080bd0008004263
:101eb00080b500af0c4b1b680222134011d10a4bb6
:101ec0001a68094b02210a431a60c046064b1b8a56
:101ed0009bb21a0080231b021a4080231b029a42e5
:101ee000f4d0c046bd4680bd0008004280b500afba
:101ef0000c4b1b680222134011d00a4b1a68094b85
:101f000002218a431a60c046064b1b8a9bb21a0004
:101f100080231b021a4080231b029a42f4d0c04641
:101f2000bd4680bd0008004280b500af0b4b5a682b
:101f30000a4b802149020a435a60c046074b1b8a5c
:101f40009bb21a0080231b021a4080231b029a4274
:101f5000f4d0c046c046bd4680bdc0460008004221
:101f600080b500af0a4b5a68094b0a490a405a60cb
:101f7000c046074b1b8a9bb21a0080231b021a40e3
:101f800080231b029a42f4d0c046c046bd4680bda5
:101f900000080042fffffeff80b586b000af78600a
:101fa00039601723fb1800221a707b68fb607b687e
:101fb000bb6000233b617b68002b27d01ee0c0463e
:101fc000164b9b7bdbb21a0001231340f8d0134b56
:101fd0005b6807221340012b06d0fa683b69d318cf
:101fe0001a780e4b1a8306e03b695b00ba68d31877
:101ff0000a4a1b8813833b6901333b613a693b689a
:102000009a42dcd31723fb1801221a701723fb18fe
:102010001b781800bd4606b080bdc04600080042cf
:1020200080b582b000affb1d00221a70084b9b7b6d
:10203000dbb21a0001231340012b02d1fb1d012248
:102040001a70fb1d1b781800bd4602b080bdc0464b
:102050000008004280b582b000af7860c046074bf0
:102060009b7bdbb21a0001231340f8d0034b7a6844
:1020700092b21a83c046bd4602b080bd000800423d
:1020800080b582b000affb1d00221a70084b9b7b0d
:10209000dbb21a0002231340022b02d1fb1d0122e6
:1020a0001a70fb1d1b781800bd4602b080bdc046eb
:1020b0000008004280b500af0b4b5a680a4b8021e4
:1020c00089020a435a60c046074b1b8a9bb21a001a
:1020d00080231b021a4080231b029a42f4d0c04680
:1020e000c046bd4680bdc0460008004280b500af76
:1020f0000a4b5a68094b0a490a405a60c046074bc6
:102100001b8a9bb21a0080231b021a4080231b02e9
:102110009a42f4d0c046c046bd4680bd0008004289
:10212000fffffdff80b588b000af786039601f23e6
:10213000fb1800221a707b687b617b683b6100237f
:10214000bb610e23fb1800221a807b68002b3ed057
:10215000fff776fd2de0c046204b9b7bdbb21a00db
:1021600004231340f8d01d4b1b8a9ab20e203b1853
:1021700007210a401a803b181b88002b1ed1174be1
:102180005b6807221340012b08d0144b1b8b99b2bc
:102190007a69bb69d318cab21a7007e00f49bb69e4
:1021a0005b003a69d3180a8b92b21a80bb6901337b
:1021b000bb61ba693b689a42cdd300e0c0463a6839
:1021c000bb699a4203d11f23fb1801221a701f23f7
:1021d000fb181b781800bd4608b080bd00080042ff
:1021e00080b582b000affb1d00221a70084b9b7bac
:1021f000dbb21a0004231340042b02d1fb1d012281
:102200001a70fb1d1b781800bd4602b080bdc04689
:102210000008004280b500af024b1b8b9bb2180038
:08222000bd4680bd000800422c
:020000040000fa
:1022280080b500af024b80225a60c046bd4680bdd3
:102238000040004180b500af024b034a1a80c046f7
:10224800bd4680bd0040004146a5ffff80b586b071
:1022580000aff860b9607a607b687b61ba687969b9
:10226800fb68180001f09ef901231800bd4606b06e
:1022780080bd80b584b000af786039603b68bb60d2
:102288000023fb600ce0fb689b007a68d3181a688f
:10229800bb681a60bb680433bb60fb680133fb6032
:1022a800fb680f2befd901231800bd4604b080bd91
:1022b80080b584b000af78600e217b1804221a80a4
:1022c800074b7a685208da61054a7b181b8805496a
:1022d8000b439bb2138001231800bd4604b080bd98
:1022e8000040004100a5ffff80b584b000af7860d2
:1022f80039603b68bb600023fb600ce0fb689b0017
:102308007a68d3181a68bb681a60bb680433bb6064
:10231800fb680133fb60fb680f2befd9054b3a686c
:102328005208da61034b044a1a8001231800bd469b
:1023380004b080bd0040004104a5ffff80b582b015
:1023480000af7860054b7a685208da61034b044a9b
:102358001a8001231800bd4602b080bd004000412c
:1023680002a5ffff80b586b000af786039603b6892
:102378003b610f23fb1800221a703b68154a9342f1
:1023880021d93b68144a93421dd800237b610ce095
:102398007b699b007a68d3181a683b691a603b69a5
:1023a80004333b617b6901337b617b690f2befd978
:1023b8000a4b3a685208da61084b094a1a800f2317
:1023c800fb1801221a700f23fb181b781800bd4652
:1023d80006b080bdff3f8000c04080000040004143
:1023e80006a5ffff80b584b000af78600f217b1889
:1023f80000221a707b680c4a93420dd97b680b4afd
:10240800934209d80a4b7a685208da61084b094a9c
:102418001a807b1801221a700f23fb181b781800ea
:10242800bd4604b080bdc046ff3f8000004180002b
:102438000040004105a5ffff80b582b000af0c4bfe
:102448001b8b9ab2bb1d1c210a401a80084b1b8ba0
:102458009ab20749bb1d1b8813439bb20b83044bdd
:1024680002221a75bb1d1b881800bd4602b080bd2c
:102478000040004180b500af064b1b7ddbb21a005f
:1024880001231340013b5a1e9341dbb21800bd469d
:1024980080bdc0460040004180b582b000af786082
:1024a800054b7a685208da61034b044a1a80c04621
:1024b800bd4602b080bdc0460040004140a5ffffb8
:1024c80080b582b000af7860054b7a685208da614f
:1024d800034b044a1a80c046bd4602b080bdc046c0
:1024e8000040004141a5ffff80b500af024b034a01
:1024f8001a80c046bd4680bd0040004145a5ffff8b
:020000040000fa
:1025080080b582b000af0200fb1d1a70fb1d1b785e
:102518007f2b09d8fb1d1b781a001f231a40044b78
:10252800012191400a001a60c046bd4602b080bd34
:1025380000e100e080b582b000af0200fb1d1a7018
:10254800fb1d1b787f2b0bd8084b1a68fb1d1b78cb
:1025580019001f230b40da4013000122134000e04a
:1025680000231800bd4602b080bdc04600e100e06f
:1025780080b582b000af0200fb1d1a70fb1d1b78ee
:102588007f2b10d8fb1d1b781a001f231340084906
:1025980001229a40130080228b50bff34f8fc04610
:1025a800bff36f8fc046c046bd4602b080bdc0466f
:1025b80000e100e090b583b000af02003960fb1d78
:1025c8001a70fb1d1b787f2b28d82f4afb1d1b7800
:1025d8005bb29b08c0339b009b58fa1d1278110010
:1025e80003220a40d200ff2191400a00d2431a4038
:1025f80011003b689b01ff221a40fb1d1b78180045
:1026080003230340db009a401f48fb1d1b785bb285
:102618009b080a43c0339b001a5031e01b4afb1d3c
:102628001b7819000f230b40083b9b0806339b00bf
:10263800d31804331b68fa1d1278110003220a40cc
:10264800d200ff2191400a00d2431a4011003b6892
:102658009b01ff221a40fb1d1b781800032303402f
:10266800db009a400948fb1d1b781c000f23234000
:10267800083b9b080a4306339b00c31804331a60bf
:10268800c046bd4603b090bd00e100e000ed00e0ab
:1026980080b500afbff35f8fc04662b6c046032166
:1026a8000820fff787ff0820fff72affc046bd462e
:1026b80080bd80b500afbff35f8fc04662b6c0462d
:1026c800c046bd4680bd80b582b000afeff3108331
:1026d8003b603a68fb1d51424a411a7072b6c046c7
:1026e800bff35f8fc046fb1d1b781800bd4602b0c4
:1026f80080bd80b582b000af0200fb1d1a70fb1dc3
:102708001b78002b04d0bff35f8fc04662b604e08d
:1027180072b6c046bff35f8fc046c046bd4602b022
:1027280080bdb0b584b000af0200fb1d1a700f2544
:102738007c19fff7c8ff03002370fb1d1b785bb2f1
:102748001800fff7f7fe02000e243b19511e8a41bc
:102758001a70fb1d1b785bb21800fff709ff7b1985
:102768001b781800fff7c5ff3b191b781800bd46fa
:1027780004b0b0bd80b582b000af0200fb1d1a7076
:10278800bb1d0a1c1a70bb1d1b78002b06d0fb1d35
:102798001b785bb21800fff7b3fec046c046bd46c3
:0427a80002b080bd3e
:020000040000fa
:1027ac0080b500af1c4b1d4a1a601b4b8022d20215
:1027bc001a61194a40230021d154174a41230021a0
:1027cc00d154154a48230121d154134a49230121dc
:1027dc00d154114a50230121d1540f4a51230121c4
:1027ec00d1540d4a52230021d1540b4a53230121b9
:1027fc00d154094a30230021d154074a34232221d1
:10280c00d154054a38232221d154034a392320219b
:10281c00d154c046bd4680bd0044004103000400b5
:10282c0080b582b000af78607b681b6a1800bd462b
:10283c0002b080bd80b584b000aff860b9607a603a
:10284c00fb681b69ba68d2431a401100bb687a68ee
:10285c001a40fb680a431a61c046bd4604b080bded
:10286c0080b582b000af78607b681b691800bd46ec
:10287c0002b080bd80b582b000af786039607b68f3
:10288c003a689a61c046bd4602b080bd80b582b040
:10289c0000af786039607b683a685a61c046bd46c3
:1028ac0002b080bd80b582b000af786039607b68c3
:1028bc003a68da61c046bd4602b080bd80b584b0ce
:1028cc0000af786039607b683a685a600023fb601f
:1028dc001ae03a68fb68da4013000122134010d06a
:1028ec007a684021fb68d3185b181b78dbb27a68d6
:1028fc0002210b43d8b24021fb68d3185b18021c91
:10290c001a70fb680133fb60fb681f2be1d9c046d2
:10291c00c046bd4604b080bd80b582b000af7860c3
:10292c0039607b683a689a60c046bd4602b080bd8b
:10293c0080b586b000af0200bb1d1a807b1d0a1c3f
:10294c001a707b1d1b783b61bb1d1b885b099bb2fe
:10295c00224a94466344db01fb60bb1d1b881f228b
:10296c001340bb60fa68bb685b083021d3185b1856
:10297c001b78dbb27b61bb680122134008d07b69fa
:10298c00f02293431a003b691b0113437b6105e062
:10299c007b690f2293433a6913437b61fa68bb68e6
:1029ac005b087969c8b23021d3185b18021c1a7005
:1029bc00fa684021bb68d3185b181b78dbb2fa6845
:1029cc0001210b43d8b24021bb68d3185b18021c01
:1029dc001a70c046bd4606b080bdc0468800820055
:1029ec0080b584b000af0200bb1d1a80bb1d1b88d4
:1029fc005b099bb20f4a94466344db01fb60bb1d31
:102a0c001b881f221340bb60fa684021bb68d31897
:102a1c005b181b78dbb2fa6801218b43d8b24021da
:102a2c00bb68d3185b18021c1a70c046bd4604b0b4
:082a3c0080bdc0468800820045
:020000040000fa
:102a4400880400201c00000000000000580400203e
:102a54002d00000000000000bc0500200400000060
:102a64000100000052032d01b804002005000000fd
:102a740000000000c004002004000000000000006a
:102a8400080400205000000000000000d0040020d2
:102a94006c00000001000000dc040020d8040020c9
:102aa400dc040020000000002500000008000020d5
:102ab400000400000000000000000000000000000e
:102ac4000000000000000000000000000000000002
:102ad4000000000037360000000000000000000085
:102ae4000000000000000000b530000000000000fd
:102af40000000000000000000000000000000000d2
:102b04000000000000000020080400000000000095
:102b14009c050020200000000100000001000000ce
:102b2400030000000000000000000000000000009e
:102b34000000000000000000b0040020b0040020e9
:102b44000800000000000000c4040020040000008d
:102b5400000000003c0500206000000001000000af
:102b6400010000000300000000000000000000005d
:102b740000000000000000000000000075310000ab
:102b840000000000000000000000000019360000f2
:102b9400ff340000000000000000000000000000fe
:102ba4000000000000000000000000000000000021
:102bb4000000000000000000000000000000000011
:102bc400c005002004000000010000000100000016
:102bd400c80400200800000000000000a404002035
:102be4000c000000000000000000000000000000d5
:020000040000fa
:102bf400f0b506000f0015001c0085b08b4263d8a9
:102c040001d1824260d82100280000f0abfc3900d9
:102c14000090300000f0a6fc009b21001b1a1a0053
:102c24002800039300f092fc00900191b94245d82a
:102c340001d1b04242d8009b019c01200021039a9b
:102c4400f61aa74100f082fc04000d00039b002b40
:102c54002bd0019b009adb0750081843019b5908ad
:102c6400039b9c46b9422cd801d1b04229d83200ea
:102c74003b00121a8b41012692185b410027b618bb
:102c84005f4101235b429c446346002bead1300040
:102c94003900039a00f04efc039aa4197d41060002
:102ca4000f0000f053fc241a8d410a9b002b01d025
:102cb4001e605f602000290005b0f0bd00240025df
:0e2cc400c4e7b6197f41dce700240025ede7e8
:020000040000fa
:022cd200704749
:020000040000fa
:102cd40080b500af0a4b1b6a0a4a1a40084b02210e
:102ce4000a431a62c046064bdb6808221340082bcd
:102cf400f9d1034b00229a61c046bd4680bdc0464f
:102d0400000800400000ffcf80b500af084b8322cd
:102d140052025a60c046064b5b78dbb21a0080232d
:102d24001340802bf7d0c046c046bd4680bdc04688
:102d3400000c004080b500af074b084a5a60c046fb
:102d4400054b5b78dbb21a0080231340802bf7d04d
:102d5400c046c046bd4680bd000c004001060100cf
:102d640080b500affff7b4fffff7cefffff7e2ff38
:102d7400084b094a5a80074b084a5a80084b1f22bd
:102d84005a61074b1f22da61054b064a1a62c04694
:102d9400bd4680bd000c00400d4000000e40000008
:082da400000400400c000100d6
:020000040000fa
:102dac00b0b586b000aff860b9607a6000237b6183
:102dbc001323fb1800221a70fb68002b14d17b68bc
:102dcc00002b11d013257c19bb6801211800fff7cb
:102ddc00a3f9030023707b191b7801225340dbb24b
:102dec00002befd101237b617b691800bd4606b037
:102dfc00b0bdb0b586b000aff860b9607a6017238b
:102e0c00fb1800221a70fb68012b10d117257c19b6
:102e1c007a68bb6811001800fff7b8f8030023703c
:102e2c007b191b7801225340dbb2002beed17b685f
:082e3c001800bd4606b0b0bd50
:020000040000fa
:102e4400002934d00123002210b488422cd3012459
:102e54002407a14204d2814202d209011b01f8e7ee
:102e6400e400a14204d2814202d249005b00f8e7a7
:102e7400884201d3401a1a434c08a04202d3001bd3
:102e84005c0822438c08a04202d3001b9c08224306
:102e9400cc08a04202d3001bdc082243002803d044
:102ea4001b0901d00909e3e7100010bc704701b504
:102eb400002000f0c3fb02bd0029f8d003b5fff7e2
:0c2ec400c1ff0ebc4243891a1847c046eb
:020000040000fa
:102ed000f0b51600040002278269436987b09b1a87
:102ee00003939b19029204910596019302ad3a0057
:102ef0002900206800f0d0fa019b984208d1a3680d
:102f0000e268a3619a18a2626361300007b0f0bd65
:102f100000280cda102200236168a3620a43a3612f
:102f200063616260022f12d06b68f61aede7019bb5
:102f30001b1a01936b68984202d9c01a0835013fe9
:102f40002b681b182b606b681b1a6b60cfe71e0089
:022f5000dbe7bd
:020000040000fa
:022f52007047c6
:020000040000fa
:102f5400f7b51d4f03003c68201e0dd00022210050
:102f6400100001920d68ac460d699c4509d1002af8
:102f740005d0156110310800febd2900f2e73d605f
:102f8400f8e79c4506d9002802d00668b44501d26a
:102f9400080001920a00002defd10028ecd00500b2
:102fa40002680169d21a1035102a05d90360eb189a
:102fb40019611900103a1a60844202d1396028005c
:0c2fc400dae7019b1961fae7c80400205d
:020000040000fa
:102fd000f8b5866a04000f001500002e0ad0a36a17
:102fe00062699b1aab420cd22a0039002000fff71d
:102ff0006fff05e000f092fa03003000002beed0e6
:10300000f8bd002df0d03422a256002a1bdb2b0085
:10301000d2b21e00013bf95c914212d1320039005c
:103020002000fff755ff8642ead8bf19ae1b3200d9
:103030003900606900f0bafa636928009b1963617e
:0a304000dee7002be5d12e00f1e7da
:020000040000fa
:02304a007047cd
:020000040000fa
:10304c0080b500af084b1b681b680021180000f00e
:10305c00bbfa064b1b681b680021180000f0b4fa81
:10306c00c046bd4680bdc046d4040020b805002033
:10307c0080b582b000af78600a4b06225a60fff729
:10308c00dffffff78dfbfff767fefff7c7f8fef7d3
:10309c00b3fafef7f7fdfff7f9fac046bd4602b0ea
:0830ac0080bdc0460040004158
:020000040000fa
:1030b4007fb51600c2680d0013000091591e8b41a4
:1030c400f31a01938368040003926946022200689c
:1030d400029300f0ccf9002808dc182208210240f1
:1030e400514062680a43626004b070bd0199814234
:1030f400fad2a268431ad3182364e368e263002b6c
:1031040001d13000f0e7531ce3631378ad19013d9e
:043114002b70f6e73f
:020000040000fa
:1031180000230e4a10b513600d4a13600d4a136060
:103128000d4a13600d4a13600d4a5362136101334f
:10313800936000f065fafff784ff0a4c0a4b9c4243
:1031480000d310bd08cc9847f8e7c046c404002057
:103158001404002010040020080400200c0400209f
:0c31680018040020b0000000b4000000bb
:020000040000fa
:1031740070b504000d00002801d1002070bd436823
:103184009b0607d5426983699a4215d80023a36236
:10319400a3616361e36b216c8b4204d2012220683a
:1031a400591a00f048fa00232364e3639d42e4d0f3
:1031b400206800f039fae1e70022c36a1100984759
:0c31c4006369002be2d101204042d7e7f4
:020000040000fa
:1031d00037b5144d04002b68002b0fd000f070f9a8
:1031e000019001a800f0ccf90f230f30019998430a
:1031f00000f086f900280bd000232b60002c00d1b2
:1032000001340f230f349c4304d10c22064b1a6067
:1032100000203ebd2000fff79dfe0028f9d0031fcf
:0c3220001c60f6e7c0050020cc04002074
:020000040000fa
:10322c0070b5040016001d00022a1dd043689b06d1
:10323c001ad4002908d1002d01d18025ed002800d9
:10324c000830fff7bfff010020236268a160134321
:10325c006360e5600a23012e01d001235b4222004a
:10326c0034321370014be362002070bdd12f00008b
:020000040000fa
:10327c0070b5104d04002b68002b0cd0002c12da0a
:10328c000d4a2b6812689b1a6242934208db28682d
:10329c0004192c6006e000f0b5f82b68002bedd17a
:1032ac000120404270bd054b2a681b689b1aa34243
:1032bc00eddaf5e7a4040020ac040020a8040020fb
:020000040000fa
:1032cc0010b5064c2378002b07d1054b002b02d0f0
:1032dc00044800e000bf0123237010bd88040020c7
:1032ec000000000000000000044b10b5002b03d0c0
:1032fc000349044800e000bf10bdc04600000000b8
:08330c008c0400200000000009
:020000040000fa
:1033140010b50a4b98470a4b984700f05bf8094be5
:10332400ff229343084a9360084b9847084b9847f9
:10333400084b9847fdf79efbfee7c046d32c0000e0
:10334400d32c00000000000000ed00e01931000063
:08335400d32c0000d32c000073
:020000040000fa
:10335c00002b11d1002a0fd1002900d1002802d056
:10336c000021c943080007b4024802a1401802908a
:10337c0003bdc046c102000003b4684601b5029803
:10338c00fff732fc019b9e4602b00cbc7047c04656
:020000040000fa
:10339c001c2101231b04984201d3000c10391b0a79
:1033ac00984201d3000a08391b09984201d300093d
:1033bc00043902a2105c40187047c0460403020294
:0c33cc00010101010000000000000000f1
:020000040000fa
:1033d80010b50b480168002905d14368002b02d1bc
:1033e800fff7b3fd10bd04008368064a9bb20c3496
:1033f8009b009b5842682000984780002018e9e706
:08340800442a00009835000081
:020000040000fa
:10341000074a1368002b01d1064b1360064b19684d
:10342000002901d105491960054b12681a607047df
:10343000ac040020c8050020a8040020c807002014
:04344000a4040020c0
:020000040000fa
:1034440001000022030048318a56501e02430a70cc
:103454005968042208001040114205d001200c32a2
:0e3464000a435a60404270471864d863fbe781
:020000040000fa
:10347200f7b5002516000c002f000190b74201dbc2
:103482002800febd626821680198fff78efc0137b3
:063492002d180834f2e7da
:020000040000fa
:10349800f7b5002516000c002f000190b74201db9c
:1034a8002800febd626821680198fff7a4fc013777
:0634b8002d180834f2e7b4
:020000040000fa
:0234be00704755
:020000040000fa
:1034c00010b5054c2368002b01d1fff7a1ff034b7a
:1034d00018682368c01a10bda4040020a8040020a6
:020000040000fa
:1034e000002310b5934206d103201840421e90419c
:0e34f0009b08c01810bdc45ccc540133f2e739
:020000040000fa
:0234fe00704715
:020000040000fa
:1035000003000020044a10b51468844203d11360fc
:0c35100018611960013010bdc8040020d3
:020000040000fa
:10351c0010b50400fff790ff002805d1a368e268fe
:0a352c00a36163619b18a36210bd48
:020000040000fa
:10353800d0400b00d1409c46203ad3401843524219
:083548006346934018437047ed
:020000040000fa
:103550009140030090409c46203a934019435242c8
:083560006346d3401943704794
:020000040000fa
:1035680010b5002903d1fff715ff203002e008004d
:08357800fff710ff10bdc04673
:020000040000fa
:10358000006810b5002801da002010bdfff776feb4
:06359000431cfad1f8e72c
:020000040000fa
:10359800e7350000e1340000333600003336000020
:0435a80033360000b6
:020000040000fa
:1035ac0010b5002a05d00023cc5cc45401339342df
:0435bc00fad110bd73
:020000040000fa
:1035c00010b500f02ff8024b1860586010bdc046cf
:0435d000b004002023
:020000040000fa
:1035d40010b580234a424a41db005200fff724fe23
:0235e40010bd18
:020000040000fa
:1035e6008a18914201d10020704700230b700131e7
:0235f600f7e7f5
:020000040000fa
:1035f80080b500afc046fde780b500afc046fde727
:020000040000fa
:1036080010b5fff7d9fffff756fffff754ff10bdbe
:020000040000fa
:0a36180010b50068fff7effb10bdce
:020000040000fa
:08362400004870473c0500203e
:020000040000fa
:06362c000120404270473e
:020000040000fa
:0436320000207047bd
:020000040000fa
:0436360000207047b9
:020000040000fa
:04363a0000207047b5
:020000040000fa
:043640007047c046c9
:020000040000fa
:0200000400807a
:0440000077c700d8a6
:020000040000fa
:0200000400807a
:044004005c01ffff5d
:00000001FF
