:020000040000fa
:10000000f80f0020493800002d3b0000353b000070
:1000100000000000000000000000000000000000e0
:10002000000000000000000000000000333200006b
:1000300000000000000000003332000033320000f6
:10004000333200003332000033320000333200001c
:10005000333200003332000033320000333200000c
:100060003d1600003332000033320000333200000e
:1000700033320000333200003332000033320000ec
:100080003332000033320000333200000000000041
:100090000000000033320000333200003332000031
:0400a00033320000f7
:020000040000fa
:1000a400f8b5c046f8bc08bc9e4670472938000025
:1000b400f8b5c046f8bc08bc9e467047013800003d
:020000040000fa
:0800c400903000000100000073
:020000040000fa
:1000cc0080b584b000af78607b685b00fb60c04695
:1000dc00fb685a1efa60002bfad1c046c046bd46da
:1000ec0004b080bd80b584b000af78600023fb60a5
:1000fc0007e0fa239b001800fff7e2fffb680133cf
:10010c00fb60fa687b689a42f3d3c046c046bd4692
:10011c0004b080bd80b584b000af0200fb1d1a7026
:10012c000c4bfb6005e0fb68013bfb60fb68002ba4
:10013c000cd0094b9b7bdbb21a0001231340f2d08d
:10014c00054afb1d1b789bb2138300e0c046bd46dd
:10015c0004b080bd50c300000008004280b582b0de
:10016c0000af78600de07b681b780a2b02d10d2064
:10017c00fff7d0ff7b685a1c7a601b781800fff7da
:10018c00c9ff7b681b78002bedd1c046c046bd462d
:10019c0002b080bd80b582b000af78607b6818007b
:1001ac00fff7dcff034b1800fff7d8ffc046bd4636
:1001bc0002b080bde81d000080b586b000af78604d
:1001cc0000237b617b68002b05da2d20fff7a2ff53
:1001dc007b685b427b607b68002b19d13020fff77a
:1001ec0099ff27e07b680a21180003f067f80b00e1
:1001fc00dab27b69591c79613032d1b20822ba1853
:10020c00d1547b680a21180003f00ef803007b60c0
:10021c007b68002be6dc0ae07b69013b7b610823f1
:10022c00fa187b69d3181b781800fff773ff7b69ea
:10023c00002bf1dcbd4606b080bd90b589b000af97
:10024c0002003960bb1d1a800823fb18134a13ca1d
:10025c0013c31168196012791a71114b1800fff74a
:10026c007dff3b68013b9b00fb610fe0bb1d1a88c7
:10027c00fb691a4113000f2213400822ba18d35cf1
:10028c001800fff747fffb69043bfb61fb69002b80
:10029c00ecdac046c046bd4609b090bdf01d00006a
:1002ac00ec1d000080b586b000af7860396000238b
:1002bc007b617b683b613b69002b02d101237b6135
:1002cc0016e03b69002b10da7b6901337b613b69db
:1002dc005b423b6109e07b6901337b613b690a212d
:1002ec00180002f0a1ff03003b613b69002bf2dc1c
:1002fc007b681800fff760ff7b69fb6005e020203e
:10030c00fff708fffb680133fb60fa683b689a4211
:10031c00f5dbc046c046bd4606b080bd80b500af1b
:10032c00034b1800fff71affc046bd4680bdc04600
:10033c00041e000080b500af0a49882280239b0070
:10034c008b50084b30229a600649942280239b00e4
:10035c008b50044b10225a61024b20225a61c0462a
:10036c00bd4680bd0044004180b500af06499422d3
:10037c0080239b008b50044b10225a61024b20228d
:10038c005a61c046bd4680bd0044004180b500aff7
:10039c000649982280239b008b50044b10225a61f3
:1003ac00024b20225a61c046bd4680bd004400412c
:1003bc0080b500af0649942280239b008b50044be0
:1003cc0010229a61024b20225a61c046bd4680bd64
:1003dc000044004180b500af0649942280239b0065
:1003ec008b50044b10225a61024b20229a61c0465a
:1003fc00bd4680bd0044004180b500af064998223f
:10040c0080239b008b50044b10229a61024b2022bc
:10041c005a61c046bd4680bd0044004180b500af66
:10042c000649942280239b008b50044b10229a6126
:10043c00024b20229a61c046bd4680bd004400415b
:10044c0080b500af0649982280239b008b50044b4b
:10045c0010225a61024b20229a61c046bd4680bdd3
:10046c000044004180b500af0649982280239b00d0
:10047c008b50044b10229a61024b20229a61c04689
:10048c00bd4680bd0044004180b586b000af02007f
:10049c00bb1d1a803b1d0a1c1a80bb1d1b88190032
:1004ac00174802f0c1fe03003b61bb1d1b883a1dbf
:1004bc0012885343fa229100180002f055ff0300f2
:1004cc00fb6000237b6112e00e4b8022d2019a610b
:1004dc003b691800fff7f4fd0a4b8022d2015a61e8
:1004ec003b691800fff7ecfd7b6901337b617a698e
:1004fc00fb689a42e8d3c046c046bd4606b080bdf4
:10050c0020a107000044004180b500afc0235b016f
:10051c001900012002f0a4fa02f0cefac04602f053
:10052c005bfb03001a0001235340dbb2002bf6d116
:10053c0002f018fb03001a0064235343044918000b
:10054c0002f012ff0300dbb21800bd4680bdc046ae
:10055c00ff0f000080b500af0e4984228023db0022
:10056c008b500c4aca230621d1540a499822802365
:10057c00db008b50074b802212025a60054a4f2336
:10058c000621d154034b802212029a61c046bd460b
:10059c0080bdc0460044004180b500af054aa02391
:1005ac00d3589b0a012213405a425341dbb2180024
:1005bc00bd4680bd0044004180b500af054b1b6ab1
:1005cc00db0b012213405a425341dbb21800bd46eb
:1005dc0080bdc0460044004190b589b000af3a6080
:1005ec00bb1d021c1a807b1d0a1c1a701e23fb18d3
:1005fc0000221a800a23bb6128e0bb1d1a88bb6944
:10060c001a4113005ab21e203b181b889b0b9bb23d
:10061c005bb253405bb2dab209243b1901210a40a8
:10062c001a703b181b88db189ab23b185204520cf8
:10063c001a803b191b78002b05d03b183a181288ee
:10064c003d494a401a80bb69013bbb61bb69002b29
:10065c00d3da03237b6128e07b1d1a787b691a416e
:10066c0013005ab21e203b181b889b0b9bb25bb22b
:10067c0053405bb2dab20a243b1901210a401a70ca
:10068c003b181b88db189ab23b185204520c1a8088
:10069c003b191b78002b05d03b183a1812882649b9
:1006ac004a401a807b69013b7b617b69002bd3da62
:1006bc0000233b6134e00723fb602be03b693a6885
:1006cc00d3181b781a00fb681a4113005ab21e206b
:1006dc003b181b889b0b9bb25bb253405bb2dab2ec
:1006ec000b243b1901210a401a703b181b88db189c
:1006fc009ab23b185204520c1a803b191b78002bef
:10070c0005d03b183a1812880b494a401a80fb68ee
:10071c00013bfb60fb68002bd0da3b6901333b618a
:10072c007b1d1b783a699a42c5db1e23fb181b887c
:10073c001800bd4609b090bd9945000090b583b036
:10074c0000affc1dfff728ff03002370bc1dfff753
:10075c0033ff03002370fff7d7fe03001a00b14be1
:10076c001a70fb1d1b78002b03d1bb1d1b78002bb3
:10077c0002d0ad4b01221a70fb1d1b78002b24d02c
:10078c00bb1d1b7801225340dbb2002b1dd0a74ba5
:10079c0000221a70a64b802212019a61a54b1b886d
:1007ac00a54a934205d8a34b1b8864339ab2a14b3c
:1007bc001a80a24b1b78b32b00d90ae19f4b1b78f4
:1007cc000333dab29d4b1a7003e1bb1d1b78002b6f
:1007dc0028d0fb1d1b7801225340dbb2002b21d00b
:1007ec00924b01221a70924b802212015a61914b4a
:1007fc001a88c8239b009a4205d98e4b1b88963bbe
:10080c009ab28c4b1a808d4b1b78002b06d08b4bdd
:10081c001b78053bdab2894b1a70dae0874b002261
:10082c001a70d6e0814b00221a70814b8022120183
:10083c009a617d4b1b78002b36d07a4b1b78142b8e
:10084c001ad9784b1b781a00282353439bb2c82221
:10085c009200944663449ab2764b1a80774b1a787e
:10086c00704b1b789a4200d3b3e0744b1b78013366
:10087c00dab2724b1a70ace06e4b1a88c8239b002c
:10088c009a4205d96b4b1b881e3b9ab2694b1a8056
:10089c006a4b1b78002b00d19be0684b1b78013b0b
:1008ac00dab2664b1a7094e0654b1b8801339ab22e
:1008bc00634b1a80634b1b78002b14d15d4b624a3f
:1008cc001a805e4b00221a70564b00221a705c4b39
:1008dc001b88052b00d87ce05a4b01221a70584b10
:1008ec0000221a8075e0574b1b78012b2cd14d4bf5
:1008fc001b78452b05d84b4b1b780a33dab2494b86
:10090c001a70484b1b781a1c1201d31adb189bb2b5
:10091c00fa229200944663449ab2464b1a80474b93
:10092c001b784f2b05d8454b1b780533dab2434b5c
:10093c001a70424b1b784f2b4bd9424b02221a7028
:10094c003f4b00221a8044e03e4b1b78022b13d104
:10095c00384b3e4a1a80394b50221a70314b1e22aa
:10096c001a70374b1b88082b33d9364b03221a705d
:10097c00334b00221a802ce02a4b00221a702b4b8e
:10098c0001221a702b4b1a88c8239b009a4205d956
:10099c00284b1b88963b9ab2264b1a80274b1b7808
:1009ac00002b06d0254b1b78083bdab2234b1a7070
:1009bc0005e0224b00221a701c4b00221a701f4bb0
:1009cc001b78002b05d11f4b00221a701c4b0022e8
:1009dc001a80164b1b78002b02d0fff7d7fc1de0ba
:1009ec00164b1b78642b02d9fff706fd16e0134b50
:1009fc001b783c2b02d9fff7dbfc0fe00f4b1b786d
:100a0c00142b02d9fff70afd08e00c4b1b78002bc6
:100a1c0002d0fff7dffc01e0fff724fdc046bd4626
:100a2c0003b090bdb9040020bb040020ba04002020
:100a3c0000440041860400206f170000b804002019
:100a4c00bc040020be0400205203000098080000e3
:100a5c0080b500af0b4b1800fff79cfb0a4b18003e
:100a6c00fff798fb094b1800fff794fb064b180097
:100a7c00fff790fb034b1800fff78cfbc046bd46fd
:100a8c0080bdc0460c1e0000101e0000501e000051
:100a9c0080b500af094b1800fff77cfb084b180022
:100aac00fff778fb074b1800fff774fb064b180099
:100abc00fff770fbc046bd4680bdc046881e0000d7
:100acc00941e0000c41e00000c1e000080b500af78
:100adc003c4b1800fff75efb3b4b1800fff75afb33
:100aec003a4b1800fff756fb394b1800fff736fb53
:100afc00384b1b8806211800fff7d4fb334b18002a
:100b0c00fff748fb344b1800fff728fb334b1b78df
:100b1c0003211800fff7c6fb314b1800fff73afb17
:100b2c00304b1800fff71afb2f4b1b7803211800d2
:100b3c00fff7b8fb2d4b1800fff72cfb2c4b1800c4
:100b4c00fff70cfb2b4b1b78002b01d02a4b00e042
:100b5c002a4b1800fff71efb294b1800fff7fefa73
:100b6c00284b1b78002b01d0274b00e0274b18009b
:100b7c00fff710fb154b1800fff70cfb244b18006c
:100b8c00fff7ecfafff708fd031e01d0214b00e044
:100b9c00214b1800fff7e2fa204b1800fff7defaa2
:100bac00fff70afd031e01d01d4b00e01d4b180082
:100bbc00fff7f0fa054b1800fff7ecfac046bd46fc
:100bcc0080bdc046f01e0000301f00000c1e00004f
:100bdc00401f000086040020541f0000b8040020b1
:100bec00681f0000701f0000b9040020841f000063
:100bfc00881f0000ba0400209c1f0000a41f0000e6
:100c0c00b01f0000bb040020c41f0000dc1f00004c
:100c1c00ec1f0000f41f0000002000000c2000005e
:100c2c00142000001c200000b0b586b000afb960e5
:100c3c0011007b600e243b19021c1a800d257b19b8
:100c4c000a1c1a703d4b01225a613d4b05211800bc
:100c5c00fff71afc3b4b1800fff79cfa3a4b1800b5
:100c6c00fff798fa394b1800fff794fa384b180035
:100c7c00fff774fabb681800fff78cfa354b1800b5
:100c8c00fff76cfa3b191b8803211800fff7d5fa04
:100c9c002e4b1800fff77efa2f4b1800fff75efa69
:100cac007b191b781800fff787fa2c4b1800fff7fd
:100cbc0071fa2b4b1800fff751fa00237b610ee001
:100ccc007b697a68d3181b7802211800fff7b5faf4
:100cdc00244b1800fff742fa7b6901337b610d242a
:100cec003b191b787a699a42eadb184b1800fff71c
:100cfc0051fa1d4b1800fff731fa7a683b19197835
:100d0c000e23fb181b881800fff766fc0300042158
:100d1c001800fff792fa0d4b1800fff73bfa0b4b3c
:100d2c001800fff737fa3220fff7dcf9034b0122ea
:100d3c009a61c046bd4606b0b0bdc04600440041f5
:100d4c00b80b0000f01e0000202000000c1e00005c
:100d5c00382000004c2000006020000074200000af
:100d6c007c200000902000009420000080b584b00e
:100d7c0000af002002f014fcfff7ecfb01f040fe8a
:100d8c00fff7d8fafff7cafae14b1800fff702fa9f
:100d9c00e04b1800fff7fef9df4b1800fff7faf9ec
:100dac00dc4b1800fff7f6f9d94b1800fff7f2f9f6
:100dbc00da4b1800fff7eef9d94b1800fff7cef914
:100dcc00d84b01225a616420fff78cf9d54b0122d4
:100ddc009a61d44b02225a616420fff783f9d14bfc
:100dec0002229a61cf4b8022d2005a616420fff715
:100dfc0079f9cc4b8022d2009a61ca4b8022120125
:100e0c005a616420fff76ef9c64b802212019a6179
:100e1c00c54b1800fff7bef9c44b1800fff7baf921
:100e2c00c34b1800fff79af9fff79efafa235b0001
:100e3c001800fff757f9bc4b1800fff7abf9bd4b87
:100e4c001800fff78bf9fff7a1fafa235b001800e3
:100e5c00fff748f9b44b1800fff79cf9b64b180094
:100e6c00fff77cf9fff7a4fafa235b001800fff7f1
:100e7c0039f9ad4b1800fff78df9b04b1800fff79f
:100e8c006df9fff7a7fafa235b001800fff72af9b0
:100e9c00a54b1800fff77ef9a94b1800fff75ef978
:100eac00fff7aafafa235b001800fff71bf99e4b19
:100ebc001800fff76ff9a34b1800fff74ff9fff776
:100ecc00adfafa235b001800fff70cf9964b1800eb
:100edc00fff760f99c4b1800fff740f9fff7b0fae9
:100eec00fa235b001800fff7fdf88f4b1800fff793
:100efc0051f9964b1800fff731f9fff7b3fafa23c3
:100f0c005b001800fff7eef8874b1800fff742f96b
:100f1c00fff72afa8e4b1800fff73cf98d4b18009f
:100f2c00fff71cf9fa239b0064211800fff7acfab9
:100f3c007d4b1800fff72ef9874b1800fff70ef9c1
:100f4c00fff7e2fa03001800fff736f9834b18009d
:100f5c00fff720f96e4b1800fff71cf9804b1800b7
:100f6c00fff718f9fa239b0064211800fff78cfa9d
:100f7c003220fff7b7f87b4b64211800fff784fa97
:100f8c003220fff7aff8fa23db0096211800fff7a9
:100f9c007bfafa239b001800fff7a4f80f23fb1829
:100fac0000221a70fff7cafbfff7b8f9fff750fde4
:100fbc00fff76efdfff78afd0f23fb181b78022b42
:100fcc0060d000dd8de0002b02d0012b3ad088e000
:100fdc00654b1b881b0a9bb2dab23b1d1a70624b25
:100fec001b88dab23b1d5a703b1d60490222c0209f
:100ffc00fff71afe5e4b1800fff7b0f85d4b1800b8
:10100c00fff7acf83b1d1b781800fff7d5f85a4bcf
:10101c001800fff7a3f83b1d5b781800fff7ccf81e
:10102c00564b1800fff79af84f4b1b881800fff728
:10103c00c3f8374b1800fff7adf8354b1800fff726
:10104c00a9f84ee04e4b1a783b1d1a703b1d4d49ca
:10105c000122d020fff7e8fd4b4b1800fff77ef87c
:10106c004a4b1800fff77af8454b1b781800fff72e
:10107c00a3f8474b1800fff78df8254b1800fff726
:10108c0089f82ee0434b1a783b1d1a70424b1b78a3
:10109c001a003b1d5a703b1d40490222f020fff7fd
:1010ac00c3fd3f4b1800fff775f83e4b1800fff7d8
:1010bc0055f8384b1b781800fff77ef83a4b1800a0
:1010cc00fff74cf8344b1b78002b01d0374b00e06a
:1010dc00374b1800fff75ef80d4b1800fff75af866
:1010ec00c046344b1800fff755f80f217b181a78bf
:1010fc007b1801321a707b181b78022b02d97b18d3
:10110c0000221a70fa23db001800fef7ebff49e708
:10111c000c1e0000a8200000d4200000f4200000c9
:10112c000821000000440041142100001821000097
:10113c0034210000402100004c2100005c21000003
:10114c006c2100007c2100008c2100009c210000ff
:10115c00ac210000c4210000d0210000dc210000e3
:10116c00e4210000dc0500008604002000220000c1
:10117c000c220000402200005c22000068220000cb
:10118c00b80400206c2200007c220000a022000089
:10119c00681f0000b9040020ba040020bc22000023
:1011ac00cc22000004230000242300003023000084
:0811bc0038230000101e0000a2
:020000040000fa
:1011c40080b500af184b00221a62174b00221a7721
:1011d400154b00229a60144b0022da60134b8022d4
:1011e40092025a60c046114b1b8a9bb21a0080239c
:1011f4001b021a4080231b029a42f4d00b4b072295
:101204009a720a4b0a4a1a60c046084b1b8a9bb260
:101214001a0080231b021a4080231b029a42f4d036
:10122400c046c046bd4680bd58040020000c0042a4
:101234000e00300080b584b000af786039600023c0
:10124400fb600b23fb1800221a703b68002b01d1b2
:101254003d4b3b603d4b1a683c4b02218a431a606c
:101264003b4b0022da603a4b00229a60c046374b6f
:101274001b8a9bb21a0080231b021a4080231b0284
:101284009a42f4d07b68002b45d07b681a683b688f
:101294005b089a423fd87b681b685b00190038687a
:1012a40002f066f80300013bfb60fb68fe2b01d9ea
:1012b400ff23fb60254b1a68244b26490a401a6019
:1012c400224b19687b689a687b685b681a431f4bda
:1012d4000a431a601d4bfa68d2b29a721b4b5a68c1
:1012e4001a4b07218a435a60184b59687b68da689d
:1012f400164b0a435a60c046144b1b8a9bb21a0011
:1013040080231b021a4080231b029a42f4d00b2331
:10131400fb1801221a700d4b1a680c4b02210a4368
:101324001a60c046094b1b8a9bb21a0080231b0219
:101334001a4080231b029a42f4d00b23fb181b781b
:101344001800bd4604b080bd00127a00000c0042b3
:1013540058040020ffffffcf80b582b000af786053
:101364003960054b7a681a62034b3a685a62c04680
:10137400bd4602b080bdc0465804002080b584b08c
:1013840000af0f217b1800221a70174b9b68bb60bb
:10139400fb1d154a127f1a70134bdb68002b06d114
:1013a400bb68002b03d17b1800221a7014e00f4b8a
:1013b4009b7bdbb21a000223134003d0fb1d1b7876
:1013c400002b01d0012200e000220f23fb181a7029
:1013d4001a7801210a401a700f23fb181b78180091
:1013e400bd4604b080bdc04658040020000c004235
:1013f40080b500af054b9b7bdbb21a000223134080
:101404005a425341dbb21800bd4680bd000c004275
:1014140080b588b000aff860b9607a603b601f2384
:10142400fb1800221a700023bb61704b1b7fdbb2d8
:1014340001225340dbb2002b00d1cfe0bb68002b6c
:1014440002d0fb68002b07d13b68002b00d1c5e01c
:101454007b68002b00d1c1e0654b5b680722134019
:10146400012b11d1bb68002b03d0bb6801221340b0
:1014740006d13b68002b07d03b680122134003d000
:101484001f23fb181b78ace01f23fb1801221a70e2
:10149400564bfa681a60554b7a685a60534b0022cf
:1014a4005a61524b00229a61504b00221a61fb6828
:1014b400002b03d04d4bba689a6002e04b4b0022dc
:1014c4009a607b68002b03d0484b3a68da6002e0ec
:1014d400464b0022da60454b01221a7703e0444b65
:1014e4001b8b9bb2bb61424b9b7bdbb21a00042378
:1014f4001340042bf3d03e4b1b8a9bb23c4a04217d
:101504000b439bb21382394b9b687b61374bdb687f
:101514007a699a4205d2354bda687b69d21a334b21
:101524001a61334b5b68072213401cd12f4b9b6914
:101534007a699a420ad92d4b1b681a782c4b1a8364
:101544002a4b9b695a1c294b9a613de0274b1b6926
:10155400002b39d0264bff221a83244b1b695a1eb9
:10156400224b1a6130e0214b9b685a081f4b9a604a
:101574001e4b1b695a081d4b1a611c4bdb685a0829
:101584001a4bda60194b9b687b61184b9b697a692b
:101594009a420dd9154b1b681b88154adb05db0dd8
:1015a4009bb21383114b9b695a1c104b9a610be03d
:1015b4000e4b1b69002b07d00d4b0e4a1a830b4ba5
:1015c4001b695a1e094b1a613b68002b03d0084b58
:1015d40004225a7302e0064b01225a731f23fb189c
:1015e4001b781800bd4608b080bdc04658040020d2
:1015f400000c0042ff01000080b582b000af7860ab
:1016040039603968786800230022fff701ff03007e
:101614001800bd4602b080bd80b582b000af7860ce
:1016240039603b687a6800210020fff7f1fe03006f
:101634001800bd4602b080bd80b586b000af00235f
:10164400fb600023bb606a4b5b6a7b60694b5b7b1e
:10165400dbb2002b00d1c7e0664b5b680722134066
:10166400fb60634b5b697b61614b9b693b61604bd6
:101674009b683b605f4b9b7bdbb21a0004231340e7
:10168400042b21d15b4b1b8b9bb2bb60584bdb689b
:101694007a699a4218d2fb68002b0ad1544b5a68d3
:1016a4007b69d318ba68d2b21a707b6901337b6143
:1016b4000ae04f4b5a687b695b00d318ba6892b250
:1016c4001a807b6901337b614a4b9b7bdbb21a0036
:1016d40001231340012b57d1464b01221a73fb6897
:1016e400002b1cd1424b9b683a699a420ad2404b68
:1016f4001a683b69d3181a783e4b1a833b69013345
:101704003b612ae03a4b1b69002b26d0394bff2260
:101714001a83374b1b695a1e354b1a611de0344b33
:101724009b683a699a420bd2314b1a683b695b0059
:10173400d318304a1b8813833b6901333b610ce0a7
:101744002b4b1b69002b08d02a4b012252421a83cf
:10175400274b1b695a1e264b1a61254b1b69002b0c
:1017640007d13a693b689a4203d1234b01221a708c
:101774000ae01f4bdb687a699a4205d11d4b0122ae
:101784005a731c4b04221a73194b7a695a61184b09
:101794003a699a61174b9b7bdbb21a000223134010
:1017a400022b1ad1144b1b78002b16d0104bdb687c
:1017b4007a699a4211d10e4b00221a770d4b0722f7
:1017c4001a730d4b00221a70094b1b6a002b04d0ac
:1017d400074b1b6a7a6810009847074b1b78002b4d
:1017e40002d0044b02225a73c046bd4606b080bde7
:0c17f40058040020000c00428404002077
:020000040000fa
:1018000080b582b000affb1d00221a700f4b1b8aff
:101810009ab23b1d07210a401a803b1d1b88002bf2
:1018200010d00a4b07221a8204e0084b1b8b9ab295
:10183000fb1d1a70054b9b7bdbb21a00042313407f
:10184000042bf2d0c046bd4602b080bd0008004265
:1018500080b500af154b164a1a60144b154a5a81d1
:10186000124bc02292025a60c046104b1b8a9bb298
:101870001a0080231b021a4080231b029a42f4d0d4
:101880000a4b1a68094b02210a431a60c046074beb
:101890001b8a9bb21a0080231b021a4080231b0262
:1018a0009a42f4d0c046c046bd4680bd0008004202
:1018b0000401104004c5ffff80b500af014b1800c4
:1018c000bd4680bd00127a00b0b588b000af786127
:1018d00039610f2310229b18db1900221a70002394
:1018e000bb617b69002b00d19ae07b691b68002bf0
:1018f00000d195e03b69002b03d1fff7ddff03002a
:101900003b617b691b681b013a699a421dd37b6965
:101910001b68bb600023fb60b968fa680b001b0bf7
:10192000100005051d430b001c053b693b600023af
:101930007b603a687b682000290001f0a9ff020063
:101940000b0080235b029b1abb613a4b1a68394b30
:1019500002218a431a60c046364b1b8a9bb21a008a
:1019600080231b021a4080231b029a42f4d0314b81
:10197000ba6992b25a817b695b68022b13d12d4bf5
:101980001a682c4b2c490a401a602a4b5b68472284
:10199000934319007b699a687b69db681a43254b7e
:1019a0000a435a6018e0234b1b68234a1a40214b14
:1019b000802149040a431a601e4b5b681f4a1a4083
:1019c0007b699b681a437b69db681a4311007b695a
:1019d0005a68184b0a435a60c046164b1b8a9bb282
:1019e0001a0080231b021a4080231b029a42f4d063
:1019f000104b1a680f4b02210a431a60c0460d4b68
:101a00001b8a9bb21a0080231b021a4080231b02f0
:101a10009a42f4d00f2310229b18db1901221a706e
:101a20000f2310229b18db191b781800bd4608b045
:101a3000b0bdc04600080042fffffff0b8dfffff67
:101a400080b582b000af094b1b8a9ab2bb1d07213b
:101a50000a401a80bb1d1b88002b01d0fff7d0fe67
:101a6000bb1d1b881800bd4602b080bd00080042a7
:101a700080b500af0c4b1b680222134011d10a4bfa
:101a80001a68094b02210a431a60c046064b1b8a9a
:101a90009bb21a0080231b021a4080231b029a4229
:101aa000f4d0c046bd4680bd0008004280b500affe
:101ab0000c4b1b680222134011d00a4b1a68094bc9
:101ac00002218a431a60c046064b1b8a9bb21a0049
:101ad00080231b021a4080231b029a42f4d0c04686
:101ae000bd4680bd0008004280b500af0b4b5a6870
:101af0000a4b802149020a435a60c046074b1b8aa1
:101b00009bb21a0080231b021a4080231b029a42b8
:101b1000f4d0c046c046bd4680bdc0460008004265
:101b200080b500af0a4b5a68094b0a490a405a600f
:101b3000c046074b1b8a9bb21a0080231b021a4027
:101b400080231b029a42f4d0c046c046bd4680bde9
:101b500000080042fffffeff80b586b000af78604e
:101b600039601723fb1800221a707b68fb607b68c2
:101b7000bb6000233b617b68002b27d01ee0c04682
:101b8000164b9b7bdbb21a0001231340f8d0134b9a
:101b90005b6807221340012b06d0fa683b69d31813
:101ba0001a780e4b1a8306e03b695b00ba68d318bb
:101bb0000a4a1b8813833b6901333b613a693b68de
:101bc0009a42dcd31723fb1801221a701723fb1843
:101bd0001b781800bd4606b080bdc0460008004214
:101be00080b582b000affb1d00221a70084b9b7bb2
:101bf000dbb21a0001231340012b02d1fb1d01228d
:101c00001a70fb1d1b781800bd4602b080bdc0468f
:101c10000008004280b582b000af7860c046074b34
:101c20009b7bdbb21a0001231340f8d0034b7a6888
:101c300092b21a83c046bd4602b080bd0008004281
:101c400080b582b000affb1d00221a70084b9b7b51
:101c5000dbb21a0002231340022b02d1fb1d01222a
:101c60001a70fb1d1b781800bd4602b080bdc0462f
:101c70000008004280b500af0b4b5a680a4b802128
:101c800089020a435a60c046074b1b8a9bb21a005e
:101c900080231b021a4080231b029a42f4d0c046c4
:101ca000c046bd4680bdc0460008004280b500afba
:101cb0000a4b5a68094b0a490a405a60c046074b0a
:101cc0001b8a9bb21a0080231b021a4080231b022e
:101cd0009a42f4d0c046c046bd4680bd00080042ce
:101ce000fffffdff80b588b000af786039601f232b
:101cf000fb1800221a707b687b617b683b610023c4
:101d0000bb610e23fb1800221a807b68002b3ed09b
:101d1000fff776fd2de0c046204b9b7bdbb21a001f
:101d200004231340f8d01d4b1b8a9ab20e203b1897
:101d300007210a401a803b181b88002b1ed1174b25
:101d40005b6807221340012b08d0144b1b8b99b200
:101d50007a69bb69d318cab21a7007e00f49bb6928
:101d60005b003a69d3180a8b92b21a80bb690133bf
:101d7000bb61ba693b689a42cdd300e0c0463a687d
:101d8000bb699a4203d11f23fb1801221a701f233b
:101d9000fb181b781800bd4608b080bd0008004243
:101da00080b582b000affb1d00221a70084b9b7bf0
:101db000dbb21a0004231340042b02d1fb1d0122c5
:101dc0001a70fb1d1b781800bd4602b080bdc046ce
:101dd0000008004280b500af024b1b8b9bb218007d
:081de000bd4680bd0008004271
:020000040000fa
:101de8000a0000003078000030313233343536379d
:101df8003839414243444546000000001b5b324ae3
:101e08001b5b4800000000003d3d3d3d3d3d3d3d24
:101e18003d3d3d3d3d3d3d3d3d3d3d3d3d3d3d3dea
:101e28003d3d3d3d3d3d3d3d3d3d3d3d3d3d3d3dda
:101e38003d3d3d3d3d3d3d3d3d3d3d3d3d3d3d3dca
:101e48003d3d3d3d00000000202020202020202096
:101e580020202043414e204255532050524f544f8a
:101e6800434f4c202d20454455434154494f4e4142
:101e78004c2053494d554c4154494f4e00000000e9
:101e8800434f4e54524f4c533a00000020205b53ae
:101e980057315d20486f6c64203d20414343454cd9
:101ea8004552415445202020205b5357325d20483d
:101eb8006f6c64203d204252414b450020205b500e
:101ec8004f545d205475726e203d20536574207404
:101ed80068726f74746c65206c6576656c20283048
:101ee8002d313030252900002d2d2d2d2d2d2d2d76
:101ef8002d2d2d2d2d2d2d2d2d2d2d2d2d2d2d2d0a
:101f08002d2d2d2d2d2d2d2d2d2d2d2d2d2d2d2df9
:101f18002d2d2d2d2d2d2d2d2d2d2d2d2d2d2d2de9
:101f28002d2d2d2d0000000056454849434c4520d5
:101f38005354415455533a002020456e67696e65e5
:101f48002052504d3a20202020200000202053709d
:101f58006565643a202020202020202020200000d1
:101f6800206b6d2f6800000020205468726f747415
:101f78006c653a2020202020202000002025000029
:101f880020204272616b653a2020202020202020ea
:101f980020200000454e47414745440052656c6586
:101fa800617365640000000020204d6f64653a206d
:101fb8002020202020202020202000004d414e55a8
:101fc800414c20287573657220636f6e74726f6c54
:101fd800290000004155544f2053494d554c415458
:101fe800494f4e0020205357313a20005052455354
:101ff80053454420200000002d2d2d202020202096
:102008002000000020205357323a200050524553f8
:10201800534544002d2d2d0043414e204652414d3d
:1020280045205452414e534d49545445443a0000ba
:1020380020204d6573736167653a20202020202099
:1020480020200000202043414e2049443a202020ef
:102058002020202020200000202044617461204c92
:10206800656e6774683a2020202000002062797429
:10207800657300002020446174612042797465739f
:102088003a20202020200000200000002020435279
:10209800432d31353a202020202020202020000008
:1020a8003d3d3d3d3d3d3d3d3d3d3d3d3d3d3d3d58
:1020b8003d3d3d3d3d3d3d3d3d3d3d3d3d3d3d3d48
:1020c8003d3d3d3d3d3d3d3d0000000020202020a0
:1020d8002020202053595354454d20494e495449f6
:1020e800414c495a4154494f4e000000546573749d
:1020f800696e672068617264776172652e2e2e00a2
:1021080020204c4544312d343a2020004f4b00000c
:10211800202052474231204c454420746573742076
:102128002850574d312f322f33293a0020202020b4
:102138004f46462e2e2e2000202020205245442e89
:102148002e2e200020202020475245454e2e2e2e90
:102158002000000020202020424c55452e2e2e2005
:10216800000000002020202059454c4c4f572e2eaf
:102178002e200000202020204359414e2e2e2e20b4
:1021880000000000202020204d4147454e54412e9c
:102198002e2e00002020202057484954452e2e2e50
:1021a8002000000020205247422074657374206389
:1021b8006f6d706c65746521000000002020427509
:1021c8007a7a65723a20200020204144433a202040
:1021d8002020200025204f4b00000000537461721e
:1021e80074696e672043414e2073696d756c617424
:1021f800696f6e2e2e2e0000454e47494e455f52a0
:10220800504d00002020466f726d756c613a202099
:1022180020202020202052504d203d202844617449
:10222800615b305d203c3c203829207c204461746f
:10223800615b315d0a000000202043616c63756cae
:102248006174696f6e3a2020202052504d203d2045
:102258002800000020782032353629202b20000065
:10226800203d200056454849434c455f535045455d
:10227800440000002020466f726d756c613a202082
:102288002020202020205370656564203d20446173
:1022980074615b305d0a0000202043616c63756cdb
:1022a8006174696f6e3a2020202053706565642040
:1022b8003d2000005448524f54544c455f4252410f
:1022c8004b4500002020466f726d756c613a2020e6
:1022d8002020202020205468726f74746c65203d83
:1022e80020446174615b305d2c204272616b652013
:1022f8003d20446174615b315d0000002020436132
:102308006c63756c6174696f6e3a20202020546884
:10231800726f74746c65203d20000000252c2042eb
:1023280072616b65203d20004f4e20283129000046
:082338004f4646202830290021
:020000040000fa
:1023400080b500af3f4b404a1a603e4b9022d2020c
:102350001a613c4a40230021d1543a4a41230021ca
:10236000d154384a43230121d154364a4423002111
:10237000d154344a45230021d154324a4823012103
:10238000d154304a49230121d1542e4a4a230021f5
:10239000d1542c4a4b230021d1542a4a4e230021e8
:1023a000d154284a4f230621d154264a50230121d3
:1023b000d154244a51230121d154224a52230021cd
:1023c000d154204a53230121d1541e4a30230021e5
:1023d000d1541c4a31231021d1541a4a32230021ee
:1023e000d154184a34232221d154164a35230021ce
:1023f000d154144a37230021d154124a38232221c0
:10240000d154104a39232021d1540e4980228023ef
:102410009b008b500b4990228023db008b50094a94
:10242000c9230021d154074aca230621d154054aa1
:10243000b4230021d154034ab5230021d154c0460e
:10244000bd4680bd00440041334c040080b582b0dd
:1024500000af78607b681b6a1800bd4602b080bd83
:1024600080b584b000aff860b9607a60fb681b6922
:10247000ba68d2431a401100bb687a681a40fb68f8
:102480000a431a61c046bd4604b080bd80b582b023
:1024900000af78607b681b691800bd4602b080bd44
:1024a00080b582b000af786039607b683a689a6125
:1024b000c046bd4602b080bd80b582b000af786036
:1024c00039607b683a685a61c046bd4602b080bd3b
:1024d00080b582b000af786039607b683a68da61b5
:1024e000c046bd4602b080bd80b584b000af786004
:1024f00039607b683a685a600023fb601ae03a68ea
:10250000fb68da4013000122134010d07a684021a2
:10251000fb68d3185b181b78dbb27a6802210b4387
:10252000d8b24021fb68d3185b18021c1a70fb68f4
:102530000133fb60fb681f2be1d9c046c046bd4696
:1025400004b080bd80b582b000af786039607b6830
:102550003a689a60c046bd4602b080bd80b586b07c
:1025600000af0200bb1d1a807b1d0a1c1a707b1d68
:102570001b783b61bb1d1b885b099bb2224a9446ba
:102580006344db01fb60bb1d1b881f221340bb6043
:10259000fa68bb685b083021d3185b181b78dbb284
:1025a0007b61bb680122134008d07b69f022934312
:1025b0001a003b691b0113437b6105e07b690f2215
:1025c00093433a6913437b61fa68bb685b08796996
:1025d000c8b23021d3185b18021c1a70fa68402167
:1025e000bb68d3185b181b78dbb2fa6801210b4378
:1025f000d8b24021bb68d3185b18021c1a70c046c1
:10260000bd4606b080bdc0468800820080b584b05b
:1026100000af0200bb1d1a80bb1d1b885b099bb26b
:102620000f4a94466344db01fb60bb1d1b881f22dd
:102630001340bb60fa684021bb68d3185b181b7855
:10264000dbb2fa6801218b43d8b24021bb68d318b2
:102650005b18021c1a70c046bd4604b080bdc0465f
:04266000880082006c
:020000040000fa
:1026640080b500af024b80225a60c046bd4680bd93
:102674000040004180b500af024b034a1a80c046b7
:10268400bd4680bd0040004146a5ffff80b586b031
:1026940000aff860b9607a607b687b61ba68796979
:1026a400fb68180001f01afa01231800bd4606b0b1
:1026b40080bd80b584b000af786039603b68bb6092
:1026c4000023fb600ce0fb689b007a68d3181a684f
:1026d400bb681a60bb680433bb60fb680133fb60f2
:1026e400fb680f2befd901231800bd4604b080bd51
:1026f40080b584b000af78600e217b1804221a8064
:10270400074b7a685208da61054a7b181b88054929
:102714000b439bb2138001231800bd4604b080bd57
:102724000040004100a5ffff80b584b000af786091
:1027340039603b68bb600023fb600ce0fb689b00d6
:102744007a68d3181a68bb681a60bb680433bb6024
:10275400fb680133fb60fb680f2befd9054b3a682c
:102764005208da61034b044a1a8001231800bd465b
:1027740004b080bd0040004104a5ffff80b582b0d5
:1027840000af7860054b7a685208da61034b044a5b
:102794001a8001231800bd4602b080bd00400041ec
:1027a40002a5ffff80b586b000af786039603b6852
:1027b4003b610f23fb1800221a703b68154a9342b1
:1027c40021d93b68144a93421dd800237b610ce055
:1027d4007b699b007a68d3181a683b691a603b6965
:1027e40004333b617b6901337b617b690f2befd938
:1027f4000a4b3a685208da61084b094a1a800f23d7
:10280400fb1801221a700f23fb181b781800bd4611
:1028140006b080bdff3f8000c04080000040004102
:1028240006a5ffff80b584b000af78600f217b1848
:1028340000221a707b680c4a93420dd97b680b4abc
:10284400934209d80a4b7a685208da61084b094a5c
:102854001a807b1801221a700f23fb181b781800aa
:10286400bd4604b080bdc046ff3f800000418000eb
:102874000040004105a5ffff80b582b000af0c4bbe
:102884001b8b9ab2bb1d1c210a401a80084b1b8b60
:102894009ab20749bb1d1b8813439bb20b83044b9d
:1028a40002221a75bb1d1b881800bd4602b080bdec
:1028b4000040004180b500af064b1b7ddbb21a001f
:1028c40001231340013b5a1e9341dbb21800bd465d
:1028d40080bdc0460040004180b582b000af786042
:1028e400054b7a685208da61034b044a1a80c046e1
:1028f400bd4602b080bdc0460040004140a5ffff78
:1029040080b582b000af7860054b7a685208da610e
:10291400034b044a1a80c046bd4602b080bdc0467f
:102924000040004141a5ffff80b500af024b034ac0
:102934001a80c046bd4680bd0040004145a5ffff4a
:020000040000fa
:1029440080b582b000af2c4b01221a70c0462a4bce
:102954005b7edbb25bb2002bf9db284b1b68db0e22
:102964007b60274b1b68072213403b607b689ab24d
:102974003b689bb25b019bb213439bb21bb2ff2229
:1029840013401ab21e4b1b68db081bb21b0219b2a0
:10299400e023db000b401bb213431ab2164b92b276
:1029a4001a85154b0322da70134b02225a70124b0c
:1029b400c02252011a61c0460f4b5b7edbb25bb290
:1029c400002bf9db0c4b0f4a9a80c0460a4b5b7e06
:1029d400dbb25bb2002bf9db074b0f221a76c04641
:1029e400054b5b7edbb25bb2002bf9dbc046c04615
:1029f400bd4602b080bdc046004000422060800059
:102a0400246080000404000080b500af094b1b78eb
:102a1400dbb2084a02210b43dbb21370c046054bfc
:102a24005b7edbb25bb2002bf9dbc046c046bd4621
:102a340080bdc0460040004280b500af094b1b7802
:102a4400dbb2084a02218b43dbb21370c046054b4c
:102a54005b7edbb25bb2002bf9dbc046c046bd46f1
:102a640080bdc0460040004280b584b000af020083
:102a7400fb1d1a703b1d0a1c1a800f4b1b69fb605f
:102a8400fb680e4a1340fb60fb1d1a783b1d1b8834
:102a94001343fa681343fb60074bfa681a61c04694
:102aa400054b5b7edbb25bb2002bf9dbc046c04654
:102ab400bd4604b080bdc04600400042e0e0ffffd8
:102ac40080b500af094b1b7bdbb2084a02210b43e4
:102ad400dbb21373c046054b5b7edbb25bb2002beb
:102ae400f9dbc046c046bd4680bdc046004000423a
:102af40080b582b000af0200bb1d1a803b1d0a1cca
:102b04001a800d4abb1d1b889383c0460a4b5b7e0b
:102b1400dbb25bb2002bf9db074a3b1d1b88138435
:102b2400c046054b5b7edbb25bb2002bf9dbc046d3
:102b3400c046bd4602b080bd0040004280b582b0b0
:102b440000af0200fb1d1a70074afb1d1b781372ad
:102b5400c046054b5b7edbb25bb2002bf9dbc046a3
:102b6400c046bd4602b080bd0040004280b500af03
:102b7400024b5b8b9bb21800bd4680bd00400042f7
:102b840080b582b000af0200fb1d1a70034afb1d22
:102b94001b781376c046bd4602b080bd004000429b
:102ba40080b582b000af0200fb1d1a70034afb1d02
:102bb4001b78d375c046bd4602b080bd00400042bc
:102bc40080b582b000af0200fb1d1a70034afb1de2
:102bd4001b789375c046bd4602b080bd00400042dc
:102be40080b582b000af0b4b1b7edbb21a00012311
:102bf4001a40fb1d511e8a411a70fb1d1b78002bc5
:102c040002d0044b01221a76fb1d1b781800bd4626
:082c140002b080bd0040004247
:020000040000fa
:102c1c0080b582b000af0200fb1d1a70fb1d1b7843
:102c2c007f2b09d8fb1d1b781a001f231a40044b5d
:102c3c00012191400a001a60c046bd4602b080bd19
:102c4c0000e100e080b582b000af0200fb1d1a70fd
:102c5c00fb1d1b787f2b0bd8084b1a68fb1d1b78b0
:102c6c0019001f230b40da4013000122134000e02f
:102c7c0000231800bd4602b080bdc04600e100e054
:102c8c0080b582b000af0200fb1d1a70fb1d1b78d3
:102c9c007f2b10d8fb1d1b781a001f2313400849eb
:102cac0001229a40130080228b50bff34f8fc046f5
:102cbc00bff36f8fc046c046bd4602b080bdc04654
:102ccc0000e100e090b583b000af02003960fb1d5d
:102cdc001a70fb1d1b787f2b28d82f4afb1d1b78e5
:102cec005bb29b08c0339b009b58fa1d12781100f5
:102cfc0003220a40d200ff2191400a00d2431a401d
:102d0c0011003b689b01ff221a40fb1d1b78180029
:102d1c0003230340db009a401f48fb1d1b785bb26a
:102d2c009b080a43c0339b001a5031e01b4afb1d21
:102d3c001b7819000f230b40083b9b0806339b00a4
:102d4c00d31804331b68fa1d1278110003220a40b1
:102d5c00d200ff2191400a00d2431a4011003b6877
:102d6c009b01ff221a40fb1d1b7818000323034014
:102d7c00db009a400948fb1d1b781c000f232340e5
:102d8c00083b9b080a4306339b00c31804331a60a4
:102d9c00c046bd4603b090bd00e100e000ed00e090
:102dac0080b500afbff35f8fc04662b6c04603214b
:102dbc000820fff787ff0820fff72affc046bd4613
:102dcc0080bd80b500afbff35f8fc04662b6c04612
:102ddc00c046bd4680bd80b582b000afeff3108316
:102dec003b603a68fb1d51424a411a7072b6c046ac
:102dfc00bff35f8fc046fb1d1b781800bd4602b0a9
:102e0c0080bd80b582b000af0200fb1d1a70fb1da7
:102e1c001b78002b04d0bff35f8fc04662b604e072
:102e2c0072b6c046bff35f8fc046c046bd4602b007
:102e3c0080bdb0b584b000af0200fb1d1a700f2529
:102e4c007c19fff7c8ff03002370fb1d1b785bb2d6
:102e5c001800fff7f7fe02000e243b19511e8a41a1
:102e6c001a70fb1d1b785bb21800fff709ff7b196a
:102e7c001b781800fff7c5ff3b191b781800bd46df
:102e8c0004b0b0bd80b582b000af0200fb1d1a705b
:102e9c00bb1d0a1c1a70bb1d1b78002b06d0fb1d1a
:102eac001b785bb21800fff7b3fec046c046bd46a8
:042ebc0002b080bd23
:020000040000fa
:102ec000880400201c0000000000000058040020be
:102ed0002d00000000000000860400200200000019
:102ee0000100000052030000b804002007000000a9
:102ef00000000000c00400200400000000000000ea
:102f0000080400205000000000000000d004002051
:102f10006c00000001000000dc040020d804002048
:102f2000dc04002000000000250000000800002054
:102f3000000400000000000000000000000000008d
:102f40000000000000000000000000000000000081
:102f5000000000006b3b00000000000000000000cb
:102f60000000000000000000e93500000000000043
:102f70000000000000000000000000000000000051
:102f80000000000000000020080400000000000015
:102f90009c0500202000000001000000010000004e
:102fa000030000000000000000000000000000001e
:102fb0000000000000000000b0040020b004002069
:102fc0000800000000000000c4040020040000000d
:102fd000000000003c05002060000000010000002f
:102fe00001000000030000000000000000000000dd
:102ff000000000000000000000000000a9360000f2
:103000000000000000000000000000004d3b000038
:103010006b3a00000000000000000000000000000b
:1030200000000000000000000000000000000000a0
:103030000000000000000000000000000000000090
:10304000bc05002004000000010000000100000099
:10305000c80400200800000000000000a4040020b4
:103060000c00000000000000000000000000000054
:020000040000fa
:1030700080b500af0a4b1b6a0a4a1a40084b02216e
:103080000a431a62c046064bdb6808221340082b2d
:10309000f9d1034b00229a61c046bd4680bdc046af
:1030a000000800400000ffcf80b500af084b83222e
:1030b00052025a60c046064b5b78dbb21a0080238e
:1030c0001340802bf7d0c046c046bd4680bdc046e9
:1030d000000c004080b500af074b084a5a60c0465c
:1030e000054b5b78dbb21a0080231340802bf7d0ae
:1030f000c046c046bd4680bd000c00400106010030
:1031000080b500affff7b4fffff7cefffff7e2ff98
:103110000a4b0b4a5a80094b0a4a5a80074b0a4a03
:103120005a800a4b1f225a61084b1f22da61074b53
:10313000074a1a62c046bd4680bdc046000c00402a
:103140000d4000000e400000174000000004004049
:043150000c0001006e
:020000040000fa
:10315400f0b506000f0015001c0085b08b4263d843
:1031640001d1824260d82100280000f095fc39008a
:103174000090300000f090fc009b21001b1a1a0004
:103184002800039300f07cfc00900191b94245d8db
:1031940001d1b04242d8009b019c01200021039a36
:1031a400f61aa74100f06cfc04000d00039b002bf1
:1031b4002bd0019b009adb0750081843019b590848
:1031c400039b9c46b9422cd801d1b04229d8320085
:1031d4003b00121a8b41012692185b410027b61856
:1031e4005f4101235b429c446346002bead13000db
:1031f4003900039a00f038fc039aa4197d410600b3
:103204000f0000f03dfc241a8d410a9b002b01d0d5
:103214001e605f602000290005b0f0bd0024002579
:0e322400c4e7b6197f41dce700240025ede782
:020000040000fa
:02323200fee7b5
:020000040000fa
:10323400002941d010b404004c40a44601230022cc
:10324400002900d54942002800d5404288422cd3a9
:1032540001242407a14204d2814202d209011b01a4
:10326400f8e7e400a14204d2814202d249005b00a3
:10327400f8e7884201d3401a1a434c08a04202d30b
:10328400001b5c0822438c08a04202d3001b9c084c
:103294002243cc08a04202d3001bdc0822430028ae
:1032a40003d01b0901d00909e3e710006446002c90
:1032b40000d5404210bc704701b5002000f058fc16
:1032c40002bdc0460029f7d003b5fff7b3ff0ebc1b
:0832d4004243891a1847c04665
:020000040000fa
:1032dc00b0b586b000aff860b9607a6000237b614e
:1032ec001323fb1800221a70fb68002b14d17b6887
:1032fc00002b11d013257c19bb6801211800fef797
:10330c00ebfc030023707b191b7801225340dbb2ca
:10331c00002befd101237b617b691800bd4606b001
:10332c00b0bdb0b586b000aff860b9607a60172355
:10333c00fb1800221a70fb68012b10d117257c1981
:10334c007a68bb6811001800fef700fc03002370bc
:10335c007b191b7801225340dbb2002beed17b682a
:08336c001800bd4606b0b0bd1b
:020000040000fa
:10337400002934d00123002210b488422cd3012424
:103384002407a14204d2814202d209011b01f8e7b9
:10339400e400a14204d2814202d249005b00f8e772
:1033a400884201d3401a1a434c08a04202d3001b9e
:1033b4005c0822438c08a04202d3001b9c082243d1
:1033c400cc08a04202d3001bdc082243002803d00f
:1033d4001b0901d00909e3e7100010bc704701b5cf
:1033e400002000f0c5fb02bd0029f8d003b5fff7ab
:0c33f400c1ff0ebc4243891a1847c046b6
:020000040000fa
:10340000f0b51600040002278269436987b09b1a51
:1034100003939b19029204910596019302ad3a0021
:103420002900206800f0d2fa019b984208d1a368d5
:10343000e268a3619a18a2626361300007b0f0bd30
:1034400000280cda102200236168a3620a43a361fa
:1034500063616260022f12d06b68f61aede7019b80
:103460001b1a01936b68984202d9c01a0835013fb4
:103470002b681b182b606b681b1a6b60cfe71e0054
:02348000dbe788
:020000040000fa
:02348200704791
:020000040000fa
:10348400f7b51d4f03003c68201e0dd0002221001b
:10349400100001920d68ac460d699c4509d1002ac3
:1034a40005d0156110310800febd2900f2e73d602a
:1034b400f8e79c4506d9002802d00668b44501d235
:1034c400080001920a00002defd10028ecd005007d
:1034d40002680169d21a1035102a05d90360eb1865
:1034e40019611900103a1a60844202d13960280027
:0c34f400dae7019b1961fae7c804002028
:020000040000fa
:10350000f8b5866a04000f001500002e0ad0a36ae1
:1035100062699b1aab420cd22a0039002000fff7e7
:103520006fff05e000f094fa03003000002beed0ae
:10353000f8bd002df0d03422a256002a1bdb2b0050
:10354000d2b21e00013bf95c914212d13200390027
:103550002000fff755ff8642ead8bf19ae1b3200a4
:103560003900606900f0bcfa636928009b19636147
:0a357000dee7002be5d12e00f1e7a5
:020000040000fa
:02357a00704798
:020000040000fa
:10357c0080b500af084b1b681b680021180000f0d9
:10358c00bdfa064b1b681b680021180000f0b6fa48
:10359c00c046bd4680bdc046d4040020b8050020fe
:1035ac0080b582b000af78600b4b06225a60fff7f3
:1035bc00dffffef7bffefff79dfdfff74df8fdf7b0
:1035cc00fbfdfef73ff9fff7b7f9fff7e9fbc04644
:0c35dc00bd4602b080bdc046004000416a
:020000040000fa
:1035e8007fb51600c2680d0013000091591e8b416b
:1035f800f31a019383680400039269460222006863
:10360800029300f0ccf9002808dc182208210240b7
:10361800514062680a43626004b070bd01998142fa
:10362800fad2a268431ad3182364e368e263002b32
:1036380001d13000f0e7531ce3631378ad19013d65
:043648002b70f6e706
:020000040000fa
:10364c0000230e4a10b513600d4a13600d4a136027
:10365c000d4a13600d4a13600d4a53621361013316
:10366c00936000f065fa00f0bef90a4c0a4b9c42dc
:10367c0000d310bd08cc9847f8e7c046c40400201e
:10368c001404002010040020080400200c04002066
:0c369c0018040020b0000000b400000082
:020000040000fa
:1036a80070b504000d00002801d1002070bd4368ea
:1036b8009b0607d5426983699a4215d80023a362fd
:1036c800a3616361e36b216c8b4204d20122206801
:1036d800591a00f048fa00232364e3639d42e4d0ba
:1036e800206800f039fae1e70022c36a1100984720
:0c36f8006369002be2d101204042d7e7bb
:020000040000fa
:1037040037b5144d04002b68002b0fd000f070f96e
:10371400019001a800f0ccf90f230f3001999843d0
:1037240000f086f900280bd000232b60002c00d178
:1037340001340f230f349c4304d10c22064b1a602e
:1037440000203ebd2000fff79bfe0028f9d0031f98
:0c3754001c60f6e7bc050020cc0400203f
:020000040000fa
:1037600070b5040016001d00022a1dd043689b0698
:103770001ad4002908d1002d01d18025ed002800a0
:103780000830fff7bfff010020236268a1601343e8
:103790006360e5600a23012e01d001235b42220011
:1037a00034321370014be362002070bd013500001c
:020000040000fa
:1037b00070b5104d04002b68002b0cd0002c12dad1
:1037c0000d4a2b6812689b1a6242934208db2868f4
:1037d00004192c6006e000f0b5f82b68002bedd141
:1037e0000120404270bd054b2a681b689b1aa3420a
:1037f000eddaf5e7a4040020ac040020a8040020c2
:020000040000fa
:1038000010b5064c2378002b07d1054b002b02d0b6
:10381000044800e000bf0123237010bd880400208d
:103820000000000000000000044b10b5002b03d086
:103830000349044800e000bf10bdc046000000007e
:083840008c04002000000000d0
:020000040000fa
:1038480010b50a4b98470a4b984700f05bf8094bac
:10385800ff229343084a9360084b9847084b9847c0
:10386800084b9847fdf784fafee7c046833400000a
:10387800833400000000000000ed00e04d36000039
:083888008334000083340000ca
:020000040000fa
:10389000002b11d1002a0fd1002900d1002802d01d
:1038a0000021c943080007b4024802a14018029051
:1038b00003bdc046c102000003b4684601b50298ca
:1038c000fff748fc019b9e4602b00cbc7047c04607
:020000040000fa
:1038d0001c2101231b04984201d3000c10391b0a40
:1038e000984201d3000a08391b09984201d3000904
:1038f000043902a2105c40187047c046040302025b
:0c390000010101010000000000000000b7
:020000040000fa
:10390c0010b50b480168002905d14368002b02d182
:10391c00fff72dfe10bd04008368064a9bb20c34e1
:10392c009b009b5842682000984780002018e9e7cc
:08393c00c02e0000cc3a00008f
:020000040000fa
:10394400074a1368002b01d1064b1360064b196814
:10395400002901d105491960054b12681a607047a6
:10396400ac040020c8050020a8040020c8070020db
:04397400a404002087
:020000040000fa
:1039780001000022030048318a56501e02430a7093
:103988005968042208001040114205d001200c3269
:0e3998000a435a60404270471864d863fbe748
:020000040000fa
:1039a600f7b5002516000c002f000190b74201db89
:1039b6002800febd626821680198fff78cfc01377c
:0639c6002d180834f2e7a1
:020000040000fa
:1039cc00f7b5002516000c002f000190b74201db63
:1039dc002800febd626821680198fff7a2fc013740
:0639ec002d180834f2e77b
:020000040000fa
:0239f20070471c
:020000040000fa
:1039f40010b5054c2368002b01d1fff7a1ff034b41
:103a040018682368c01a10bda4040020a80400206c
:020000040000fa
:103a1400002310b5934206d103201840421e904162
:0e3a24009b08c01810bdc45ccc540133f2e7ff
:020000040000fa
:023a32007047db
:020000040000fa
:103a340003000020044a10b51468844203d11360c3
:0c3a440018611960013010bdc80400209a
:020000040000fa
:103a500010b50400fff790ff002805d1a368e268c5
:0a3a6000a36163619b18a36210bd0f
:020000040000fa
:023a6a007047a3
:020000040000fa
:103a6c00d0400b00d1409c46203ad34018435242e0
:083a7c006346934018437047b4
:020000040000fa
:103a84009140030090409c46203a9340194352428f
:083a94006346d340194370475b
:020000040000fa
:103a9c0010b5002903d1fff715ff203002e0080014
:083aac00fff710ff10bdc0463a
:020000040000fa
:103ab400006810b5002801da002010bdfff776fe7b
:063ac400431cfad1f8e7f3
:020000040000fa
:103acc001b3b0000153a0000673b0000673b000001
:043adc00673b000044
:020000040000fa
:103ae00010b5002a05d00023cc5cc45401339342a6
:043af000fad110bd3a
:020000040000fa
:103af40010b500f02ff8024b1860586010bdc04696
:043b0400b0040020e9
:020000040000fa
:103b080010b580234a424a41db005200fff724fee9
:023b180010bdde
:020000040000fa
:103b1a008a18914201d10020704700230b700131ad
:023b2a00f7e7bb
:020000040000fa
:103b2c0080b500afc046fde780b500afc046fde7ed
:020000040000fa
:103b3c0010b5fff7d9fffff776fffff774ff10bd45
:020000040000fa
:0a3b4c0010b50068fff7edfb10bd97
:020000040000fa
:083b5800004870473c05002005
:020000040000fa
:063b600001204042704705
:020000040000fa
:043b66000020704784
:020000040000fa
:043b6a000020704780
:020000040000fa
:043b6e00002070477c
:020000040000fa
:043b74007047c04690
:020000040000fa
:0200000400807a
:0440000077c700d8a6
:020000040000fa
:0200000400807a
:044004005c01ffff5d
:00000001FF
